:0400000002EF01F01A
:10000800FACF0EF0FBCF0FF0E9CF10F0EACF11F0E6
:10001800E1CF12F0E2CF13F0D9CF14F0DACF15F018
:10002800F3CF16F0F4CF17F0F6CF18F0F7CF19F09A
:10003800F8CF1AF0F5CF1BF0F2B8F2A2B7D0F292CF
:10004800620E53EC6CF01D6E1DA012D0249024BCDF
:10005800249C000E0101226F000E0101216F24A2D1
:1000680007D0480E53EC6CF01C6E1CB0248424920C
:100078001DA695D01F68000E206E11D02050500D7F
:100088000401000EF324D96E0401040EF420DA6E84
:10009800DF50D8A403D020C01FF004D0202A010EBE
:1000A8002064ECD7020E1F5CD8B074D0040E036E27
:1000B800730E68EC6CF01F50500D0401000EF32411
:1000C800D96E0401040EF420DA6E030E046E000EDD
:1000D800036E3AEC6AF0020FDF6E1F50500D0401F8
:1000E800000EF324D96E0401040EF420DA6EDF50FA
:1000F800096E4F0E095CD8B042D0248A010E206EDA
:100108001AD01F50500D000E096E040E0A6EF350DF
:100118000926F4500A2220500924D96E000E0A201C
:10012800DA6E000E2024036E046A030E04223AECF1
:100138006AF0DF6E202A2050096E0A6A1F50500D9F
:100148000401000EF324D96E0401040EF420DA6EC3
:10015800DF500B6E0C6A020E0B26000E0C220C50A0
:10016800800A0D6E09500B5C0A50800A0D58D8B0F1
:10017800C8D7010E036E1B0E68EC6CF005D0010E9B
:10018800036E1B0E68EC6CF0000E036E730E68ECC9
:100198006CF005D0010E036E1B0E68EC6CF01DA808
:1001A80005D0800E036E590E68EC6CF09EB09DA0D1
:1001B80006D09E90272A276602D00101332B04EC33
:1001C8006DF01BC0F5FF1AC0F8FF19C0F7FF18C083
:1001D800F6FF17C0F4FF16C0F3FF15C0DAFF14C00E
:1001E800D9FF13C0E2FF12C0E1FF11C0EAFF10C03F
:1001F800E9FF0FC0FBFF0EC0FAFF110037EF66F0F2
:100208008CEC35F00009D8B47DEF1AF026B4120052
:10021800000E0101006F28A404D00001AF6BAF2BC2
:1002280002D00001AF6B010100510001AF19FC0BB6
:10023800AF190101006F28A603D00101008702D081
:10024800010100972850030B0001AF6F0001AF05B3
:10025800D8A402D0010E01D0000E0001B06F000139
:10026800B03BB047010100510001B019DF0BB019D4
:100278000101006F28AE03D00101008D02D00101F9
:10028800009D28AE0DD030B003D00101009F02D0F0
:100298000101008F01012AC004F1010129C003F105
:1002A80031C001F132C002F12FC009F12EC008F1AE
:1002B80026946DEF1AF00A0E2D5CD8A07AEF1AF08A
:1002C80020EE02F02B50D9262C50DA22DF50000104
:1002D800D16F20EE03F02B50D9262C50DA22DF50B4
:1002E8000001D26F20EE04F02B50D9262C50DA22D0
:1002F800DF500001E06F20EE05F02B50D9262C507E
:10030800DA22DF500001E16F20EE06F02B50D926EB
:100318002C50DA22DF500001D56F20EE07F02B5069
:10032800D9262C50DA22DF500001D66F20EE08F0D3
:100338002B50D9262C50DA22DF500001E56F20EE31
:1003480009F02B50D9262C50DA22DF500001E66F35
:1003580028A603D00101008702D0010100970101FE
:100368000051030B0009D8A408D0FD0E0001E05D80
:10037800FF0E0001E159D8A006D20101A2510001E7
:10038800E61904E10101A1510001E519D8A40CD036
:100398000101A0510001D61904E101019F5100019A
:1003A800D519D8B47AEF1AF0000E0001E86F44D0DE
:1003B8000001E851080D030EF326000EF422020195
:1003C800000EF324D96E0201020EF420DA6EDF501B
:1003D800D8B430D00001E851080D0201000EF32412
:1003E800D96E0201020EF420DA6E0001DE5200011D
:1003F800E651DD180001E5C0E8FFD8B4DF18D8A43D
:1004080019D00001E851080D020EF326000EF4225F
:100418000201000EF324D96E0201020EF420DA6EF6
:1004280010EE0AF02B50E1262C50E222E750DF6252
:1004380001D006D00001E82B040E0001E865B8D70A
:10044800050E0001E85DD8A07AEF1AF0000E000151
:10045800E86F14D00001E851080D030EF326000ED2
:10046800F4220201000EF324D96E0201020EF420D8
:10047800DA6EDF50D8B406D00001E82B040E000174
:10048800E865E8D7050E0001E85DD8B05CD000014A
:10049800E851080D0201000EF324D96E0201020E84
:1004A800F420DA6E0001E5C0DEFF0001E6C0DDFFE2
:1004B80020EE0AF02B50D9262C50DA220001E85100
:1004C800080D020EF326000EF4220201000EF3249A
:1004D800E16E0201020EF420E26EDFCFE7FF0001B9
:1004E800E851080D030EF326000EF4220201000E57
:1004F800F324D96E0201020EF420DA6E030EDF6EC9
:10050800F6EC68F060C0AFF061C0B0F062C0B1F066
:1005180063C0B2F00001E851080D040EF326000E86
:10052800F4220201000EF324D96E0201020EF42017
:10053800DA6EAFC0DEFFB0C0DEFFB1C0DEFFB2C012
:10054800DDFFD906D9060001E029D8B4E129D8A4ED
:1005580005D001010051FC0B010916D00001E12969
:10056800FE0ED8B4E019D8A404D0030E010100137C
:100578000DD00001E129FD0ED8B4E019D8A406D0A9
:1005880001010051FC0B02090101006F2BC0D9FFCA
:100598002CC0DAFF010EDF6483D12BC0D9FF2CC039
:1005A800DAFFDF0601012DA115D023EE44F010EE8D
:1005B8007EF0070EDECFE6FFE82EFCD70301030E20
:1005C8000001866F03014D0E0001856F4CC387F053
:1005D800E2EC46F0000E03014C6F000E0001E86FDC
:1005E8001AD00001E851010DF3502B24D96EF450B4
:1005F8002C20DA6E03014C51010D03014D0EF3243A
:10060800E16E0301030EF420E26EDFCFE7FF030182
:100618004C2B0001E82B2D500001E85DD8A0E1D754
:1006280028C044F330C048F331C049F332C04AF31C
:10063800F6EC68F060C040F361C041F362C042F379
:1006480063C043F30001D6CF60F00001616B000E78
:100658000001636F640E0001626F64EC64F00001D6
:10066800605103014B6F01012D810001E029D8B4CD
:10067800E129D8A415D12BC0D9FF2CC0DAFF010E6F
:10068800DF640ED1000E0001E86F35D00001E8519B
:100698000E0D0C0EF326000EF4220201280EF32490
:1006A800D96E0201020EF420DA6EDFAE22D000010C
:1006B800E8510E0D0C0EF326000EF4220201280E4E
:1006C800F324D96E0201020EF420DA6EDFB011D0E5
:1006D8000001E8510E0D0C0EF326000EF422020163
:1006E800280EF324D96E0201020EF420DA6EDFBA66
:1006F80006D00001E82B090E0001E865C7D70A0EED
:100708000001E85DD8B0CCD02BC0D9FF2CC0DAFFEF
:10071800DF062DC02FF1000E0001C56F18D00001B3
:10072800C551010DF3502B24D96EF4502C20DA6EEC
:100738000001C551010D0101340EF324E16E0101E0
:10074800010EF420E26EDFCFE7FF0001C52B0101A7
:100758002F510001C55DD8A0E2D7D1C069F0D2C041
:100768006AF0000E00016C6F000E00016B6F000E46
:1007780000016D6F000E28B6010E00016E6F010EAC
:1007880081EC52F08DD00101A0510001D21904E191
:1007980001019F510001D119D8A486EF0FF0010182
:1007A800A2510001E11904E10101A1510001E01980
:1007B800D8A486EF0FF020EE01F02B50D9262C504C
:1007C800DA22DF500001AF6F0001AFA569D040C049
:1007D80034F1020E0101356FD5C036F1D6C037F1BC
:1007E800E5C038F1E6C039F19FC13AF1A0C13BF14B
:1007F800A1C13CF1A2C13DF120EE0AF02B50D9264F
:100808002C50DA22DF5001013E6F000E01013F6FCC
:10081800300E0101406F0D0E01012F6F0001E651EE
:100828000101A219D8B40ED0D5C09DF0D6C09EF053
:10083800E5C09FF0E6C0A0F0000E0001A16F63ECD8
:1008480049F02CD0000E01018B6F01018B8B010E3A
:1008580001018E6F010E01018F6F0001000E010171
:100868008D6F0001E50E01018C6FD5C090F1D6C0E7
:1008780091F121EE8BF010EE7EF0070EDECFE6FF51
:10088800E82EFCD70101010E0001866F0101340E2C
:100898000001856F2FC187F0E2EC46F00101008569
:1008A80020EE0BF02B50D9262C50DA22DF50D8A49A
:1008B8003EEF0FF020EE0CF02B50D9262C50DA2208
:1008C800DF50300AD8A4EBEF0EF022EF0FF0010151
:1008D80067B373D0F6EC68F060C07EF161C07FF159
:1008E80062C080F163C081F120EE08F02B50D92658
:1008F8002C50DA22DF500101696F20EE09F02B50ED
:10090800D9262C50DA22DF5001016A6F000E00014F
:10091800E76F21D00001E7510001AF6FB06B0D0EFA
:100928000001AF27000EB0230001AF512B24D96E70
:100938000001B0512C20DA6E0001E751010D0101D0
:100948006B0EF324E16E0101010EF420E26EDFCF9D
:10095800E7FF0001E72B070E0001E765DBD7010180
:10096800678301016791000E0001E76F0001E751FD
:10097800D8A47AEF1AF00001E7510001AF6FB06B0D
:10098800150E0001AF27000EB0230001AF512B2434
:10099800D96E0001B0512C20DA6E0001E751010D2B
:1009A8000101730EF324E16E0101010EF420E26EE1
:1009B800DFCFE7FF0001E72BD9D70101695120EE0E
:1009C8002BF010EE08F0DE50E126DD50E222E7625F
:1009D8000ED001016A5120EE2BF010EE09F0DE5026
:1009E800E126DD50E222E76202D07AEF1AF0010137
:1009F8006A516911D8A4CED0000E0001E76F39D032
:100A08000001E7510001AF6FB06B0D0E0001AF2779
:100A1800000EB0230001AF512B24D96E0001B05154
:100A28002C20DA6E0001E751010D0101760EF32446
:100A3800E16E0101010EF420E26EDFCFE7FF000155
:100A4800E751010D0101760EF324D96E0101010E63
:100A5800F420DA6E0001E751010D01010A0EF324BA
:100A6800E16E0101010EF420E26EDFCFE7FF000125
:100A7800E72B070E0001E765C3D720EE08F02B50DF
:100A8800D9262C50DA22DF500101746F20EE09F0CC
:100A98002B50D9262C50DA22DF500101756F74C112
:100AA80039F075C13AF09FC1B3F1A0C1B4F182EC3D
:100AB80066F00101686F01016829D8A436D18D0E4E
:100AC8000101326F39AE02D001013291C7EC60F0FA
:100AD8000101686F01016829D8B427D1000E00010F
:100AE800E76F0001E751D8A434D00001E7510001B5
:100AF800AF6FB06B150E0001AF27000EB0230001D9
:100B0800AF512B24D96E0001B0512C20DA6E0001B0
:100B1800E751010D0D0EF326000EF422280E0001F8
:100B2800B16F020EB26FF3500001B127F45000010B
:100B3800B223010168510E0DF3500001B125E16E99
:100B4800F4500001B221E26EDFCFE7FF0001E72B8E
:100B5800C8D7010168510E0D0201280EF3240001C7
:100B6800626F0201020EF4200001636F01016851F7
:100B78000E0D3350F3240001646F3450F42000014B
:100B8800656F000E0001676F0E0E0001666F4BEC7B
:100B980062F0CBD00B0E01012F6F01012F51010D17
:100BA8000101340EF324D96E0101010EF420DA6E2E
:100BB800000EDF6E01012F2B01012F51010D0101E4
:100BC800340EF324D96E0101010EF420DA6E110EF1
:100BD800DF6E01012F2B000E0001E76F3BD00001F3
:100BE800E7510001AF6FB06B0D0E0001AF27000E8B
:100BF800B0230001AF512B24D96E0001B0512C2035
:100C0800DA6E0001E751010D0101760EF324E16E61
:100C18000101010EF420E26EDFCFE7FF0001E7518A
:100C2800010D0101760EF324D96E0101010EF420A5
:100C3800DA6E01012F51010D0101340EF324E16E2A
:100C48000101010EF420E26EDFCFE7FF01012F2B37
:100C58000001E72B070E0001E765C1D720EE08F079
:100C68002B50D9262C50DA22DF500101746F20EE68
:100C780009F02B50D9262C50DA22DF500101756F6C
:100C880001012F51010D0101340EF324D96E010128
:100C9800010EF420DA6E010174C1DFFF01012F2B70
:100CA80001012F51010D0101340EF324D96E010108
:100CB800010EF420DA6E010175C1DFFF01012F2B4F
:100CC800000E0001E76F0001E751D8A424D000010D
:100CD800E7510001AF6FB06B150E0001AF27000E92
:100CE800B0230001AF512B24D96E0001B0512C2044
:100CF800DA6E01012F51010D0101340EF324E16E6A
:100D08000101010EF420E26EDFCFE7FF01012F2B76
:100D18000001E72BD8D70101010E0001AA6F0101DC
:100D2800690E0001A96F13EC67F0010167830101E7
:100D380067817AEF1AF03E50020AD8A47AEF1AF0C7
:100D480020EE0DF02B50D9262C50DA22DF50D8A4F3
:100D5800F7D10B0E01012F6F01012F51010D010178
:100D6800340EF324D96E0101010EF420DA6E000E60
:100D7800DF6E01012F2B01012F51010D0101340EEE
:100D8800F324D96E0101010EF420DA6EA10EDF6E94
:100D980001012F2B000E0001E86F42D00001E8513D
:100DA8000001AF6FB06B0E0E0001AF27000EB0232D
:100DB8000001AF512B24D96E0001B0512C20DA6EFE
:100DC8000001E851010D01010A0EF324E16E010151
:100DD800010EF420E26EDFCFE7FF0001E8510001C9
:100DE800AF6FB06B0E0E0001AF27000EB0230001ED
:100DF800AF512B24D96E0001B0512C20DA6E0101BD
:100E08002F51010D0101340EF324E16E0101010E91
:100E1800F420E26EDFCFE7FF01012F2B0001E82B62
:100E2800070E0001E865BAD726EC63F00001E36F0E
:100E38000001E329D8A4C5D0000E396E010E0001C7
:100E4800E86F0CD0E8C03AF082EC66F00001E36F7E
:100E58000001E329D8B406D00001E82B1F0E0001D9
:100E6800E865F0D7200E0001E85DD8B09CD00001FD
:100E7800E851010D0201D50EF324D96E0201020ECC
:100E8800F420DA6E0001E6C0DFFF01012F51010DE9
:100E98000101340EF324D96E0101010EF420DA6E3B
:100EA8000001E8C0DFFF01012F2B9D0E0101326F09
:100EB8009FC1B3F1A0C1B4F1C7EC60F00001E36FCA
:100EC8000A0E0001E35DD8B061D0000E0001E86FA2
:100ED8000001E851D8A434D00001E8510001AF6FF7
:100EE800B06B160E0001AF27000EB0230001AF5102
:100EF8002B24D96E0001B0512C20DA6E0001E85184
:100F0800010D0D0EF326000EF422280E0001B16F1C
:100F1800020EB26FF3500001B127F4500001B22362
:100F28000001E3510E0DF3500001B125E16EF450BC
:100F38000001B221E26EDFCFE7FF0001E82BC8D73E
:100F48000A0E0001E35DD8B0D4D00001E3510E0DC4
:100F58000201280EF3240001626F0201020EF42040
:100F68000001636F0001E3510E0D3350F3240001BB
:100F7800646F3450F4200001656F000E0001676F44
:100F88000E0E0001666F4BEC62F0B3D00001E85121
:100F9800010D0201D50EF324D96E0201020EF420D0
:100FA800DA6EFF0EDF6E01012F51010D0101340EC3
:100FB800F324D96E0101010EF420DA6EFF0EDF6E04
:100FC80083D00001E3510E0D020EF326000EF42229
:100FD8000201280EF324D96E0201020EF420DA6E03
:100FE800DF50D8A474D0E6C0C8F02CD00001C85196
:100FF800010D0201D50EF324D96E0201020EF42070
:10100800DA6E0001E3510E0D030EF326000EF422F2
:101018000201280EF324E16E0201020EF420E26EB2
:10102800E750DF6201D011D00001C851010D020163
:10103800D50EF324D96E0201020EF420DA6EDF50C9
:101048000001C86F0001C867D1D70001C86720D068
:101058000001E3510E0D030EF326000EF4220201E7
:10106800280EF324D96E0201020EF420DA6EDF5046
:101078000001AF6F0001AF51010D0201D50EF3243D
:10108800D96E0201020EF420DA6E0001E6C0DFFF1D
:101098000001E3510E0D030EF326000EF4220201A7
:1010A800280EF324D96E0201020EF420DA6E010133
:1010B8002F51010D0101340EF324E16E0101010EDF
:1010C800F420E26EDFCFE7FF01012F2B12D00001E1
:1010D800E3510E0D0C0EF326000EF4220201280E29
:1010E800F324D96E0201020EF420DA6E000EDF6ED0
:1010F800A3D60001000E0001AA6F0001E50E000151
:10110800A96F13EC67F001012D51F10B06090101DC
:101118002D6FF6EC68F060C012F161C013F162C087
:1011280014F163C015F1900E0101125FD00E010198
:10113800135B030E0101145B000E0101155BAED2B7
:10114800000E0001E86F21D00001E8510001AF6FE7
:10115800B06B0E0E0001AF27000EB0230001AF5197
:101168002B24D96E0001B0512C20DA6E0001E85111
:10117800010D01010A0EF324E16E0101010EF420B4
:10118800E26EDFCFE7FF0001E82B070E0001E865FC
:10119800DBD726EC63F00001E36F0001E329D8B444
:1011A8007AEF1AF01F0E0001E86F77D0E8C0C9F097
:1011B800000E0001BB6F6CD00001C951010D020186
:1011C800D50EF324D96E0201020EF420DA6EFF0E5A
:1011D800DF6201D060D00001C951010D0201D50EB6
:1011E800F324D96E0201020EF420DA6E0001E351F5
:1011F8000E0D030EF326000EF4220201280EF3242E
:10120800E16E0201020EF420E26EE750DF622BD09D
:101218000001E851010D0201D50EF324D96E020137
:10122800020EF420DA6EFF0EDF6E000E396EE8C093
:101238003AF082EC66F00001BC6F0001BC29D8B41A
:101248002AD00001BC510E0D0C0EF326000EF4221C
:101258000201280EF324D96E0201020EF420DA6E80
:10126800000EDF6E18D00001C951010D0201D50E24
:10127800F324D96E0201020EF420DA6EDF50000169
:10128800C96F0001BB2B210E0001BB6501D003D043
:101298000001C96791D70001E8070001E86786D710
:1012A8000001E3510E0D030EF326000EF422020195
:1012B800280EF324D96E0201020EF420DA6EDF50F4
:1012C8000001AF6F0001AF51010D0201D50EF324EB
:1012D800D96E0201020EF420DA6EFF0EDF6E0001F5
:1012E800E3510E0D0C0EF326000EF4220201280E17
:1012F800F324D96E0201020EF420DA6E000EDF6EBE
:101308000001E3510E0D0201280EF3240001626F63
:101318000201020EF4200001636F0001E3510E0D7B
:101328003350F3240001646F3450F4200001656FDA
:10133800000E0001676F0E0E0001666F4BEC62F045
:1013480001012D51F10B060901012D6FF6EC68F032
:1013580060C012F161C013F162C014F163C015F1ED
:10136800900E0101125FD00E0101135B030E010103
:10137800145B000E0101155B7AEF1AF0000E0001F4
:10138800C16F000E0001E86F21D00001E851000193
:10139800AF6FB06B0D0E0001AF27000EB023000138
:1013A800AF512B24D96E0001B0512C20DA6E000108
:1013B800E851010D01010A0EF324E16E0101010E4D
:1013C800F420E26EDFCFE7FF0001E82B070E0001F3
:1013D800E865DBD7BF0E0101326FFF0E20EE2BF060
:1013E80010EE15F0DE50E126DD50E222E76242D031
:1013F80026EC63F00001D06F0A0E0001D05DD8B072
:101408007AEF1AF0A2C13AF0010E0001CA6F000E7D
:101418000001E86F1AD0CAC039F082EC66F000010A
:10142800AF6F0001AF29D8A40CD00001CA51800FBA
:10143800396E82EC66F00001AF6F0001AF29D8B4B5
:1014480008D00001CA2B0001E82B090E0001E8654D
:10145800E2D70A0E0001E85DD8B016D0800E000170
:10146800CA5DD8B003D0CAC039F00ED0010E000151
:10147800C16F0AD0000E396E20EE15F02B50D92618
:101488002C50DA22DF503A6E9FC1B3F1A0C1B4F1FB
:10149800C7EC60F00001D06F020E0101346F39C053
:1014A80035F13AC036F1C1C037F1000E0001E86FDE
:1014B8000001E851D8A422D00001E851010D220E04
:1014C800F324D96E000EF420DA6E0001E851000111
:1014D800AF6FB06B040E0001AF27000EB0230101FF
:1014E800340E0001AF25E16E0101010E0001B021AB
:1014F800E26EDFCFE7FF0001E82BDAD7050E010126
:101508002F6F0101010E00019E6F01019F0E000166
:101518009D6F0001D0510E0D040EF326000EF4222B
:101528000201280EF32400019F6F0201020EF4202D
:101538000001A06F010E0001A16F000E0001A26F53
:10154800FBEC63F00A0E0001D05DD8B07AEF1AF018
:101558000001D0510E0D0201280EF3240001626F24
:101568000201020EF4200001636F0001D0510E0D3C
:101578003350F3240001646F3450F4200001656F88
:10158800000E0001676F0E0E0001666F4BEC62F0F3
:101598007AEF1AF00B0E01012F6F01012F51010D87
:1015A8000101340EF324D96E0101010EF420DA6E24
:1015B800000EDF6E01012F2B01012F51010D0101DA
:1015C800340EF324D96E0101010EF420DA6EA30E55
:1015D800DF6E01012F2B000E0001E86F1CD0000107
:1015E800E851010D0201D50EF324D96E0201020E55
:1015F800F420DA6E01012F51010D0101340EF3249C
:10160800E16E0101010EF420E26EDFCFE7FF010178
:101618002F2B0001E82B1F0E0001E865E0D7000121
:10162800000E0001AA6F0001E50E0001A96F13EC7E
:1016380067F07AEF1AF0000E0001E86F21D0000180
:10164800E8510001AF6FB06B0D0E0001AF27000E1F
:10165800B0230001AF512B24D96E0001B0512C20CA
:10166800DA6E0001E851010D0201D50EF324E16E96
:101678000201020EF420E26EDFCFE7FF0001E82B43
:101688001F0E0001E865DBD7F6EC68F060C012F1C8
:1016980061C013F162C014F163C015F101012C811E
:1016A8007AEF1AF020EE2EF0030EDF647AEF1AF0CC
:1016B8000D0E0001C26F0001C251010DF3502B2421
:1016C800D96EF4502C20DA6EDF500001C36F000E83
:1016D8000001E86F35D00001E8510001C2C0AFF049
:1016E8000001B06B0001AF27000EB023010E00010E
:1016F800AF27000EB0230001AF512B24D96E000193
:10170800B0512C20DA6E0001E651040D000E0001E4
:10171800B16F060EB26FF3500001B127F45000010B
:10172800B2230001E851010DF3500001B125E16E2B
:10173800F4500001B221E26EDFCFE7FF0001E82B91
:10174800030E0001E865C7D720EE01F02950D9261D
:101758002A50DA22DF500001AF6F070E0001AF17E1
:10176800010E0001B06F0001AF2B03D00001D8902B
:10177800B0370001AF2FFAD720EE01F02950D92653
:101788002A50DA22DF500001B16F0001B151000187
:10179800606F0001616B000E0001636F080E0001AD
:1017A800626FDAEC61F00101920E00016025D96EDA
:1017B8000101010E00016121DA6E0001B051DF1252
:1017C8000001C35120EE29F010EE01F0DE50E126B1
:1017D800DD50E222E7629AD001012DA117D023EE55
:1017E80044F010EE7EF0070EDECFE6FFE82EFCD7C1
:1017F8000301030E0001866F03014D0E0001856F82
:101808004CC387F0E2EC46F001012D91010E030173
:101818004D6F020E03014E6F9FC14FF3A0C150F3ED
:10182800FD0E0301516F030152699FC153F3A0C11B
:1018380054F3A1C155F3A2C156F325C057F3252A85
:10184800000E0301586FA40E0301596F0D0E03011A
:101858004C6F03014C51010D03014D0EF324D96E59
:101868000301030EF420DA6E0001C3C0DFFF030199
:101878004C2B000E0001E86F1CD00001E851010D4F
:101888000101920EF324D96E0101010EF420DA6EE3
:1018980003014C51010D03014D0EF324E16E0301C8
:1018A800030EF420E26EDFCFE7FF03014C2B0001AB
:1018B800E82B030E0001E865E0D7000E0301446F32
:1018C80003014485010E0301486F9FC149F3A0C17C
:1018D8004AF30001D6CF60F00001616B000E0001F1
:1018E800636F640E0001626F64EC64F00001605184
:1018F80003014B6FF6EC68F060C040F361C041F340
:1019080062C042F363C043F301012D8101012C83BE
:1019180001012C85F6EC68F060C012F161C013F18A
:1019280062C014F163C015F17AEF1AF0000E0001DD
:10193800DB6F21D00001DB510001AF6FB06B0D0EE2
:101948000001AF27000EB0230001AF512B24D96E40
:101958000001B0512C20DA6E0001DB51010D0101AC
:101968000A0EF324E16E0101010EF420E26EDFCFCE
:10197800E7FF0001DB2B070E0001DB65DBD78D0ECF
:101988000101326F20EE15F02B50D9262C50DA22A7
:10199800DF500001AF6F0001AFAF02D001013291FB
:1019A80020EE15F02B50D9262C50DA22DF50396E54
:1019B80020EE16F02B50D9262C50DA22DF503A6E42
:1019C8009FC1B3F1A0C1B4F182EC66F00101686F68
:1019D80001016829D8B417D0010168510E0D0C0E09
:1019E800F326000EF4220201280EF324D96E020118
:1019F800020EF420DA6EDF500101326F01013285E8
:101A08000101328707D08D0E0101326F39AE02D045
:101A180001013291C7EC60F00101686F010168298A
:101A2800D8B45ED0000E0001DB6F0001DB51D8A4F2
:101A380034D00001DB510001AF6FB06B170E00010D
:101A4800AF27000EB0230001AF512B24D96E00013F
:101A5800B0512C20DA6E0001DB51010D0D0EF3267A
:101A6800000EF422280E0001B16F020EB26FF3507F
:101A78000001B127F4500001B223010168510E0D95
:101A8800F3500001B125E16EF4500001B221E26E7D
:101A9800DFCFE7FF0001DB2BC8D7010168510E0D2E
:101AA8000201280EF3240001626F0201020EF420E5
:101AB8000001636F010168510E0D3350F3240001DA
:101AC800646F3450F4200001656F000E0001676FE9
:101AD8000E0E0001666F4BEC62F00101678102D0C7
:101AE80001016791010167937AEF1AF020EE0DF07A
:101AF8002B50D9262C50DA22DF500001CC6F20EE73
:101B08000EF02B50D9262C50DA22DF500001CD6F71
:101B180020EE0FF02B50D9262C50DA22DF5000018E
:101B2800CE6F20EE10F02B50D9262C50DA22DF5041
:101B38000001CF6FF9EC6CF001012DBF7AEF1AF0BC
:101B480001012D8F7AEF1AF020EE0DF02B50D926D7
:101B58002C50DA22DF500101836F20EE0EF02B505B
:101B6800D9262C50DA22DF500101846F20EE0FF0C5
:101B78002B50D9262C50DA22DF500101856F20EE38
:101B880010F02B50D9262C50DA22DF500101866F35
:101B9800000E0101826F01018281F6EC68F060C0DD
:101BA80087F161C088F162C089F163C08AF17AEF78
:101BB8001AF020EE0DF02B50D9262C50DA22DF50E7
:101BC8000001AF6F0001AF51010D0301000EF324B6
:101BD800D96E0301030EF420DA6E300EDF647AEF5B
:101BE8001AF00B0E01012F6F01012F51010D010198
:101BF800340EF324D96E0101010EF420DA6E000EC2
:101C0800DF6E01012F2B01012F51010D0101340E4F
:101C1800F324D96E0101010EF420DA6EB30EDF6EE3
:101C280001012F2B20EE0DF02B50D9262C50DA2253
:101C380001012F51010D0101340EF324E16E010160
:101C4800010EF420E26EDFCFE7FF01012F2B000E1B
:101C58003A6E000E396E000E0001AA6F390E0001AF
:101C6800A96F13EC67F07AEF1AF020EE0DF02B5005
:101C7800D9262C50DA22DF500001AF6F01018231E2
:101C8800E832E8321F0B0001AF19D8A47AEF1AF036
:101C9800010182857AEF1AF020EE0DF02B50D9263B
:101CA8002C50DA22DF503C18D8A47AEF1AF0000E34
:101CB80001012F6F40C034F1020E0101356F9FC141
:101CC80036F1A0C137F120EE08F02B50D9262C5060
:101CD800DA22DF500101386F20EE09F02B50D926A7
:101CE8002C50DA22DF500101396F9FC13AF1A0C1AF
:101CF8003BF1A1C13CF1A2C13DF125C03EF1252A2D
:101D0800000E01013F6F420E0101406F000E0101FC
:101D18008B6F01018B8B010E01018E6F010E01018A
:101D28008F6F9FC190F1A0C191F1080E2B24010182
:101D38008C6F000E2C2001018D6F21EE8BF010EEC0
:101D48007EF0070EDECFE6FFE82EFCD70101010E7C
:101D58000001866F0101340E0001856F0D0E000130
:101D6800876FE2EC46F07AEF1AF03C5020EE2BF049
:101D780010EE0DF0DE50E126DD50E222E7627AEF48
:101D88001AF0F6EC68F060C087F161C088F162C0B3
:101D980089F163C08AF10101828320EE0EF02B5095
:101DA800D9262C50DA22DF500001AF6F0001AF476F
:101DB800AF47AF47010182510001AF19070BAF19B7
:101DC8000101826F7AEF1AF0269C7AEF1AF020EE62
:101DD8000CF02B50D9262C50DA22DF50100AD8B438
:101DE8006BEF04F0010AD8B4A1D5510AD8B4BDD715
:101DF800010AD8B451D7030AD8B4E6D7E20AD8B44E
:101E08009FEF06F0010AD8B4C2EF09F0030AD8B46C
:101E1800CEEF0AF0010AD8B40ED4070AD8B442D4D7
:101E2800140AD8B463D6010AD8B48ED6030AD8B433
:101E3800C0D6010AD8B419D77AEF1AF00101E451D3
:101E480020EE2BF010EE0AF0DE50E126DD50E22203
:101E5800E7627AEF1AF001019A510001E61904E1EC
:101E6800010199510001E519D8A47AEF1AF02696D4
:101E78007AEF1AF02D50F50F0101076F0B0E2B2486
:101E88000101056F000E2C200101066FD5C001F17C
:101E9800D6C002F1FF0E20EE2BF010EE08F0DE5057
:101EA800E126DD50E222E76219D0FF0E20EE2BF08A
:101EB80010EE09F0DE50E126DD50E222E7620ED096
:101EC80030B003D00101009F02D00101008F010151
:101ED8002AC004F1010129C003F10AD00101008FD1
:101EE800080E2B240101036F000E2C200101046F42
:101EF8000101008D01010751D8B47AEF1AF0268448
:101F08007AEF1AF02BC0D9FF2CC0DAFFDF50D8B413
:101F18007AEF1AF02BC0D9FF2CC0DAFFDF06000ECB
:101F280001012F6F000E0001E86F1AD00001E8517F
:101F3800010DF3502B24D96EF4502C20DA6E0101D8
:101F48002F51010D0101340EF324E16E0101010E40
:101F5800F420E26EDFCFE7FF01012F2B0001E82B11
:101F68002D500001E85DD8A0E1D70101A251000180
:101F780020EEE1F0DF6236D001013F6733D0010186
:101F88004051300AD8A42ED0000E01018B6F0101F8
:101F98008B8B010E01018E6F010E01018F6F000105
:101FA800000E01018D6F0001E00E01018C6FD1C0A0
:101FB80090F1D2C091F121EE8BF010EE7EF0070E79
:101FC800DECFE6FFE82EFCD70101010E0001866F87
:101FD8000101340E0001856F2FC187F0E2EC46F055
:101FE8007AEF1AF0D1C09DF0D2C09EF0E0C09FF009
:101FF800E1C0A0F0000E28B6010E0001A16F63EC4D
:1020080049F07AEF1AF0000E0001C66F0001C651C0
:102018000001AF6FB06B040E0001AF27000EB023B4
:102028000001AF512B24D96E0001B0512C20DA6E7B
:10203800DF505D0AD8B426A07AEF1AF031C0B3F1A8
:1020480032C0B4F129C0D9FF2AC0DAFFDF50396E97
:1020580020EE01F02950D9262A50DA22DF503A6EB4
:102068000001C651010DF3502B24D96EF4502C20D9
:10207800DA6EFF0EDF627AEF1AF00001C651000136
:10208800AF6FB06B010E0001AF27000EB023000147
:10209800AF512B24D96E0001B0512C20DA6EDF50DD
:1020A8000001C76F040E215CD8B07AEF1AF0000166
:1020B800C739030B0001AF6F020E0001AF5DD8B046
:1020C8007AEF1AF021500F0D0301800EF324D96E18
:1020D8000301030EF420DA6E3CC0DFFF21500F0D20
:1020E8000B0EF326000EF4220301800EF324D96EA2
:1020F8000301030EF420DA6E010108C1DFFF21504D
:102108000F0D0C0EF326000EF4220301800EF324AB
:10211800D96E0301030EF420DA6E010109C1DFFF55
:1021280021500F0D090EF326000EF4220301800E34
:10213800F324D96E0301030EF420DA6E0101B3C152
:10214800DEFF0101B4C1DDFF21500F0D0D0EF32696
:10215800000EF4220301800EF324D96E0301030E4E
:10216800F420DA6E000EDF6E21500F0D0D0EF326EF
:10217800000EF4220301800EF324D96E0301030E2E
:10218800F420DA6E0301DF8C0001C731030B000174
:10219800AF6F21500F0D0D0EF326000EF422030130
:1021A800800EF324D96E0301030EF420DA6E0301C6
:1021B800DF500001AF19FC0BAF190301DF6E0001FE
:1021C800C7A710D021500F0D0D0EF326000EF422D4
:1021D8000301800EF324D96E0301030EF420DA6E96
:1021E8000301DF860001C739030B0001AF6F020E40
:1021F8000001AF5DD8B010D021500F0D0D0EF326A1
:10220800000EF4220301800EF324D96E0301030E9D
:10221800F420DA6E0301DF8A21500F0D0D0EF3262C
:10222800000EF4220301800EF324D96E0301030E7D
:10223800F420DA6E0301DF8E03C1D9FF04C1DAFF8F
:1022480021500F0D010EF326000EF4220301800E1B
:10225800F324E16E0301030EF420E26EDFCFE7FF03
:10226800010120EE01F001010351D92601010451B9
:10227800DA2221500F0D020EF326000EF42203017C
:10228800800EF324E16E0301030EF420E26EDFCF2B
:10229800E7FF000E0001E86F0001E851D8A439D02B
:1022A8000001E8510001C6C0AFF00001B06B0001A9
:1022B800AF27000EB023060E0001AF27000EB02393
:1022C8000001AF512B24D96E0001B0512C20DA6ED9
:1022D8000001E851010D0E0EF326000EF422800EC7
:1022E8000001B16F030EB26FF3500001B127F45033
:1022F8000001B22321500F0DF3500001B125E16E0A
:10230800F4500001B221E26EDFCFE7FF0001E82BB5
:10231800C3D7212A7AEF1AF0000E0001C46F010E0C
:102328003B6402D07AEF1AF026A27AEF1AF0000E78
:102338000001E86F18D00001E851010DF35029247D
:10234800D96EF4502A20DA6E0001E851010D01011E
:102358000A0EF324E16E0101010EF420E26EDFCFD4
:10236800E7FF0001E82B070E0001E865E4D726EC3B
:1023780063F00001E26F0001E229D8B47AD00001CD
:10238800E2510E0D0C0EF326000EF4220201280E67
:10239800F324D96E0201020EF420DA6EDFAA69D0A6
:1023A8000001E2513D18D8B464D00001E2510E0D8D
:1023B8000C0EF326000EF4220201280EF324D96E27
:1023C8000201020EF420DA6EDFA653D00001E251BA
:1023D8000E0D020EF326000EF4220201280EF3243D
:1023E800D96E0201020EF420DA6EDECF39F0DDCFAD
:1023F8003AF0010E3B6402D07AEF1AF0000E0001A9
:10240800E86F0001E851D8A443D20001E851000167
:10241800AF6FB06B020E0001AF27000EB0230001B2
:10242800AF512B24D96E0001B0512C20DA6E000177
:10243800E851010D0D0EF326000EF422280E0001BE
:10244800B16F020EB26FF3500001B127F4500001D2
:10245800B2230001E2510E0DF3500001B125E16EE7
:10246800F4500001B221E26EDFCFE7FF0001E82B54
:10247800C8D73B50D8A47AEF1AF0A70E0101326FE3
:102488009FC1B3F1A0C1B4F1C7EC60F00001E26FE5
:102498000001E229D8B466D1000E0001E86F0001FE
:1024A800E851D8A434D00001E8510001AF6FB06BF7
:1024B800020E0001AF27000EB0230001AF512B24FC
:1024C800D96E0001B0512C20DA6E0001E851010DDF
:1024D8000D0EF326000EF422280E0001B16F020E35
:1024E800B26FF3500001B127F4500001B22300018C
:1024F800E2510E0DF3500001B125E16EF4500001D8
:10250800B221E26EDFCFE7FF0001E82BC8D720EE4B
:1025180001F02B50D9262C50DA22DF500001AF6F82
:102528000001AFADF9D03E50020AD8B484D00B0EEA
:1025380001012F6F01012F51010D0101340EF32408
:10254800D96E0101010EF420DA6E000EDF6E010172
:102558002F2B01012F51010D0101340EF324D96EE7
:102568000101010EF420DA6EA00EDF6E01012F2B9F
:1025780001012F51010D0101340EF324D96E01011F
:10258800010EF420DA6E000EDF6E01012F2B000E13
:102598000001E86F1CD00001E851010D01010A0E8D
:1025A800F324D96E0101010EF420DA6E01012F51D6
:1025B800010D0101340EF324E16E0101010EF42036
:1025C800E26EDFCFE7FF01012F2B0001E82B070E9A
:1025D8000001E865E0D7000E0001E86F0001E8514E
:1025E800D8A41BD00001E851010D220EF324D96EA6
:1025F800000EF420DA6E01012F51010D0101340E95
:10260800F324E16E0101010EF420E26EDFCFE7FF53
:1026180001012F2B0001E82BE1D7000E3A6E000EC6
:10262800396E000E0001AA6F390E0001A96F13EC74
:1026380067F07AEF1AF0000E396E010E0001D36FC1
:102648003CD0D3C03AF082EC66F00001BD6F0001C7
:10265800BD29D8A430D0000E396ED3C03AF000019D
:10266800D351010D0201D50EF324D96E0201020ED9
:10267800F420DA6E000EDF6E01012D51F10B060910
:1026880001012D6FF6EC68F060C012F161C013F122
:1026980062C014F163C015F1900E0101125FD00EF3
:1026A8000101135B030E0101145B000E0101155BB0
:1026B80001012C8106D00001D32B1F0E0001D36528
:1026C800C0D70001D351200AD8A454D0000E3A6EC6
:1026D800010E0001E86F7F0E0001E86501D03ED0D1
:1026E800E8C039F082EC66F00001AF6F0001AF2955
:1026F800D8A40FD00001E851800F396E82EC66F043
:102708000001AF6F0001AF29D8A403D0E8C039F0A9
:1027180025D00001E82BDFD7A2C13AF0010E000155
:10272800E86F18D0E8C039F082EC66F00001AF6FAE
:102738000001AF29D8A40CD00001E851800F396EF0
:1027480082EC66F00001AF6F0001AF29D8B4DED784
:102758000001E82B7F0E0001E865E4D77F0E000139
:10276800E86508D0010E0001C46FFF0E3A6EFE0E38
:10277800396E8ED0BF0E0101326F20EE01F02B5062
:10278800D9262C50DA22DF500001AF6F0001AFB11B
:1027980003D001013291398E0001C46779D09FC1FD
:1027A800B3F1A0C1B4F1C7EC60F00001E26F0A0E0A
:1027B8000001E25DD8B06CD00001E2510E0D0C0EA4
:1027C800F326000EF4220201280EF324D96E02012A
:1027D800020EF420DA6E0201DF88000E0001E86FB5
:1027E8000001E851D8A434D00001E8510001AF6FCE
:1027F800B06B020E0001AF27000EB0230001AF51ED
:102808002B24D96E0001B0512C20DA6E0001E8515A
:10281800010D0D0EF326000EF422280E0001B16FF3
:10282800020EB26FF3500001B127F4500001B22339
:102838000001E2510E0DF3500001B125E16EF45094
:102848000001B221E26EDFCFE7FF0001E82BC8D715
:102858000001E2510E0D0201280EF3240001626FFF
:102868000201020EF4200001636F0001E2510E0D17
:102878003350F3240001646F3450F4200001656F75
:10288800000E0001676F0E0E0001666F4BEC62F0E0
:10289800020E0101346F39C035F13AC036F1C4C0B7
:1028A80037F1000E0001E86F0001E851D8A422D0EA
:1028B8000001E851010D220EF324D96E000EF42018
:1028C800DA6E0001E8510001AF6FB06B040E000131
:1028D800AF27000EB0230101340E0001AF25E16ED1
:1028E8000101010E0001B021E26EDFCFE7FF000118
:1028F800E82BDAD7050E01012F6F0101010E000147
:102908009E6F01019F0E00019D6F0001E2510E0DA7
:10291800040EF326000EF4220201280EF32400010F
:102928009F6F0201020EF4200001A06F010E00014A
:10293800A16F000E0001A26FFBEC63F07AEF1AF0B2
:1029480020EE03F02B50D9262C50DA22DF50D8A4E1
:102958002AD120EE01F02B50D9262C50DA22DF5054
:102968000101A16F20EE02F02B50D9262C50DA225B
:10297800DF500101A26F0101A16702D0010E01D051
:10298800000E3E6E3EC0AFF00001AF4701012B5173
:102998000001AF19F90BAF1901012B6F000E0001EF
:1029A800636F3E0E0001626FAFC164F0B0C165F0A5
:1029B800000E0001676F010E0001666F4BEC62F0BC
:1029C8000101010E0001666F0101A10E0001656F92
:1029D8000101010E0001686F01019F0E0001676F80
:1029E8001EEC68F02682BF0E0101326F000E000156
:1029F800E86F18D00001E851010DF3502924D96E71
:102A0800F4502A20DA6E0001E851010D01010A0E86
:102A1800F324E16E0101010EF420E26EDFCFE7FF3F
:102A28000001E82B070E0001E865E4D73D500E0DC4
:102A3800020EF326000EF4220201280EF324D96EAA
:102A48000201020EF420DA6EDECF39F0DDCF3AF063
:102A58009FC1B3F1A0C1B4F1C7EC60F03D6E000EA8
:102A68000001E86F0001E851D8A433D00001E85113
:102A78000001AF6FB06B040E0001AF27000EB0234A
:102A88000001AF512B24D96E0001B0512C20DA6E11
:102A98000001E851010D0D0EF326000EF422280E58
:102AA8000001B16F020EB26FF3500001B127F4506C
:102AB8000001B2233D500E0DF3500001B125E16E27
:102AC800F4500001B221E26EDFCFE7FF0001E82BEE
:102AD800C9D701012D518F0B300901012D6FF6EC7B
:102AE80068F060C012F161C013F162C014F163C0F4
:102AF80015F10101010E0001636F01019F0E000134
:102B0800626F35C064F036C065F0000E0001676F73
:102B1800020E0001666F4BEC62F00101010E00012C
:102B2800636F0101A10E0001626F37C064F038C005
:102B380065F0000E0001676F020E0001666F4BEC36
:102B480062F0000E0001636F3D0E0001626FA9C1C3
:102B580064F0AAC165F0000E0001676F010E000164
:102B6800666F4BEC62F03D500E0D0201280EF32407
:102B78000001626F0201020EF4200001636F3D50F4
:102B88000E0D3350F3240001646F3450F42000011B
:102B9800656F000E0001676F0E0E0001666F4BEC4B
:102BA80062F07AEF1AF03D6801019F690101A0699E
:102BB80039683A68000E0001666F390E0001656FCA
:102BC8000101010E0001686F01019F0E0001676F8E
:102BD8001EEC68F0000E0001636F3D0E0001626F8D
:102BE800A9C164F0AAC165F0000E0001676F010E6B
:102BF8000001666F4BEC62F00101010E0001636F8A
:102C080001019F0E0001626F35C064F036C065F0A7
:102C1800000E0001676F020E0001666F4BEC62F058
:102C28007AEF1AF026A27AEF1AF03050D8B411D001
:102C380029C0D9FF2AC0DAFFDF50396E20EE01F033
:102C48002950D9262A50DA22DF503A6E82EC66F0F3
:102C580022D0000E0001E86F18D00001E851010DE4
:102C6800F3502924D96EF4502A20DA6E0001E85175
:102C7800010D01010A0EF324E16E0101010EF42099
:102C8800E26EDFCFE7FF0001E82B070E0001E865E1
:102C9800E4D726EC63F00001E46F0001E429D8B41E
:102CA8007AEF1AF00001E4510E0D0C0EF326000E17
:102CB800F4220201280EF324D96E0201020EF42038
:102CC800DA6EDFAA7AEF1AF00001E4513D18D8B4A1
:102CD800A5D10001E4510E0D020EF326000EF422D8
:102CE8000201280EF324D96E0201020EF420DA6ED6
:102CF800DF50D8A461D13E50020AD8A4EBD01F0EF1
:102D08000001E86F77D0E8C0CBF0000E0001BE6F7D
:102D18006CD00001CB51010D0201D50EF324D96E00
:102D28000201020EF420DA6EFF0EDF6201D060D0DD
:102D38000001CB51010D0201D50EF324D96E020119
:102D4800020EF420DA6E0001E4510E0D030EF32694
:102D5800000EF4220201280EF324E16E0201020E95
:102D6800F420E26EE750DF622BD00001E851010D3C
:102D78000201D50EF324D96E0201020EF420DA6E98
:102D8800FF0EDF6E000E396EE8C03AF082EC66F096
:102D98000001BF6F0001BF29D8B42AD00001BF517C
:102DA8000E0D0C0EF326000EF4220201280EF32459
:102DB800D96E0201020EF420DA6E000EDF6E18D012
:102DC8000001CB51010D0201D50EF324D96E020189
:102DD800020EF420DA6EDF500001CB6F0001BE2B2B
:102DE800210E0001BE6501D003D00001CB6791D749
:102DF8000001E8070001E86786D70001E4510E0DDD
:102E0800030EF326000EF4220201280EF324D96ED5
:102E18000201020EF420DA6EDF500001AF6F0001EC
:102E2800AF51010D0201D50EF324D96E0201020E35
:102E3800F420DA6EFF0EDF6E0001E4510E0D0C0E69
:102E4800F326000EF4220201280EF324D96E0201A3
:102E5800020EF420DA6E000EDF6E0001E4510E0D52
:102E68000201280EF3240001626F0201020EF42011
:102E78000001636F0001E4510E0D3350F32400018B
:102E8800646F3450F4200001656F000E0001676F15
:102E98000E0E0001666F4BEC62F001012D51F10B33
:102EA800060901012D6FF6EC68F060C012F161C0EF
:102EB80013F162C014F163C015F1900E0101125FA5
:102EC800D00E0101135B030E0101145B000E01011A
:102ED800155B72D00B0E01012F6F01012F51010DEF
:102EE8000101340EF324D96E0101010EF420DA6ECB
:102EF800000EDF6E01012F2B01012F51010D010181
:102F0800340EF324D96E0101010EF420DA6EA00EFE
:102F1800DF6E01012F2B01012F51010D0101340E2C
:102F2800F324D96E0101010EF420DA6E010EDF6E72
:102F380001012F2B000E0001E86F2ED00001E8518F
:102F4800010D040EF326000EF422280E0001AF6FC7
:102F5800020EB06FF3500001AF27F4500001B02308
:102F68000001E4510E0DF3500001AF25D96EF45065
:102F78000001B021DA6E01012F51010D0101340E5B
:102F8800F324E16E0101010EF420E26EDFCFE7FFCA
:102F980001012F2B0001E82B070E0001E865CED7B1
:102FA800000E3A6E000E396E000E0001AA6F390E3F
:102FB8000001A96F13EC67F00001E4510E0D0C0E2F
:102FC800F326000EF4220201280EF324D96E020122
:102FD800020EF420DA6E000EDF6E0001E4510E0DD1
:102FE8000201280EF3240001626F0201020EF42090
:102FF8000001636F0001E4510E0D3350F32400010A
:10300800646F3450F4200001656F000E0001676F93
:103018000E0E0001666F4BEC62F068D2000E0001E4
:10302800E86F8FD00001E8510E0D0C0EF326000E4C
:10303800F4220201280EF324D96E0201020EF420B4
:10304800DA6EDFAE6BD00001E8510E0D0C0EF326E0
:10305800000EF4220201280EF324D96E0201020E9A
:10306800F420DA6EDFAA5AD00001E8513D18D8B42E
:1030780055D0000E01012F6F01012F51010D0101E3
:10308800340EF324D96E0101010EF420DA6E030E1A
:10309800DF6E01012F2B000E01018B6F01018B8B5D
:1030A80001018B51FC0B010901018B6F010E01011C
:1030B8008E6F010E01018F6F9FC190F1A0C191F138
:1030C8000001E8510E0D020EF326000EF422020153
:1030D800280EF32401018C6F0201020EF420010175
:1030E8008D6F21EE8BF010EE7EF0070EDECFE6FF3F
:1030F800E82EFCD70101010E0001866F0101340E94
:103108000001856F2FC187F0E2EC46F0000E000148
:103118006D6F640E00016C6FBBEC62F00001E8514A
:103128000E0D0C0EF326000EF4220201280EF324D5
:10313800D96E0201020EF420DA6E000EDF6E000175
:10314800E82B090E0001E8656DD70B0E01012F6F02
:1031580001012F51010D0101340EF324D96E010133
:10316800010EF420DA6E000EDF6E01012F2B010133
:103178002F51010D0101340EF324D96E0101010E06
:10318800F420DA6EA00EDF6E01012F2B01012F5102
:10319800010D0101340EF324D96E0101010EF42052
:1031A800DA6E010EDF6E01012F2B000E0001E86FB1
:1031B8002ED00001E851010D040EF326000EF42272
:1031C800280E0001AF6F020EB06FF3500001AF2759
:1031D800F4500001B0230001E4510E0DF35000013A
:1031E800AF25D96EF4500001B021DA6E01012F51DC
:1031F800010D0101340EF324E16E0101010EF420EA
:10320800E26EDFCFE7FF01012F2B0001E82B070E4D
:103218000001E865CED7000E3A6E000E396E000E3A
:103228000001AA6F390E0001A96F13EC67F03D6821
:103238000101A1690101A26901019F690101A06958
:103248000101010E0001666F0101A10E0001656F09
:103258000101010E0001686F01019F0E0001676FF7
:103268001EEC68F02692000E0001E86F34D00001D1
:10327800E851010D0201D50EF324D96E0201020EA8
:10328800F420DA6EFF0EDF6E000E0001E46F1DD031
:103298000001E851040D000E0001AF6F060EB06F7B
:1032A800F3500001AF27F4500001B0230001E451AE
:1032B800010DF3500001AF25D96EF4500001B02183
:1032C800DA6E000EDF6E0001E42B030E0001E465E8
:1032D800DFD70001E82B1F0E0001E865C8D7000EF4
:1032E8000001E86F0FD00001E851010D0101920EB5
:1032F800F324D96E0101010EF420DA6E000EDF6EA0
:103308000001E82B030E0001E865EDD7000E00016F
:10331800636F3D0E0001626FA9C164F0AAC165F038
:10332800000E0001676F010E0001666F4BEC62F042
:103338000101010E0001636F0101A10E0001626F1E
:1033480037C064F038C065F0000E0001676F020EE8
:103358000001666F4BEC62F00101010E0001636F22
:1033680001019F0E0001626F35C064F036C065F040
:10337800000E0001676F020E0001666F4BEC62F0F1
:103388000201020E0001636F0201D50E0001626F97
:10339800A7C164F0A8C165F0000E0001676F200E98
:1033A8000001666F4BEC62F00101010E0001636FD2
:1033B8000101920E0001626FB1C164F0B2C165F003
:1033C800000E0001676F040E0001666F4BEC62F09F
:1033D8000601060E0001636F0601000E0001626F10
:1033E800ABC164F0ACC165F0000E0001676F800EE0
:1033F8000001666F4BEC62F00201020E0001636F80
:103408000201280E0001626F33C064F034C065F019
:10341800000E0001676F8C0E0001666F4BEC62F0C6
:1034280065D03050D8B412D0000E0001A56F000E40
:103438000001A46F00012AC0A7F0000129C0A6F06E
:10344800010E0001A86FA2EC2DF050D000012AC097
:10345800A5F0000129C0A4F0000E0001A76F000E1E
:103468000001A66F000E0001A86FA2EC2DF03ED05F
:10347800020E3B6401D03AD026A238D020EE01F0EB
:103488002B50D9262C50DA22DF503C18D8A42ED045
:103498003E50D8B42BD0640E25EC65F0A1EC5FF05B
:1034A80025D02BC0D9FF2CC0DAFFDF50010AD8B4D1
:1034B80090EF11F0030AD8B4A4EF14F0010AD8B4BD
:1034C80016EF16F0070AD8B4ACD7030AD8B4D0D789
:1034D8000DD02850030B000AD8B45FEF01F0010AA1
:1034E800D8B4DFD7020AD8B407EF10F026A47CECD2
:1034F8006CF0F6EC68F060C0DCF061C0DDF062C032
:10350800DEF063C0DFF0000E0001E86F65D0000157
:10351800E851430D0E0EF326000EF4220501000EAD
:10352800F324D96E0501050EF420DA6EDFA052D01F
:103538000001E851430D0501000EF324D96E050181
:10354800050EF420DA6EDECFAFF0DECFB0F0DECFBE
:10355800B1F0DECFB2F00001AF1FB01FB11FB21F34
:10356800AF2B000EB023B123B2230001DC510001C0
:10357800AF250001B36F0001DD510001B02100014A
:10358800B46F0001DE510001B1210001B56F0001E7
:10359800DF510001B2210001B66F010E0001B35DD9
:1035A800120EB4597A0EB559000E0001B659D8A0BA
:1035B80011D00001E851430D0E0EF326000EF4223F
:1035C8000501000EF324D96E0501050EF420DA6E0C
:1035D800000EDF6E0001E82B010E0001E86597D7A9
:1035E800000E0001E86F6AD00001E851080D030ED3
:1035F800F326000EF4220201000EF324D96E020114
:10360800020EF420DA6EDF50D8B456D00001E8512B
:10361800080D040EF326000EF4220201000EF32416
:10362800D96E0201020EF420DA6EDECFAFF0DECFE3
:10363800B0F0DECFB1F0DECFB2F00001AF1FB01FA7
:10364800B11FB21FAF2B000EB023B123B22300016C
:10365800DC510001AF250001B36F0001DD5100010D
:10366800B0210001B46F0001DE510001B121000159
:10367800B56F0001DF510001B2210001B66F910E54
:103688000001B35DD00EB459030EB559000E000108
:10369800B659D8A011D00001E851080D030EF32641
:1036A800000EF4220201000EF324D96E0201020E6C
:1036B800F420DA6E000EDF6E0001E82B040E000124
:1036C800E86592D7010112C1AFF0010113C1B0F052
:1036D800010114C1B1F0010115C1B2F00001AF1F21
:1036E800B01FB11FB21FAF2B000EB023B123B223FE
:1036F8000001DC510001AF250001D76F0001DD5149
:103708000001B0210001D86F0001DE510001B12194
:103718000001D96F0001DF510001B2210001DA6F09
:1037280001012D31070B0009D8B471D0210E000119
:10373800D75DA10E0001D859070E0001D959000E16
:103748000001DA59D8A029D2010E0001AF6F01019A
:103758002D31070B0001B06F0001AF510001B05FC0
:103768000001B03701012D510001B019F10B000122
:10377800B01901012D6F0B0E01012F6F01012F519F
:10378800010D0101340EF324D96E0101010EF4205C
:10379800DA6E000EDF6E01012F2B01012F51010D92
:1037A8000101340EF324D96E0101010EF420DA6E02
:1037B800A30EDF6E01012F2B000E0001E86F1CD055
:1037C8000001E851010D0201D50EF324D96E020162
:1037D800020EF420DA6E01012F51010D0101340EA1
:1037E800F324E16E0101010EF420E26EDFCFE7FF62
:1037F80001012F2B0001E82B1F0E0001E865E0D71F
:10380800000E00019D6F020E00EC5FF0D4D00101A4
:103818002D39070B0009D8B485D0210E0001D75DDA
:10382800A10E0001D859070E0001D959000E000158
:10383800DA59D8A0B2D1010E0001AF6F01012D39BC
:10384800070B0001B06F0001AF510001B05F00012C
:10385800B03B01012D510001B0198F0B0001B019C7
:1038680001012D6F0B0E01012F6F01012F51010D69
:103878000101340EF324D96E0101010EF420DA6E31
:10388800000EDF6E01012F2B01012F51010D0101E7
:10389800340EF324D96E0101010EF420DA6EA40E61
:1038A800DF6E01012F2B01012F51010D0101340E93
:1038B800F324D96E0101010EF420DA6E0101A2C1D0
:1038C800DFFF01012F2B000E0001E86F1CD0000163
:1038D800E851010D0101920EF324D96E0101010E88
:1038E800F420DA6E01012F51010D0101340EF32489
:1038F800E16E0101010EF420E26EDFCFE7FF010166
:103908002F2B0001E82B030E0001E865E0D7010E1C
:10391800406E000E00019D6F020E00EC5FF0210E5C
:10392800406E49D00201D529D8A44ED03E04D8B45F
:1039380026A24AD0210E0001D75DA10E0001D85958
:10394800070E0001D959000E0001DA59D8A025D177
:103958000B0E01012F6F01012F51010D0101340ED2
:10396800F324D96E0101010EF420DA6E000EDF6E29
:1039780001012F2B01012F51010D0101340EF324F8
:10398800D96E0101010EF420DA6EA20EDF6E01017C
:103998002F2B3D500E0D020EF326000EF4220201CD
:1039A800280EF3240001A96F0201020EF420000181
:1039B800AA6F13EC67F0DCC012F1DDC013F1DEC0B2
:1039C80014F1DFC015F1E9D001012CA16FD0810EEF
:1039D8000001D75D840E0001D8591E0E0001D95987
:1039E800000E0001DA59D8A0D8D001012C913E5020
:1039F800020AD8B446D03D500E0D030EF326000E31
:103A0800F4220201280EF324D96E0201020EF420DA
:103A1800DA6EDF500001AF6F0101A251010D020102
:103A2800D50EF324D96E0201020EF420DA6EDF50AF
:103A38000001AF19D8B425D0000E396E0101A2518A
:103A4800010D0201D50EF324D96E0201020EF420F5
:103A5800DA6EDF503A6E82EC66F00001E86F0A0E0B
:103A68000001E85DD8B003D0E8C03DF00AD0BB0E35
:103A78000101326F9FC1B3F1A0C1B4F1C7EC60F08E
:103A88003D6E0201020E0001636F0201D50E0001B6
:103A9800626FA7C164F0A8C165F0000E0001676FEE
:103AA800200E0001666F4BEC62F077D001012CA369
:103AB80025D0810E0001D75D840E0001D8591E0E55
:103AC8000001D959000E0001DA59D8A066D00101C9
:103AD8002C930101010E0001636F0101920E000198
:103AE800626FB1C164F0B2C165F0000E0001676F8A
:103AF800040E0001666F4BEC62F04FD001012CA55B
:103B080025D0810E0001D75D840E0001D8591E0E04
:103B18000001D959000E0001DA59D8A03ED00101A0
:103B28002C950601060E0001636F0601000E0001C8
:103B3800626FABC164F0ACC165F0000E0001676F45
:103B4800800E0001666F4BEC62F027D001012CA7B4
:103B580024D0810E0001D75D840E0001D8591E0EB5
:103B68000001D959000E0001DA59D8A016D0010178
:103B78002C970201020E0001636F0201280E00015A
:103B8800626F33C064F034C065F0000E0001676FE7
:103B98008C0E0001666F4BEC62F001012DA177D00D
:103BA800030140C3AFF0030141C3B0F0030142C3B6
:103BB800B1F0030143C3B2F00001AF1FB01FB11F42
:103BC800B21FAF2B000EB023B123B2230001DC518A
:103BD8000001AF250001B36F0001DD510001B021E4
:103BE8000001B46F0001DE510001B1210001B56F81
:103BF8000001DF510001B2210001B66F03014B51F2
:103C08000001606F0001616B0001626B0001636B72
:103C1800F40E0001646F010E0001656F000E0001D3
:103C2800666F000E0001676F9FEC67F060C0B7F029
:103C380061C0B8F062C0B9F063C0BAF00001B35116
:103C48000001B75D0001B4510001B8590001B55138
:103C58000001B9590001B6510001BA59D8B017D0BE
:103C680001012D9123EE44F010EE7EF0070EDECF19
:103C7800E6FFE82EFCD70301030E0001866F03015F
:103C88004D0E0001856F4CC387F0E2EC46F0010150
:103C980082A345D0010187C1AFF0010188C1B0F00E
:103CA800010189C1B1F001018AC1B2F00001AF1F61
:103CB800B01FB11FB21FAF2B000EB023B123B22328
:103CC8000001DC510001AF250001B36F0001DD5197
:103CD8000001B0210001B46F0001DE510001B121E3
:103CE8000001B56F0001DF510001B2210001B66F7C
:103CF800410E0001B35D420EB4590F0EB559000EC6
:103D08000001B659D8A068D001018231E832E83202
:103D18001F0BB0EC6AF0000E0101826F5DD001014B
:103D280082A15AD0010187C1AFF0010188C1B0F06A
:103D3800010189C1B1F001018AC1B2F00001AF1FD0
:103D4800B01FB11FB21FAF2B000EB023B123B22397
:103D58000001DC510001AF250001B36F0001DD5106
:103D68000001B0210001B46F0001DE510001B12152
:103D78000001B56F0001DF510001B2210001B66FEB
:103D8800410E0001B35D420EB4590F0EB559000E35
:103D98000001B659D8A020D03CC0C0F083C16EF055
:103DA80084C16FF085C170F086C171F00A0E000100
:103DB800726F000E0001736F0001000E0001756F35
:103DC8000001E80E0001746F8EEC56F00001C0513E
:103DD800B0EC6AF001018291010167A312000101B0
:103DE80067A196D00B0E01012F6F01012F51010D14
:103DF8000101340EF324D96E0101010EF420DA6EAC
:103E0800000EDF6E01012F2B01012F51010D010161
:103E1800340EF324D96E0101010EF420DA6E110E6E
:103E2800DF6E01012F2B000E0001D46F1CD00001A2
:103E3800D451010D01016B0EF324D96E0101010E5D
:103E4800F420DA6E01012F51010D0101340EF32423
:103E5800E16E0101010EF420E26EDFCFE7FF010100
:103E68002F2B0001D42B070E0001D465E0D70101E8
:103E78002F51010D0101340EF324D96E0101010EF9
:103E8800F420DA6E010169C1DFFF01012F2B010166
:103E98002F51010D0101340EF324D96E0101010ED9
:103EA800F420DA6E01016AC1DFFF01012F2B000E39
:103EB8000001D46F0001D451D8A41DD00001D45101
:103EC800010D0101730EF324D96E0101010EF420D6
:103ED800DA6E01012F51010D0101340EF324E16E58
:103EE8000101010EF420E26EDFCFE7FF01012F2B65
:103EF8000001D42BDFD70101010E0001AA6F0101D7
:103F0800740E0001A96F13EC67F0010167931200AA
:103F180001017EC1AFF001017FC1B0F0010180C194
:103F2800B1F0010181C1B2F00001AF1FB01FB11F94
:103F3800B21FAF2B000EB023B123B2230001DC5116
:103F48000001AF250001D76F0001DD510001B0214C
:103F58000001D86F0001DE510001B1210001D96FC5
:103F68000001DF510001B2210001DA6F610E00018A
:103F7800D75DE30E0001D859160E0001D959000E7D
:103F88000001DA59D8A01200010167931200010E4E
:103F98000301EC6F000E01012E6FE0EC65F0898ED5
:103FA800898C8B8438EC60F001012E679FEF25F037
:103FB800FDEC6CF0D4EC6AF00201020E00016D6FAA
:103FC8000201B40E00016C6FFF0E00016F6F360E18
:103FD80000016E6F37EC28F00201020E00016D6FD0
:103FE8000201C40E00016C6FFF0E00016F6F470ED7
:103FF80000016E6F37EC28F0C6EC64F0000E13EC8D
:104008003FF0F6EC68F060C0DAF361C0DBF362C041
:10401800DCF363C0DDF3F6EC68F060C0DEF361C08A
:10402800DFF362C0E0F363C0E1F30301DAC3DCF15C
:104038000301DBC3DDF10301DCC3DEF10301DDC3F2
:10404800DFF10101DC1FDD1FDE1FDF1FDC2B000E8F
:10405800DD23DE23DF230301DE510101DC2501011D
:10406800E06F0301DF510101DD210101E16F03016F
:10407800E0510101DE210101E26F0301E15101017B
:10408800DF210101E36F810E0101E05D840EE1593A
:104098001E0EE259000E0101E359D8B00ED0DDEC36
:1040A8005CF00301F06F0301F051020AD8A4B3D702
:1040B8000101ED51EEEC4DF0AED7FFEC6CF0D4EC15
:1040C8006AF00201020E00016D6F0201B40E0001D8
:1040D8006C6FFE0E00016F6FCE0E00016E6F010156
:1040E8000001EDC170F00001716B37EC28F002019E
:1040F800020E00016D6F0201C40E00016C6FFF0E0D
:1041080000016F6F990E00016E6F37EC28F0C6EC56
:1041180064F0030E00016D6FE80E00016C6FBBECDC
:1041280062F0DDEC5CF00301F06F0301F005D8B438
:1041380059D00301F051020AD8A4F3D7000E0301A5
:10414800EB6F010E0301E36F46D0D4EC6AF0020175
:10415800020E00016D6F0201B40E00016C6FFE0EBD
:1041680000016F6FCE0E00016E6F03010001EBC3FB
:1041780070F00001716B37EC28F00201020E0001AB
:104188006D6F0201C40E00016C6FFF0E00016F6FAE
:10419800990E00016E6F37EC28F0C6EC64F0DDEC88
:1041A8005CF00301F06F0301F005D8A406D0EBC35F
:1041B800EDF1000E0301E36F11D00301F051020A83
:1041C800D8A4EDD70301EB290301EB6F0301EB51F1
:1041D8001B0AD8A403D00B0E0301EB6F0301E30500
:1041E800D8B4B3D70101ED51B0EC6AF00009D8A4F6
:1041F80010D0FD0E00018E6FE60E00018D6F000ECF
:1042080000018F6F010E0001906F8EEC68F002EFD5
:1042180001F0000E63EC6AF0FC0E00018E6FA90E2F
:1042280000018D6F000E00018F6F000E0001906F6E
:104238008EEC68F0030E00016D6FE80E00016C6FE4
:10424800BBEC62F09AEF25F0DDEC5CF00301F06F57
:104258000301F005D8A480D0FF0E00018E6F580E20
:1042680000018D6F000E00018F6F010E0001906F2D
:104278008EEC68F0000E13EC3FF0000E0001956F15
:10428800000E0001966F000E0001976F000E0001EE
:10429800986F000E0001996F000E82EC4FF0FE0E31
:1042A80000018E6F210E00018D6F000E00018F6FCF
:1042B800010E0001906F8EEC68F0D4EC6AF00201F8
:1042C800020E00016D6F0201B40E00016C6FFE0E4C
:1042D80000016F6F8E0E00016E6F01010001A0C119
:1042E80070F00001716B010100019FC172F00001C3
:1042F800736B01010001EDC174F00001756B37ECBF
:1043080028F00201020E00016D6F0201C40E0001C7
:104318006C6FFE0E00016F6FE00E00016E6F010101
:104328000001A2C170F00001716B01010001A1C17F
:1043380072F00001736B37EC28F0C6EC64F006D01D
:10434800DDEC6CF00009D8A4F9EC6CF0020134AF94
:10435800F7D7000E0301EC6F0301F051020AD8A44D
:10436800E5D3FD0E00018E6FA80E00018D6F000EC3
:1043780000018F6F010E0001906F8EEC68F0FC0E4B
:1043880000018E6FCA0E00018D6F000E00018F6F45
:10439800010E0001906F8EEC68F0000E13EC3FF0F8
:1043A800080E0101ED5DD8B023D0EDC1DCF1010E9E
:1043B8000101DD6FDE6B0101DC2B04D0D890010117
:1043C800DD37DE370101DC2FF9D70001DDC1E9F067
:1043D8000001DEC1EAF00001000E0001EABFFF0E95
:1043E8000001EB6F0001EC6F0A0EFAEC58F07CD07C
:1043F800100E0101ED5DD8B027D0EDC1DCF1F80E4B
:104408000101DC27000E0101DD6F010EDE6F0101E5
:10441800DC2B04D0D8900101DD37DE370101DC2F19
:10442800F9D70001DDC1E9F00001DEC1EAF00001C1
:10443800000E0001EABFFF0E0001EB6F0001EC6FF8
:104448000A0EFAEC58F050D0180E0101ED5DD8B004
:1044580026D0EDC1DCF1F00E0101DC27000E0101D0
:10446800DD6F000EDE6F010EDF6F000EE06F0101E1
:10447800DC2B06D0D8900101DD37DE37DF37E03797
:104488000101DC2FF7D7DDC1E9F0DEC1EAF0DFC1B9
:10449800EBF0E0C1ECF00A0EFAEC58F025D0EDC1D3
:1044A800DCF1E80E0101DC27000E0101DD6F000ED2
:1044B800DE6F000EDF6F010EE06F0101DC2B06D00E
:1044C800D8900101DD37DE37DF37E0370101DC2F17
:1044D800F7D7DDC1E9F0DEC1EAF0DFC1EBF0E0C1FA
:1044E800ECF00A0EFAEC58F00301F46F0301F451F2
:1044F800D8B40ED3000E0301F26F00D3000E0301EF
:10450800E66F0301F251D8B475D0000E0301E66FCF
:10451800000E0301F16F48D00301F2510F0D0A0E8E
:10452800F326000EF4220301800EF324D96E030152
:10453800030EF420DA6E0301F1510F0D0A0EF32673
:10454800000EF4220301800EF324E16E0301030E32
:10455800F420E26EE750DF6225D00301F2510F0D1F
:10456800090EF326000EF4220301800EF324D96EFF
:104578000301030EF420DA6E0301F1510F0D090E49
:10458800F326000EF4220301800EF324E16E0301EA
:10459800030EF420E26EE750DF6204D0010E03013F
:1045A800E66F08D00301F12B0301F2510301F15D1D
:1045B800D8A0B2D70301E605D8A41CD0FF0E01018C
:1045C800DC6FFF0EDD6F0301F4510101DE6FDF6B5D
:1045D8000101DC510101DE270101DD510101DF2369
:1045E8000301F2510101DE19DF11D8A485D20301BC
:1045F800F26982D2D4EC6AF00201020E00016D6FFA
:104608000201B40E00016C6FFE0E00016F6FA50E63
:1046180000016E6F0301F2510F0D0A0EF326000E12
:10462800F4220301800EF324D96E0301030EF42053
:10463800DA6EDF500101DC6F0101DC510001706F9F
:104648000001716B0301F2510F0D090EF326000EE4
:10465800F4220301800EF324D96E0301030EF42023
:10466800DA6EDF500101DD6F0101DD510001726F6B
:104678000001736B37EC28F00201020E00016D6F28
:104688000201C40E00016C6FFF0E00016F6F890EEE
:1046980000016E6F37EC28F0C6EC64F0DDEC5CF0DE
:1046A8000301F06F0301F005D8A4F2D1000E030155
:1046B800E96F0B0E01012F6F000E0301F16F46D059
:1046C8000301F2510F0D0A0EF326000EF422030126
:1046D800800EF324D96E0301030EF420DA6E030171
:1046E800F1510F0D0A0EF326000EF4220301800E7D
:1046F800F324E16E0301030EF420E26EE750DF625B
:1047080023D00301F2510F0D0A0EF326000EF422F6
:104718000301800EF324D96E0301030EF420DA6E30
:104728000301F1510F0D0A0EF326000EF4220301C6
:10473800800EF324E16E0301030EF420E26EE750CD
:10474800DF6202D00301E92B0301F12B0301F451CD
:104758000301F15DD8A0B4D7010E0301E96534D196
:10476800000E0301E46F000E0301E76F0B0E010159
:104778002F6F01012F51010D0101340EF324D96E61
:104788000101010EF420DA6E040EDF6E01012F2BF9
:104798000301F2510F0D0A0EF326000EF422030155
:1047A800800EF324D96E0301030EF420DA6E0101A2
:1047B8002F51010D0101340EF324E16E0101010EA8
:1047C800F420E26EDFCFE7FF01012F2B0301F25146
:1047D8000F0D090EF326000EF4220301800EF324B8
:1047E800D96E0301030EF420DA6E01012F51010D79
:1047F8000101340EF324E16E0101010EF420E26E92
:10480800DFCFE7FF01012F2B000ED5EC6CF0000E77
:104818000301F16FD3D00301F2510F0D0A0EF326F5
:10482800000EF4220301800EF324D96E0301030E57
:10483800F420DA6E0301F1510F0D0A0EF326000E73
:10484800F4220301800EF324E16E0301030EF42029
:10485800E26EE750DF62B0D00301F2510F0D090E8E
:10486800F326000EF4220301800EF324D96E03010F
:10487800030EF420DA6E0301F1510F0D090EF32631
:10488800000EF4220301800EF324E16E0301030EEF
:10489800F420E26EE750DF628FD00301E72BD4ECFF
:1048A8006AF00201020E00016D6F0201B40E0001F0
:1048B8006C6FFE0E00016F6FBA0E00016E6F030180
:1048C800F1510F0D020EF326000EF4220301800EA3
:1048D800F324D96E0301030EF420DA6EDF500101D0
:1048E800DC6F0101DC510001706F0001716B030185
:1048F800F1510F0D010EF326000EF4220301800E74
:10490800F324D96E0301030EF420DA6EDF5001019F
:10491800DD6F0101DD510001726F0001736B37EC2F
:1049280028F00201020E00016D6F0201C40E0001A1
:104938006C6FFF0E00016F6F890E00016E6F37EC10
:1049480028F0C6EC64F0F1C3E4F3DDEC5CF003019D
:10495800F06F0301F005D8A407D0E4C3F2F3030114
:10496800F4050301F16F28D00301F051020AD8A41D
:10497800ECD7FF0E0101DC6FFF0EDD6F0301F45170
:104988000101DE6FDF6B0101DC510101DE2701014E
:10499800DD510101DF230301F1510101DE19DF11AE
:1049A800D8B405D00301E9510301E76305D0030139
:1049B800F169000E0301E76F0301F12B0301F451C4
:1049C8000301F15DD8A027D7000E0001F96F03019C
:1049D800F2515EEC44F00301E26F0301E229D8A42E
:1049E80010D0FF0E00018E6FB80E00018D6F000E03
:1049F80000018F6F010E0001906F8EEC68F063EF7D
:104A080020F0FD0E00018E6FC70E00018D6F000EA5
:104A180000018F6F010E0001906F8EEC68F0000EA0
:104A28000301EC6F0B0E01012F6F01012F51010DD6
:104A38000101340EF324D96E0101010EF420DA6E5F
:104A4800050EDF6E01012F2B01012F51010D010110
:104A5800340EF324D96E0101010EF420DA6E01013F
:104A6800A0C1DFFF01012F2B01012F51010D010111
:104A7800340EF324D96E0101010EF420DA6E01011F
:104A88009FC1DFFF01012F2B000ED5EC6CF030D059
:104A98000301F051020AD8A401D6FF0E0101DC6F10
:104AA800FF0EDD6F0301F2510101DE6FDF6B0101C3
:104AB800DE1FDF1FDE4BDF2B0301F4510101E06F26
:104AC800E16B0101DE510101E0270101DF51010124
:104AD800E1230101DC510101E0270101DD51010160
:104AE800E1230101E151E011D8A402D00301F269E8
:104AF8000301EC6701D008D00301F22B0301F45144
:104B08000301F25DD8A0FAD4000E0301EC6F0ED0B9
:104B1800FE0E00018E6F040E00018D6F000E000165
:104B28008F6F000E0001906F8EEC68F00301EC05AA
:104B3800D8B428EF21F0000E0301EE6F000E030138
:104B4800EF6F000E0301EC6F899E899C8B94FC0E1D
:104B580000018E6F450E00018D6F000E00018F6FF2
:104B6800000E0001906F8EEC68F078D2DDEC5CF0FE
:104B78000301ED6FDDEC6CF00009D8B480D005C1FD
:104B8800D9FF06C1DAFFDF500301EE6F0301EE51D2
:104B9800040AD8A41ED00101A051010121EE05F09C
:104BA80010EE01F0DE50E126DD50E222E7620ED081
:104BB800010120EE02F001010551D926010106513B
:104BC800DA22DF5001019F19D8B403D0000E030187
:104BD800EE6F0301EE51020AD8A44FD0000E030174
:104BE800F36F47D00301F3510E0D0C0EF326000EA0
:104BF800F4220201280EF324D96E0201020EF420D9
:104C0800DA6EDFAE34D00301F3510E0D030EF32636
:104C1800000EF4220201280EF324D96E0201020EBE
:104C2800F420DA6E010110EE01F001010351E126D2
:104C380001010451E222E750DF6219D00301F35168
:104C48000E0D020EF326000EF4220201280EF324A4
:104C5800D96E0201020EF420DA6E03C1E1FF04C12D
:104C6800E2FFE750DF6203D0F3C327F106D0030168
:104C7800F32B090E0301F365B5D7F9EC6CF00301CA
:104C8800EE51020AD8A41ED00B0E01012F6F0101AC
:104C98002F51010D0101340EF324D96E0101010ECB
:104CA800F420DA6E020EDF6E01012F2B000E0001D8
:104CB800E96F01012751C6EC57F051EC3CF0010EA9
:104CC8000301EC6F0301ED05D8A4FFD00301EF67E2
:104CD800FCD0000E0301EA6F000E0101276F000EE1
:104CE8000301F36F26D00301F3510E0D0C0EF326CA
:104CF800000EF4220201280EF324D96E0201020EDE
:104D0800F420DA6EDFAE13D00301F3510E0D0C0E52
:104D1800F326000EF4220201280EF324D96E0201B4
:104D2800020EF420DA6EDFAA02D00301EA2B030197
:104D3800F32B090E0301F365D6D7010E0301EA65CB
:104D4800A6D0000E0301E56F000E0301E86FFD0E0B
:104D580000018E6F2B0E00018D6F000E00018F6F0A
:104D6800000E0001906F8EEC68F0000E0301F36FE7
:104D78008AD00301F3510E0D0C0EF326000EF42217
:104D88000201280EF324D96E0201020EF420DA6E15
:104D9800DFAE73D0D4EC6AF00201020E00016D6F31
:104DA8000201B40E00016C6FFE0E00016F6FBA0EA7
:104DB80000016E6F0301F3510E0D030EF326000E72
:104DC800F4220201280EF324D96E0201020EF42007
:104DD800DA6EDF500101DC6F0101DC510001706FF8
:104DE8000001716B0301F3510E0D020EF326000E44
:104DF800F4220201280EF324D96E0201020EF420D7
:104E0800DA6EDF500101DD6F0101DD510001726FC3
:104E18000001736B37EC28F00201020E00016D6F80
:104E28000201C40E00016C6FFF0E00016F6F890E46
:104E380000016E6F37EC28F0C6EC64F00301E82B34
:104E4800DDEC5CF00301ED6F0301ED05D8A406D09D
:104E5800F3C327F1010E0301E56F0FD00301ED51F4
:104E6800020AD8A4EDD70301EA510301E86305D08B
:104E78000301F369000E0301E86F0301E505D8B4E7
:104E880006D00301F32B090E0301F36572D70B0E4D
:104E980001012F6F01012F51010D0101340EF3247F
:104EA800D96E0101010EF420DA6E020EDF6E0101E7
:104EB8002F2B000E0001E96F01012751C6EC57F0B6
:104EC80051EC3CF0010E0301EC6F0301ED51020AB5
:104ED800D8A442D00301EF2B0301EF51030AD8A451
:104EE80003D0000E0301EF6F0301EF670FD0FC0E34
:104EF80000018E6F450E00018D6F000E00018F6F4F
:104F0800000E0001906F8EEC68F026D00301EF05CB
:104F1800D8A40FD0FC0E00018E6F230E00018D6FF8
:104F2800000E00018F6F000E0001906F8EEC68F08C
:104F380013D00301EF51020AD8A40ED0FC0E0001D1
:104F48008E6F010E00018D6F000E00018F6F000E35
:104F58000001906F8EEC68F00301EE51030AD8B49B
:104F680008D00301ED05D8A41ED00301EF05D8A48D
:104F78001AD00B0E01012F6F01012F51010D0101F4
:104F8800340EF324D96E0101010EF420DA6E030EFB
:104F9800DF6E01012F2B000ED5EC6CF053EC39F0CD
:104FA800010E0301EC6F0301EE51040AD8B409D0D5
:104FB8000301ED05D8A44AD00301EF51020AD8A491
:104FC80045D0D4EC6AF00201020E00016D6F0201B7
:104FD800B40E00016C6FFE0E00016F6F8E0E0001A3
:104FE8006E6F01010001A0C170F00001716B010139
:104FF80000019FC172F00001736B01010001EDC156
:1050080074F00001756B37EC28F00201020E000104
:105018006D6F0201C40E00016C6FFE0E00016F6F10
:10502800E00E00016E6F01010001A2C170F00001E5
:10503800716B01010001A1C172F00001736B37ECC3
:1050480028F0C6EC64F0000E0301EE6F0301EE5188
:10505800050AD8A403D0010E0301EC6F0301EC513B
:10506800D8A469D583D50001000E0001826F000124
:10507800700E0001816F8AEF2DF000018A51250A18
:10508800D8B40CD06CC0D9FF6DC0DAFF00018AC05B
:10509800DFFF00016C4B6D2B8AEF2DF0000E000135
:1050A800856F000E0001846F000E00018C6F000EEA
:1050B80000018B6F0ED000018B8708D000018B8117
:1050C80005D000018C8702D000018B8500016E4B52
:1050D8006F2B00016EC0F6FF00016FC0F7FF0800DC
:1050E800F550200AD8B4EAD7030AD8B4EAD70E0A8A
:1050F800D8B4E1D71D0AD8B4E7D700018BA702D0EE
:1051080000018B9500016EC0F6FF00016FC0F7FF2C
:105118000800F5503DEC6CF0D8A048D0000E000116
:10512800856F000E0001846F84C060F085C061F057
:10513800000E0001636F0A0E0001626F75EC6BF0E0
:10514800000160C084F0000161C085F0D00E00014C
:10515800766FFF0E776F00016EC0F6FF00016FC01B
:10516800F7FF0800F5500001786F796B0001765160
:105178000001782700017751000179230001785157
:1051880000018427000179510001852300016E4B3D
:105198006F2B00016EC0F6FF00016FC0F7FF08001B
:1051A800F5503DEC6CF0D8A01FD0BED700016EC002
:1051B800F6FF00016FC0F7FF0800F5502A0AD8A4CF
:1051C80013D081C0D9FF82C0DAFF0001DECF84F09E
:1051D8000001DDCF85F0020E00018127000E0001DD
:1051E800822300016E4B6F2B00016EC0F6FF000199
:1051F8006FC0F7FF0800F5502E0AD8A447D0000169
:105208008C8D00016E4B6F2B00016EC0F6FF000104
:105218006FC0F7FF0800F5502A0AD8A411D081C042
:10522800D9FF82C0DAFFDF500001836F020E000150
:105238008127000E0001822300016E4B6F2BD4D012
:10524800000E0001836F15D000016EC0F6FF00014B
:105258006FC0F7FF0800F5CF76F0000183510A0D03
:10526800F35000017625D00F0001836F00016E4BCB
:105278006F2B00016EC0F6FF00016FC0F7FF08003A
:10528800F5503DEC6CF0D8A0AFD0DED7000E000191
:10529800836FAAD000018B8DCFD000018B8B0001CA
:1052A8008B8FCAD000018351D8B41AD0000183C0B3
:1052B80076F00001776B76BF77070001885100010F
:1052C800765D0001895100017759D8B009D00001F5
:1052D80083510001886F0001896B000188BF89072D
:1052E800000184510001885D000185510001895940
:1052F800D8B00AD0000120EE88F0DE500001845FAB
:10530800DD500001855B06D0000E0001856F000EA0
:105318000001846F00018BA70AD024D06CC0D9FF8C
:105328006DC0DAFF200EDF6E00016C4B6D2B0001A3
:105338008407D8A0850700018429D8B48529D8B462
:1053480011D0ECD786C0D9FF87C0DAFF6CC0E1FF67
:105358006DC0E2FFDFCFE7FF0001864B872B00011E
:105368006C4B6D2B00018807D8A08907000188299C
:10537800D8B48929D8A4E6D700018BB70AD0C6D3F8
:105388006CC0D9FF6DC0DAFF200EDF6E00016C4BD8
:105398006D2B00018407D8A0850700018429D8B4A3
:1053A8008529D8B4B3D3ECD781C0D9FF82C0DAFF3E
:1053B800DF5000018A6F020E00018127000E0001F4
:1053C80082230001000E0001876F00018A0E000190
:1053D800866F000E0001896F010E0001886F62D789
:1053E800C00E00018B1328D000016EC0F6FF00012B
:1053F8006FC0F7FF00016E4B6F2B08000001F5CF5F
:105408008AF000018A51000AD8B491D3580AD8B456
:1054180044D73B0AD8B4C8D7070AD8B40DD00D0A68
:10542800D8B40AD0060AD8B435D71A0AD8B4D8D707
:105438000D0AD8B434D7C5D7C00E00018B150001AA
:10544800766F000E00018C150001776F000177510F
:105458007611D8A425D081C0D9FF82C0DAFF000117
:10546800DECF86F00001DDCF87F0020E0001812734
:10547800000E0001822300018751800AF36E800E1E
:10548800F35C000ED8B4865DD8B01AD0030E0001C4
:105498008B130001866D0001871FD8B0872B10D0B1
:1054A80081C0D9FF82C0DAFF0001DECF86F000019B
:1054B800DDCF87F0020E00018127000E0001822354
:1054C8000001836774D0000187518611D8A46FD07A
:1054D8000001832B6CD0010E00018A6F00018A51F4
:1054E800050AD8B473D000018A51020DEF0EF324D7
:1054F800F66EFB0EF420F76E0900F5CF76F0090082
:10550800F5CF77F0000176510001865D00017751F3
:1055180000018759D8A05AD000018A2BDFD7010E85
:1055280000018A6F00018A51040AD8B44FD00001E3
:105538008A51020DF90EF324F66EFB0EF420F76E75
:105548000900F5CF76F00900F5CF77F00001765124
:105558000001865D0001775100018759D8A036D037
:1055680000018A2BDFD7010E00018A6F00018A51E2
:10557800060AD8B42BD000018A51020DE30EF32499
:10558800F66EFB0EF420F76E0900F5CF76F00900F1
:10559800F5CF77F0000176510001865D0001775163
:1055A80000018759D8A012D000018A2BDFD700014B
:1055B8008B51C00B000AD8B48ED7400AD8B4D3D7C1
:1055C800C00AD8B4ACD7400AD8B485D700018A51EC
:1055D800800A0001766F00018351800A0001765D20
:1055E800D8B003D083C08AF00DD000018351800A5F
:1055F8000001766F00018A51800A0001765DD8A00B
:105608008AC083F0000185518411D8B413D0030EE9
:1056180000018B150001766F000E00018C1500014A
:10562800776F000177517611D8B404D00001840750
:10563800D8A0850700018CAD22D0800E000183BF61
:105648007F0E0001766F000184510001835D000127
:105658008551800A00017659D8B00BD000018351DA
:105668000001845F000E000183BFFF0E0001855B0F
:1056780006D0000E0001856F000E0001846FC40E75
:105688000001766F080E776F00018BC078F000017B
:105698008CC079F00001765100017817000177512C
:1056A8000001791700017951080A400ED8B4781919
:1056B800D8A40AD0000185518411D8B437D000018C
:1056C8008407D8A0850732D0C00E0001766F080E77
:1056D800776F00018BC078F000018CC079F0000171
:1056E8007651000178170001775100017917000100
:1056F8007951080A800ED8B47819D8A417D00001B7
:105708008551800A800F030ED8B4845DD8A008D0D4
:105718000001FE0E00018427FF0E0001852306D03C
:10572800000E0001856F000E0001846F800E0001DD
:105738008ABF7F0E0001766F0001845100018A5DE7
:1057480000018551800A00017659D8B00BD00001BC
:105758008A510001845F000E00018ABFFF0E00011C
:10576800855B06D0000E0001856F000E0001846F76
:1057780000018BA56FD0030E00018B150001766F19
:10578800000E00018C150001776F0001775176112A
:10579800D8B406D06CC0D9FF6DC0DAFF2D0E08D082
:1057A80000018BA107D06CC0D9FF6DC0DAFF200EB5
:1057B800DF6E39D0C00E0001766F080E776F0001DA
:1057C8008BC078F000018CC079F00001765100019F
:1057D8007817000177510001791700017951080AFB
:1057E800800ED8B47819D8A421D06CC0D9FF6DC068
:1057F800DAFF300EDF6E00016C4B6D2B00018BBBA6
:1058080005D0000E00017C6F780E04D0000E000158
:105818007C6F580E00017B6F6CC0D9FF6DC0DAFF3A
:1058280000017BC0DFFF00016C4B6D2B0001000104
:1058380085518411D8B446D16CC0D9FF6DC0DAFF48
:10584800300EDF6E00016C4B6D2B00018407D8A071
:105858008507EDD7000185518411D8B415D0000112
:105868008BB712D06CC0D9FF6DC0DAFF200EDF6E87
:1058780000016C4B6D2B00018407D8A0850700013F
:1058880085518411D8A4EED7030E00018B150001B1
:10589800766F000E00018C150001776F00017751BB
:1058A8007611D8B406D06CC0D9FF6DC0DAFF2D0EC2
:1058B80008D000018BA109D06CC0D9FF6DC0DAFFF8
:1058C800200EDF6E00016C4B6D2BC00E0001766F51
:1058D800080E776F00018BC078F000018CC079F05A
:1058E80000017651000178170001775100017917FE
:1058F80000017951080A400ED8B47819D8A407D005
:105908006CC0D9FF6DC0DAFF300EDF6ED8D0C00E84
:105918000001766F080E776F00018BC078F00001E8
:105928008CC079F000017651000178170001775199
:105938000001791700017951080A800ED8B4781946
:10594800D8A4C0D06CC0D9FF6DC0DAFF300EDF6EAE
:1059580000016C4B6D2B00018BBB05D0000E0001C4
:105968007E6F780E04D0000E00017E6F580E000185
:105978007D6F6CC0D9FF6DC0DAFF00017DC0DFFF0D
:105988009ED000018351020DEF0EF324F66EFB0E3C
:10599800F420F76E09000001F5CF62F00A0000015B
:1059A800F5CF63F086C060F087C061F0E2EC67F085
:1059B800000160C067F0000161C068F0000E0001DE
:1059C8006A6F0A0E0001696F5DEC69F000016751AA
:1059D8005CD086C060F087C061F000018351020D81
:1059E800F90EF324F66EFB0EF420F76E09000001A1
:1059F800F5CF62F00A000001F5CF63F0E2EC67F042
:105A0800000160510F0B00017A6F00018BBB05D0BC
:105A1800FF0E0001806F030E04D0FE0E0001806FA0
:105A2800F20E00017F6F00017A51010D00017FC065
:105A380076F0000180C077F0F35000017627F4502B
:105A48000001772376C0F6FF77C0F7FF0800000152
:105A5800F5CF8AF02DD086C060F087C061F00001D4
:105A68008351020DE30EF324F66EFB0EF420F76E5D
:105A780009000001F5CF62F00A000001F5CF63F0DC
:105A8800E2EC67F000016051070B300F00018A6FEC
:105A98000FD000018B51C00B000AD8B472D7400A4E
:105AA800D8B4D9D7C00AD8B494D7400AD8B469D7DB
:105AB8006CC0D9FF6DC0DAFF00018AC0DFFF0001AA
:105AC8006C4B6D2B0001830700018329D8A4E1D713
:105AD80000018BA71BD000018551800A800F010EA1
