:0400000002EF01F01A
:10000800FACF0EF0FBCF0FF0E9CF10F0EACF11F0E6
:10001800E1CF12F0E2CF13F0D9CF14F0DACF15F018
:10002800F3CF16F0F4CF17F0F6CF18F0F7CF19F09A
:10003800F8CF1AF0F5CF1BF0F2B8F2A2B7D0F292CF
:10004800620ED8EC52F01D6E1DA012D0269026BC70
:10005800269C000E01014E6F000E01014D6F26A275
:1000680007D0480ED8EC52F01C6E1CB0268426929D
:100078001DA695D01F68000E206E11D02050500D7F
:100088000301000EF324D96E0301030EF420DA6E87
:10009800DF50D8A403D020C01FF004D0202A010EBE
:1000A8002064ECD7020E1F5CD8B074D0040E036E27
:1000B800730EEDEC52F01F50500D0301000EF324A7
:1000C800D96E0301030EF420DA6E030E046E000EDF
:1000D800036EF5EC50F0020FDF6E1F50500D030158
:1000E800000EF324D96E0301030EF420DA6EDF50FC
:1000F800096E4F0E095CD8B042D0268A010E206ED8
:100108001AD01F50500D000E096E030E0A6EF350E0
:100118000926F4500A2220500924D96E000E0A201C
:10012800DA6E000E2024036E046A030E0422F5EC36
:1001380050F0DF6E202A2050096E0A6A1F50500DB9
:100148000301000EF324D96E0301030EF420DA6EC6
:10015800DF500B6E0C6A020E0B26000E0C220C50A0
:10016800800A0D6E09500B5C0A50800A0D58D8B0F1
:10017800C8D7010E036E1B0EEDEC52F005D0010E30
:10018800036E1B0EEDEC52F0000E036E730EEDECD9
:1001980052F005D0010E036E1B0EEDEC52F01DA8B7
:1001A80005D0800E036E590EEDEC52F09EB09DA066
:1001B80006D09E902A2A2A6602D00101592B91EC7A
:1001C80053F01BC0F5FF1AC0F8FF19C0F7FF18C09D
:1001D800F6FF17C0F4FF16C0F3FF15C0DAFF14C00E
:1001E800D9FF13C0E2FF12C0E1FF11C0EAFF10C03F
:1001F800E9FF0FC0FBFF0EC0FAFF110032EF4EF00F
:10020800B6EC21F00009D8B421EF0EF021B41200A9
:10021800000E0101206F2BA404D00001B16BB12B9B
:1002280002D00001B16B010120510001B119FC0B92
:10023800B1190101206F2BA603D00101208702D03C
:10024800010120972B50030B0001B16F0001B1058C
:10025800D8A402D0010E01D0000E0001B26F000137
:10026800B23BB247010120510001B219DF0BB219AC
:100278000101206F2BAE03D00101208D02D00101B6
:10028800209D2BAE0DD033B003D00101209F02D0AA
:100298000101208F01012DC024F101012CC023F19F
:1002A80034C021F135C022F132C029F131C028F122
:1002B800219411EF0EF00A0E305CD8A01EEF0EF05C
:1002C80020EE02F02E50D9262F50DA22DF500001FE
:1002D800CC6F20EE03F02E50D9262F50DA22DF50B3
:1002E8000001CD6F20EE04F02E50D9262F50DA22CF
:1002F800DF500001D06F20EE05F02E50D9262F5088
:10030800DA22DF500001D16F20EE06F02E50D926F8
:100318002F50DA22DF500001D26F20EE07F02E5066
:10032800D9262F50DA22DF500001D36F20EE08F0D3
:100338002E50D9262F50DA22DF500001D66F20EE3A
:1003480009F02E50D9262F50DA22DF500001D76F3E
:10035800000E0101206F2BA603D00101208702D0D7
:100368000101209701012051030B0009D8A406D0F0
:100378000001D029D8B4D129D8A496D10101D351EC
:100388000001D71904E10101D2510001D619D8A4FE
:100398000CD00101D1510001D31904E10101D05160
:1003A8000001D219D8B41EEF0EF02EC0D9FF2FC00D
:1003B800DAFF010EDF64A2D02EC0D9FF2FC0DAFF0A
:1003C800DF06000E0101566F000E0001D96F1AD02A
:1003D8000001D951010DF3502E24D96EF4502F206D
:1003E800DA6E01015651010D01015A0EF324E16E36
:1003F8000101010EF420E26EDFCFE7FF0101562B69
:100408000001D92B30500001D95DD8A0E1D72BC00D
:1004180036F0D0C13BF0D1C13CF033C03AF0140EF5
:100428002CEC4CF020EE36F010EE7EF0070EDECF0E
:10043800E6FFE82EFCD70101010E0001866F0101DD
:100448005A0E0001856F56C187F084EC30F0000E1B
:100458000001D96F35D00001D9510E0D0C0EF326CD
:10046800000EF4220201000EF324D96E0201020EDE
:10047800F420DA6EDFAE22D00001D9510E0D0C0E39
:10048800F326000EF4220201000EF324D96E0201B5
:10049800020EF420DA6EDFB011D00001D9510E0D32
:1004A8000C0EF326000EF4220201000EF324D96E7E
:1004B8000201020EF420DA6EDFBA06D00001D92B51
:1004C800090E0001D965C7D70A0E0001D95DD8B059
:1004D80015D0CCC069F0CDC06AF0000E00016C6F79
:1004E800000E00016B6F000E00016D6F000E2BB641
:1004F800010E00016E6F010E68EC3AF0000E00016B
:10050800D96F44D00001D951080D030EF326000E0F
:10051800F4220101000EF324D96E0101010EF4202A
:10052800DA6EDF50D8B430D00001D951080D01017E
:10053800000EF324D96E0101010EF420DA6E0001D9
:10054800DE520001D751DD180001D6C0E8FFD8B44B
:10055800DF18D8A419D00001D951080D020EF326CE
:10056800000EF4220101000EF324D96E0101010EE0
:10057800F420DA6E10EE0AF02E50E1262F50E22217
:10058800E750DF6201D006D00001D92B030E00012D
:10059800D965B8D7040E0001D95DD8A01EEF0EF0BA
:1005A800000E0001D96F14D00001D951080D030EB7
:1005B800F326000EF4220101000EF324D96E010186
:1005C800010EF420DA6EDF50D8B406D00001D92B22
:1005D800030E0001D965E8D7040E0001D95DD8B033
:1005E8005CD00001D951080D0101000EF324D96E29
:1005F8000101010EF420DA6E0001D6C0DEFF000111
:10060800D7C0DDFF20EE0AF02E50D9262F50DA226F
:100618000001D951080D020EF326000EF422010143
:10062800000EF324E16E0101010EF420E26EDFCF2B
:10063800E7FF0001D951080D030EF326000EF4223E
:100648000101000EF324D96E0101010EF420DA6EC7
:10065800030EDF6EDCEC4FF060C0B1F061C0B2F0A9
:1006680062C0B3F063C0B4F00001D951080D040EA4
:10067800F326000EF4220101000EF324D96E0101C5
:10068800010EF420DA6EB1C0DEFFB2C0DEFFB3C0E7
:10069800DEFFB4C0DDFFD906D90601012051FC0BED
:1006A80001090101206F87D00101D1510001CD1945
:1006B80004E10101D0510001CC19D8A4B9EF07F029
:1006C8000101D3510001D11904E10101D251000106
:1006D800D019D8A4B9EF07F020EE01F02E50D92692
:1006E8002F50DA22DF500001B16F0001B1A563D0AD
:1006F80040C05AF1020E01015B6FD2C05CF1D3C059
:100708005DF1D6C05EF1D7C05FF1D0C160F1D1C153
:1007180061F1D2C162F1D3C163F120EE0AF02E502B
:10072800D9262F50DA22DF500101646F000E010133
:10073800656F300E0101666F0D0E0101566F0001E5
:10074800D7510101D319D8B40ED0D2C0A5F0D3C067
:10075800A6F0D6C0A7F0D7C0A8F0000E0001A96F78
:100768003DEC2BF026D0000E366E368A010E396E1F
:10077800010E3A6E0001000E386E0001D60E376E7B
:10078800D2C03BF0D3C03CF020EE36F010EE7EF045
:10079800070EDECFE6FFE82EFCD70101010E0001AF
:1007A800866F01015A0E0001856F56C187F084ECEF
:1007B80030F00101208520EE0BF02E50D9262F5065
:1007C800DA22DF50D8A489D320EE0CF02E50D92697
:1007D8002F50DA22DF50300AD8A44BD362D301015C
:1007E800AEB373D0DCEC4FF060C0C5F161C0C6F1A8
:1007F80062C0C7F163C0C8F120EE08F02E50D926B8
:100808002F50DA22DF500101B06F20EE09F02E5090
:10081800D9262F50DA22DF500101B16F000E0001F6
:10082800D86F21D00001D8510001B16FB26B0D0E05
:100838000001B127000EB2230001B1512E24D96E58
:100848000001B2512F20DA6E0001D851010D0101CB
:10085800B20EF324E16E0101010EF420E26EDFCF47
:10086800E7FF0001D82B070E0001D865DBD701018F
:10087800AE830101AE91000E0001D86F0001D8517E
:10088800D8A41EEF0EF00001D8510001B16FB26B71
:10089800150E0001B127000EB2230001B1512E241C
:1008A800D96E0001B2512F20DA6E0001D851010D26
:1008B8000101BA0EF324E16E0101010EF420E26E8B
:1008C800DFCFE7FF0001D82BD9D70101B05120EEC7
:1008D8002EF010EE08F0DE50E126DD50E222E7624D
:1008E8000ED00101B15120EE2EF010EE09F0DE50CD
:1008F800E126DD50E222E76202D01EEF0EF0010190
:10090800B151B011D8A4ABD0000E0001D86F39D0C6
:100918000001D8510001B16FB26B0D0E0001B12773
:10092800000EB2230001B1512E24D96E0001B2513C
:100938002F20DA6E0001D851010D0101BD0EF324FC
:10094800E16E0101010EF420E26EDFCFE7FF000146
:10095800D851010D0101BD0EF324D96E0101010E1C
:10096800F420DA6E0001D851010D01013A0EF3248A
:10097800E16E0101010EF420E26EDFCFE7FF000116
:10098800D82B070E0001D865C3D720EE08F02E50EB
:10099800D9262F50DA22DF500101BB6F20EE09F073
:1009A8002E50D9262F50DA22DF500101BC6FBBC16F
:1009B800FDF0BCC1FEF0D0C1D4F1D1C1D5F1E6EC57
:1009C8004DF00101AF6F0101AF29D8A413D18D0EED
:1009D800296E0001FDBF299089EC48F00101AF6F35
:1009E8000101AF29D8B406D1000E0001D86F00016B
:1009F800D851D8A4FFD00001D8510001B16FB26B13
:100A0800150E0001B127000EB2230001B1512E24AA
:100A1800D96E0001B2512F20DA6E0001D851010DB4
:100A28000D0EF326000EF422000E0001B36F020E25
:100A3800B46FF3500001B327F4500001B42301014F
:100A4800AF510E0DF3500001B325E16EF4500001D3
:100A5800B421E26EDFCFE7FF0001D82BC8D70B0E19
:100A68000101566F01015651010D01015A0EF3247F
:100A7800D96E0101010EF420DA6E000EDF6E01015D
:100A8800562B01015651010D01015A0EF324D96E5E
:100A98000101010EF420DA6E110EDF6E0101562BF2
:100AA800000E0001D86F3BD00001D8510001B16F92
:100AB800B26B0D0E0001B127000EB2230001B15137
:100AC8002E24D96E0001B2512F20DA6E0001D851C0
:100AD800010D0101BD0EF324E16E0101010EF420A8
:100AE800E26EDFCFE7FF0001D851010D0101BD0E15
:100AF800F324D96E0101010EF420DA6E010156517A
:100B0800010D01015A0EF324E16E0101010EF420DA
:100B1800E26EDFCFE7FF0101562B0001D82B070E4D
:100B28000001D865C1D720EE08F02E50D9262F50E5
:100B3800DA22DF500101BB6F20EE09F02E50D926D2
:100B48002F50DA22DF500101BC6F01015651010D0F
:100B580001015A0EF324D96E0101010EF420DA6E58
:100B68000101BBC1DFFF0101562B01015651010DE7
:100B780001015A0EF324D96E0101010EF420DA6E38
:100B88000101BCC1DFFF0101562B000E0001D86F27
:100B98000001D851D8A424D00001D8510001B16F68
:100BA800B26B150E0001B127000EB2230001B1513E
:100BB8002E24D96E0001B2512F20DA6E0101565150
:100BC800010D01015A0EF324E16E0101010EF4201A
:100BD800E26EDFCFE7FF0101562B0001D82BD8D7F3
:100BE8000101010E0001B06F0101B00E0001AF6FED
:100BF80098EC4DF00101AE830101AE811EEF0EF0BD
:100C0800000E0001D46F21D00001D4510001B16F52
:100C1800B26B0D0E0001B127000EB2230001B151D5
:100C28002E24D96E0001B2512F20DA6E0001D45162
:100C3800010D01013A0EF324E16E0101010EF420C9
:100C4800E26EDFCFE7FF0001D42B070E0001D46569
:100C5800DBD78D0E296E20EE15F02E50D9262F5099
:100C6800DA22DF500001B16F0001B1BF299020EEF8
:100C780015F02E50D9262F50DA22DF500001FD6FD3
:100C880020EE16F02E50D9262F50DA22DF50000120
:100C9800FE6FD0C1D4F1D1C1D5F1E6EC4DF0010120
:100CA800AF6F0101AF29D8B414D00101AF510E0DB7
:100CB8000C0EF326000EF4220201000EF324D96E66
:100CC8000201020EF420DA6EDF50296E298429868B
:100CD80005D08D0E296E0001FDBF299089EC48F0E2
:100CE8000101AF6F0101AF29D8B43ED0000E000159
:100CF800D46F0001D451D8A434D00001D4510001DC
:100D0800B16FB26B170E0001B127000EB2230001BC
:100D1800B1512E24D96E0001B2512F20DA6E000194
:100D2800D451010D0D0EF326000EF422000E000121
:100D3800B36F020EB46FF3500001B327F4500001F3
:100D4800B4230101AF510E0DF3500001B325E16E3C
:100D5800F4500001B421E26EDFCFE7FF0001D42B8D
:100D6800C8D70101AE8102D00101AE910101AE9355
:100D78001EEF0EF020EE0DF02E50D9262F50DA225D
:100D8800DF500001FF19D8A41EEF0EF020EE0EF080
:100D98002E50D9262F50DA22DF5001EC53F01EEFE7
:100DA8000EF020EE0DF02E50D9262F50DA22DF500B
:100DB8000001FF19D8A41EEF0EF0000E0101566FB6
:100DC80040C05AF1020E01015B6FD0C15CF1D1C184
:100DD8005DF120EE08F02E50D9262F50DA22DF5090
:100DE80001015E6F20EE09F02E50D9262F50DA222D
:100DF800DF5001015F6FD0C160F1D1C161F1D2C193
:100E080062F1D3C163F1FAC064F10001FA2B000E5C
:100E18000101656F420E0101666F000E366E368A5B
:100E2800010E396E010E3A6ED0C13BF0D1C13CF0D3
:100E3800080E2E24376E000E2F20386E20EE36F066
:100E480010EE7EF0070EDECFE6FFE82EFCD701019C
:100E5800010E0001866F01015A0E0001856F0D0E0B
:100E68000001876F84EC30F01EEF0EF0219E1EEF1C
:100E78000EF020EE0CF02E50D9262F50DA22DF503B
:100E8800100AD8B4ACD4010AD8B4BAD6510AD8B426
:100E980071D7010AD8B485D7030AD8B4E7D71EEFAB
:100EA8000EF00101F65120EE2EF010EE0AF0DE50A1
:100EB800E126DD50E222E7621EEF0EF00101CD517E
:100EC8000001D71904E10101CC510001D619D8A4B9
:100ED8001EEF0EF021961EEF0EF03050F50F0101B7
:100EE800276F0B0E2E240101256F000E2F20010104
:100EF800266FD2C021F1D3C022F1FF0E20EE2EF0D2
:100F080010EE08F0DE50E126DD50E222E76219D04B
:100F1800FF0E20EE2EF010EE09F0DE50E126DD5037
:100F2800E222E7620ED033B003D00101209F02D045
:100F38000101208F01012DC024F101012CC023F1F2
:100F48000AD00101208F080E2E240101236F000E04
:100F58002F200101246F0101208D01012751D8B4F0
:100F68001EEF0EF021841EEF0EF02EC0D9FF2FC009
:100F7800DAFFDF50D8B41EEF0EF02EC0D9FF2FC015
:100F8800DAFFDF06000E0101566F000E0001D96F6F
:100F98001AD00001D951010DF3502E24D96EF45006
:100FA8002F20DA6E01015651010D01015A0EF3246A
:100FB800E16E0101010EF420E26EDFCFE7FF0101CF
:100FC800562B0001D92B30500001D95DD8A0E1D7AC
:100FD8000101D351000120EED1F0DF6230D00101D0
:100FE80065672DD001016651300AD8A428D0000EBB
:100FF800366E368A010E396E010E3A6E0001000E09
:10100800386E0001D00E376ECCC03BF0CDC03CF03E
:1010180020EE36F010EE7EF0070EDECFE6FFE82E6B
:10102800FCD70101010E0001866F01015A0E000173
:10103800856F56C187F084EC30F01EEF0EF0CCC0FF
:10104800A5F0CDC0A6F0D0C0A7F0D1C0A8F0000E82
:101058002BB6010E0001A96F3DEC2BF01EEF0EF030
:10106800000E0001CB6F0001CB510001B16FB26BD4
:10107800040E0001B127000EB2230001B1512E2445
:10108800D96E0001B2512F20DA6EDF504D0AD8A474
:101098001EEF0EF020EE01F02C50D9262D50DA224A
:1010A800DF500001C26FC2C0B1F0010E0001B26F83
:1010B8000001B12B03D00001D890B2370001B12F45
:1010C800FAD70001B2510001BF6F2CC0D9FF2DC063
:1010D800DAFFDF50D8A404D00001BF510101581332
:1010E8000001CB510001B16FB26B060E0001B127B0
:1010F800000EB2230001B1512E24D96E0001B25165
:101108002F20DA6E0001C251010D0101320EF324C5
:10111800E16E0101010EF420E26EDFCFE7FF21A0AE
:101128001EEF0EF034C0D4F135C0D5F12CC0D9FF74
:101138002DC0DAFFDF500001FD6F20EE01F02C50CA
:10114800D9262D50DA22DF500001FE6F0001CB5165
:10115800010DF3502E24D96EF4502F20DA6EFF0EB5
:10116800DF621EEF0EF00001CB510001B16FB26BD0
:10117800010E0001B127000EB2230001B1512E2447
:10118800D96E0001B2512F20DA6EDF500001CA6F0C
:10119800040E0001F95DD8B01EEF0EF00001CA3947
:1011A800030B0001B16F020E0001B15DD8B01EEF54
:1011B8000EF00001F9510F0D02018C0EF324D96EC7
:1011C8000201020EF420DA6E0001FFC0DFFF000109
:1011D800F9510F0D0B0EF326000EF42202018C0EAE
:1011E800F324D96E0201020EF420DA6E010128C13F
:1011F800DFFF0001F9510F0D0C0EF326000EF4224B
:1012080002018C0EF324D96E0201020EF420DA6E6C
:10121800010129C1DFFF0001F9510F0D090EF32665
:10122800000EF42202018C0EF324D96E0201020E84
:10123800F420DA6E0101D4C1DEFF0101D5C1DDFF62
:101248000001F9510F0D0D0EF326000EF4220201D4
:101258008C0EF324D96E0201020EF420DA6E000E11
:10126800DF6E0001F9510F0D0D0EF326000EF4226A
:1012780002018C0EF324D96E0201020EF420DA6EFC
:101288000201DF8C0001CA31030B0001B16F0001BC
:10129800F9510F0D0D0EF326000EF42202018C0EEB
:1012A800F324D96E0201020EF420DA6E0201DF5037
:1012B8000001B119FC0BB1190201DF6E0001CAA7C8
:1012C80011D00001F9510F0D0D0EF326000EF42276
:1012D80002018C0EF324D96E0201020EF420DA6E9C
:1012E8000201DF860001CA39030B0001B16F020E4B
:1012F8000001B15DD8B011D00001F9510F0D0D0EEC
:10130800F326000EF42202018C0EF324D96E02019A
:10131800020EF420DA6E0201DF8A23C1D9FF24C14C
:10132800DAFF0001F9510F0D010EF326000EF42229
:1013380002018C0EF324E16E0201020EF420E26E2B
:10134800DFCFE7FF010120EE01F001012351D9268B
:1013580001012451DA220001F9510F0D020EF32682
:10136800000EF42202018C0EF324E16E0201020E3B
:10137800F420E26EDFCFE7FF0001F9510F0D0D0EEB
:10138800F326000EF42202018C0EF324D96E02011A
:10139800020EF420DA6E0201DF8E000E0001D96F12
:1013A8000001D951D8A43AD00001D9510001CBC0CD
:1013B800B1F00001B26B0001B127000EB223070E95
:1013C8000001B127000EB2230001B1512E24D96EBD
:1013D8000001B2512F20DA6E0001D951010D0E0E15
:1013E800F326000EF4228C0E0001B36F020EB46FC8
:1013F800F3500001B327F4500001B4230001F95160
:101408000F0DF3500001B325E16EF4500001B42133
:10141800E26EDFCFE7FF0001D92BC2D70001F92B1D
:101428001EEF0EF0000E0001C16F010E246402D001
:101438001EEF0EF0000E0001D96F18D00001D9512F
:10144800010DF3502C24D96EF4502D20DA6E0001D2
:10145800D951010D01013A0EF324E16E0101010E8B
:10146800F420E26EDFCFE7FF0001D92B070E000161
:10147800D965E4D7F8EC4AF00001D56F0001D52909
:10148800D8A41BD02450D8A4D5D3B70E296ED0C168
:10149800D4F1D1C1D5F189EC48F00001D56F000134
:1014A800D529D8A431D0010E0001C16FFF0E00016B
:1014B800FE6FFE0E0001FD6FE3D00001D5510E0D49
:1014C8000C0EF326000EF4220201000EF324D96E4E
:1014D8000201020EF420DA6EDFA616D00001D55103
:1014E8000E0D020EF326000EF4220201000EF32464
:1014F800D96E0201020EF420DA6E0001DECFFDF093
:101508000001DDCFFEF0BCD00001D529D8B4B8D099
:101518000001D5290001FD6FD3C1FEF0D0C1D4F17F
:10152800D1C1D5F10001FC51020AD8A448D020EE5F
:1015380001F02E50D9262F50DA22DF500001B16F6A
:101548000001B1AD3CD0FDC0BDF0FEC0BEF0000E44
:101558000001FD6F010E0001CE6F24D0CEC0FEF059
:10156800E6EC4DF00001C06F0001C029D8A418D0E6
:10157800000E0001FD6FCEC0FEF0CEC0B1F0010E2E
:101588000001B26F0001B12B03D00001D890B2372F
:101598000001B12FFAD70001B2510101581306D04A
:1015A8000001CE2B070E0001CE65D8D70001CE5121
:1015B800080AD8A404D0BDC0FDF0BEC0FEF0BF0E1E
:1015C800296E20EE01F02E50D9262F50DA22DF5056
:1015D8000001B16F0001B1B103D029900001FD8F66
:1015E80089EC48F00001D56F0001D5510E0D0C0EA5
:1015F800F326000EF4220201000EF324D96E020134
:10160800020EF420DA6E0201DF88000E0001D96FA5
:101618000001D951D8A434D00001D9510001B16FCB
:10162800B26B020E0001B127000EB2230001B151C6
:101638002E24D96E0001B2512F20DA6E0001D95143
:10164800010D0D0EF326000EF422000E0001B36FFB
:10165800020EB46FF3500001B327F4500001B42315
:101668000001D5510E0DF3500001B325E16EF45081
:101678000001B421E26EDFCFE7FF0001D92BC8D704
:10168800020E01015A6FFDC05BF1FEC05CF1C1C0E2
:101698005DF1000E0001D96F0001D951D8A422D004
:1016A8000001D951010D230EF324D96E000EF42048
:1016B800DA6E0001D9510001B16FB26B040E00015E
:1016C800B127000EB22301015A0E0001B125E16EC7
:1016D8000101010E0001B221E26EDFCFE7FF000138
:1016E800D92BDAD7050E0101566F0101010E000151
:1016F8009E6F0101D00E00019D6F0001D5510E0DA6
:10170800040EF326000EF4220201000EF324000159
:101718009F6F0201020EF4200001A06F010E00016C
:10172800A16F000E0001A26FE7EC4CF083D220EE0F
:1017380003F02E50D9262F50DA22DF50D8A4CFD06C
:1017480020EE01F02E50D9262F50DA22DF50010169
:10175800D26F20EE02F02E50D9262F50DA22DF5019
:101768000101D36F0101D26725D0010E0001FC6F82
:10177800FCC0B1F00001B147010154510001B11999
:10178800F90BB1190101546FD3C1B1F0070E000173
:10179800B117010E0001B26F0001B12B03D0000197
:1017A800D890B2370001B12FFAD70001B229010150
:1017B80058130FD0000E0001FC6FFCC0B1F00001FF
:1017C800B147010154510001B119F90BB1190101D7
:1017D800546F0101010E0001666F0101D20E000174
:1017E800656F0101010E0001686F0101D00E000153
:1017F800676F3BEC4FF02182BF0E296E000E00018F
:10180800D96F18D00001D951010DF3502C24D96E8D
:10181800F4502D20DA6E0001D951010D01013A0E64
:10182800F324E16E0101010EF420E26EDFCFE7FF41
:101838000001D92B070E0001D965E4D70101D26751
:1018480005D0000E0001FE6F000E04D0D3C1FEF0DB
:10185800000E00010001FD6FD0C1D4F1D1C1D5F156
:1018680089EC48F00001FB6F000E0001D96F000100
:10187800D951D8A4DFD10001D9510001B16FB26BA1
:10188800040E0001B127000EB2230001B1512E242D
:10189800D96E0001B2512F20DA6E0001D951010D25
:1018A8000D0EF326000EF422000E0001B36F020E97
:1018B800B46FF3500001B327F4500001B4230001C2
:1018C800FB510E0DF3500001B325E16EF4500001F9
:1018D800B421E26EDFCFE7FF0001D92BC8D70001A2
:1018E800FB690101D0690101D1690001FD690001AD
:1018F800FE690001000E0001666F0001FD0E000187
:10190800656F0101010E0001686F0101D00E000131
:10191800676F3BEC4FF08ED13350D8B413D02CC046
:10192800D9FF2DC0DAFFDF500001FD6F20EE01F076
:101938002C50D9262D50DA22DF500001FE6FE6EC3C
:101948004DF022D0000E0001D96F18D00001D951F6
:10195800010DF3502C24D96EF4502D20DA6E0001BD
:10196800D951010D01013A0EF324E16E0101010E76
:10197800F420E26EDFCFE7FF0001D92B070E00014C
:10198800D965E4D7F8EC4AF00001C96F0001C9290C
:10199800D8B450D10001C9510E0D0C0EF326000E1B
:1019A800F4220201000EF324D96E0201020EF42083
:1019B800DA6EDFAA3FD10001C9510001FB19D8B482
:1019C80012D00001C9510E0D0C0EF326000EF422A0
:1019D8000201000EF324D96E0201020EF420DA6E21
:1019E800000EDF6E27D1000E0001D96F9DD00001D7
:1019F800D9510E0D0C0EF326000EF4220201000E32
:101A0800F324D96E0201020EF420DA6EDFAE79D02B
:101A18000001D9510E0D0C0EF326000EF42202011E
:101A2800000EF324D96E0201020EF420DA6EDFAA4A
:101A380068D00001D9510001FB19D8B462D0000E5A
:101A48000101566F01015651010D01015A0EF3248F
:101A5800D96E0101010EF420DA6E030EDF6E01016A
:101A6800562B000E366E368A3650FC0B0109366E40
:101A7800010E396E010E3A6E0001D9510E0D0201A8
:101A8800000EF324D96E0201020EF420DA6EDECFC6
:101A98003BF0DDCF3CF00001D9510E0D020EF326CC
:101AA800000EF4220201000EF324376E0201020E2A
:101AB800F420386E20EE36F010EE7EF0070EDECF02
:101AC800E6FFE82EFCD70101010E0001866F010137
:101AD8005A0E0001856F56C187F084EC30F0000E75
:101AE8000001C46F000E0001C36FFF0E0001C35D4B
:101AF8000F0E0001C459D8B004D00001C34BC42B49
:101B0800F4D70001D9510E0D0C0EF326000EF42265
:101B18000201000EF324D96E0201020EF420DA6EDF
:101B2800000EDF6E0001D92B090E0001D9655FD7C1
:101B38000001FB690101D2690101D3690101D06982
:101B48000101D1690101010E0001666F0101D20E88
:101B58000001656F0101010E0001686F0101D00EDF
:101B68000001676F3BEC4FF0219264D03350D8B43A
:101B780012D0000E0001A56F000E0001A46F000135
:101B88002DC0A7F000012CC0A6F0010E0001A86F1F
:101B9800BCEC1DF04FD000012DC0A5F000012CC0F9
:101BA800A4F0000E0001A76F000E0001A66F000E42
:101BB8000001A86FBCEC1DF03DD0020E246401D0DA
:101BC80039D021A237D020EE01F02E50D9262F503F
:101BD800DA22DF500001FF19D8A42CD00001FC51F3
:101BE800D8B428D0140E2CEC4CF0C1EC46F022D01E
:101BF8002EC0D9FF2FC0DAFFDF50010AD8B412D4A3
:101C0800030AD8B494D5010AD8B486D6070AD8B43A
:101C1800ADD7030AD8B4D1D70DD02B50030B000A87
:101C2800D8B45FEF01F0010AD8B4E2D7020AD8B4F9
:101C380034EF08F021A413EC53F0DCEC4FF060C053
:101C4800C5F061C0C6F062C0C7F063C0C8F0000E3E
:101C58000001D96F65D00001D951430D0E0EF3264E
:101C6800000EF4220401000EF324D96E0401040EC0
:101C7800F420DA6EDFA052D00001D951430D0401DF
:101C8800000EF324D96E0401040EF420DA6EDECFC0
:101C9800B1F0DECFB2F0DECFB3F0DECFB4F00001AA
:101CA800B11FB21FB31FB41FB12B000EB223B32351
:101CB800B4230001C5510001B1250001B56F000131
:101CC800C6510001B2210001B66F0001C7510001E1
:101CD800B3210001B76F0001C8510001B421000110
:101CE800B86F010E0001B55D120EB6597A0EB759DC
:101CF800000E0001B859D8A011D00001D951430DE8
:101D08000E0EF326000EF4220401000EF324D96E01
:101D18000401040EF420DA6E000EDF6E0001D92BE8
:101D2800010E0001D96597D7000E0001D96F6AD05E
:101D38000001D951080D030EF326000EF42201010B
:101D4800000EF324D96E0101010EF420DA6EDF5083
:101D5800D8B456D00001D951080D040EF326000E50
:101D6800F4220101000EF324D96E0101010EF420C2
:101D7800DA6EDECFB1F0DECFB2F0DECFB3F0DECF79
:101D8800B4F00001B11FB21FB31FB41FB12B000E76
:101D9800B223B323B4230001C5510001B1250001CA
:101DA800B56F0001C6510001B2210001B66F0001F4
:101DB800C7510001B3210001B76F0001C8510001EC
:101DC800B4210001B86F210E0001B55DA10EB6590E
:101DD800070EB759000E0001B859D8A011D000015C
:101DE800D951080D030EF326000EF4220101000E4E
:101DF800F324D96E0101010EF420DA6E000EDF6EB5
:101E08000001D92B030E0001D96592D70101AEA3B9
:101E180012000101AEA196D00B0E0101566F01010F
:101E28005651010D01015A0EF324D96E0101010E1C
:101E3800F420DA6E000EDF6E0101562B01015651B7
:101E4800010D01015A0EF324D96E0101010EF4208F
:101E5800DA6E110EDF6E0101562B000E0001CF6FF6
:101E68001CD00001CF51010D0101B20EF324D96E2F
:101E78000101010EF420DA6E01015651010D010134
:101E88005A0EF324E16E0101010EF420E26EDFCF59
:101E9800E7FF0101562B0001CF2B070E0001CF658C
:101EA800E0D701015651010D01015A0EF324D96EF4
:101EB8000101010EF420DA6E0101B0C1DFFF01015A
:101EC800562B01015651010D01015A0EF324D96E0A
:101ED8000101010EF420DA6E0101B1C1DFFF010139
:101EE800562B000E0001CF6F0001CF51D8A41DD092
:101EF8000001CF51010D0101BA0EF324D96E010181
:101F0800010EF420DA6E01015651010D01015A0E3D
:101F1800F324E16E0101010EF420E26EDFCFE7FF4A
:101F28000101562B0001CF2BDFD70101010E000163
:101F3800B06F0101BB0E0001AF6F98EC4DF00101CD
:101F4800AE9312000101C5C1B1F00101C6C1B2F0E2
:101F58000101C7C1B3F00101C8C1B4F00001B11F4C
:101F6800B21FB31FB41FB12B000EB223B323B42387
:101F78000001C5510001B1250001B96F0001C6512A
:101F88000001B2210001BA6F0001C7510001B3215D
:101F98000001BB6F0001C8510001B4210001BC6FF2
:101FA800610E0001B95DE30E0001BA59160E000179
:101FB800BB59000E0001BC59D8A012000101AE9314
:101FC8001200010E0301B26F000E0101556F41ECC2
:101FD8004DF0898E898C8B84FAEC47F001015567A6
:101FE800B9EF15F08CEC53F043EC51F00101010E00
:101FF80000016D6F01018D0E00016C6FFF0E000175
:102008006F6F360E00016E6F51EC18F00101010E72
:1020180000016D6F01019D0E00016C6FFF0E000144
:102028006F6F470E00016E6F51EC18F0CDEC4BF05E
:10203800000E0DEC43F0DCEC4FF060C0A0F361C083
:10204800A1F362C0A2F363C0A3F3DCEC4FF060C05D
:10205800A4F361C0A5F362C0A6F363C0A7F30301AC
:10206800A0C3EEF10301A1C3EFF10301A2C3F0F194
:102078000301A3C3F1F10101EE1FEF1FF01FF11FD0
:10208800EE2B000EEF23F023F1230301A4510101ED
:10209800EE250101F26F0301A5510101EF210101B4
:1020A800F36F0301A6510101F0210101F46F03014F
:1020B800A7510101F1210101F56F810E0101F25DC6
:1020C800840EF3591E0EF459000E0101F559D8B0CB
:1020D8000ED09EEC44F00301B66F0301B651020A1C
:1020E800D8A4B3D70101FF5161EC37F0AED78EEC1D
:1020F80053F043EC51F00101010E00016D6F010135
:102108008D0E00016C6FFE0E00016F6FCE0E000188
:102118006E6F01010001FFC170F00001716B51EC9D
:1021280018F00101010E00016D6F01019D0E000103
:102138006C6FFF0E00016F6F990E00016E6F51EC0E
:1021480018F0CDEC4BF0030E00016D6FE80E0001A6
:102158006C6F8DEC4AF09EEC44F00301B66F0301FE
:10216800B605D8B459D00301B651020AD8A4F3D79A
:10217800000E0301B16F010E0301A96F46D043ECB5
:1021880051F00101010E00016D6F01018D0E00017A
:102198006C6FFE0E00016F6FCE0E00016E6F0301B3
:1021A8000001B1C370F00001716B51EC18F001012E
:1021B800010E00016D6F01019D0E00016C6FFF0E95
:1021C80000016F6F990E00016E6F51EC18F0CDECA5
:1021D8004BF09EEC44F00301B66F0301B605D8A49A
:1021E80006D0B1C3FFF1000E0301A96F11D003019E
:1021F800B651020AD8A4EDD70301B1290301B16F82
:102208000301B1511B0AD8A403D00B0E0301B16F0F
:102218000301A905D8B4B3D70101FF5101EC53F06C
:102228000009D8A410D0FD0E00018E6FE60E000143
:102238008D6F000E00018F6F010E0001906F74EC1E
:102248004FF002EF01F0000EC2EC52F0FC0E00015C
:102258008E6FA90E00018D6F000E00018F6F000EAA
:102268000001906F74EC4FF0030E00016D6FE80EE3
:1022780000016C6F8DEC4AF0B4EF15F09EEC44F061
:102288000301B66F0301B605D8A480D0FF0E000184
:102298008E6F580E00018D6F000E00018F6F010EBA
:1022A8000001906F74EC4FF0000E0DEC43F0000E3F
:1022B8000001926F000E0001936F000E0001946FF1
:1022C800000E0001956F000E0001966F000E68EC7D
:1022D80047F0FE0E00018E6F210E00018D6F000E7B
:1022E80000018F6F010E0001906F74EC4FF043EC0A
:1022F80051F00101010E00016D6F01018D0E000109
:102308006C6FFE0E00016F6F8E0E00016E6F010183
:102318000001D1C170F00001716B01010001D0C151
:1023280072F00001736B01010001FFC174F000013C
:10233800756B51EC18F00101010E00016D6F010180
:102348009D0E00016C6FFE0E00016F6FE00E000124
:102358006E6F01010001D3C170F00001716B0101C2
:102368000001D2C172F00001736B51EC18F0CDEC92
:102378004BF006D06CEC53F00009D8A488EC53F06D
:1023880002010CAFF7D7000E0301B26F0301B6517B
:10239800020AD8A4E5D3FD0E00018E6FA80E000135
:1023A8008D6F000E00018F6F010E0001906F74ECAD
:1023B8004FF0FC0E00018E6FCA0E00018D6F000EEB
:1023C80000018F6F010E0001906F74EC4FF0000E4A
:1023D8000DEC43F0080E0101FF5DD8B023D0FFC11A
:1023E800EEF1010E0101EF6FF06B0101EE2B04D04D
:1023F800D8900101EF37F0370101EE2FF9D700012E
:10240800EFC1DAF00001F0C1DBF00001000E0001BD
:10241800DBBFFF0E0001DC6F0001DD6F0A0E75ECFB
:102428003EF07CD0100E0101FF5DD8B027D0FFC16F
:10243800EEF1F80E0101EE27000E0101EF6F010E1B
:10244800F06F0101EE2B04D0D8900101EF37F0377F
:102458000101EE2FF9D70001EFC1DAF00001F0C158
:10246800DBF00001000E0001DBBFFF0E0001DC6F96
:102478000001DD6F0A0E75EC3EF050D0180E010118
:10248800FF5DD8B026D0FFC1EEF1F00E0101EE27B6
:10249800000E0101EF6F000EF06F010EF16F000EDC
:1024A800F26F0101EE2B06D0D8900101EF37F0371B
:1024B800F137F2370101EE2FF7D7EFC1DAF0F0C1AB
:1024C800DBF0F1C1DCF0F2C1DDF00A0E75EC3EF094
:1024D80025D0FFC1EEF1E80E0101EE27000E010143
:1024E800EF6F000EF06F000EF16F010EF26F010139
:1024F800EE2B06D0D8900101EF37F037F137F237DD
:102508000101EE2FF7D7EFC1DAF0F0C1DBF0F1C12E
:10251800DCF0F2C1DDF00A0E75EC3EF00301BA6F93
:102528000301BA51D8B40ED3000E0301B86F00D31B
:10253800000E0301AC6F0301B851D8B475D0000E7A
:102548000301AC6F000E0301B76F48D00301B85107
:102558000F0D0A0EF326000EF42202018C0EF3244E
:10256800D96E0201020EF420DA6E0301B7510F0D85
:102578000A0EF326000EF42202018C0EF324E16EFB
:102588000201020EF420E26EE750DF6225D003015B
:10259800B8510F0D090EF326000EF42202018C0E1D
:1025A800F324D96E0201020EF420DA6E0301B7514A
:1025B8000F0D090EF326000EF42202018C0EF324EF
:1025C800E16E0201020EF420E26EE750DF6204D0F1
:1025D800010E0301AC6F08D00301B72B0301B851FA
:1025E8000301B75DD8A0B2D70301AC05D8A41CD0AD
:1025F800FF0E0101EE6FFF0EEF6F0301BA510101EB
:10260800F06FF16B0101EE510101F0270101EF516B
:102618000101F1230301B8510101F019F111D8A406
:1026280085D20301B86982D243EC51F00101010E51
:1026380000016D6F01018D0E00016C6FFE0E00012F
:102648006F6FA50E00016E6F0301B8510F0D0A0ED2
:10265800F326000EF42202018C0EF324D96E020137
:10266800020EF420DA6EDF500101EE6F0101EE5127
:102678000001706F0001716B0301B8510F0D090E55
:10268800F326000EF42202018C0EF324D96E020107
:10269800020EF420DA6EDF500101EF6F0101EF51F5
:1026A8000001726F0001736B51EC18F00101010E0B
:1026B80000016D6F01019D0E00016C6FFF0E00019E
:1026C8006F6F890E00016E6F51EC18F0CDEC4BF076
:1026D8009EEC44F00301B66F0301B605D8A4F2D10D
:1026E800000E0301AF6F0B0E0101566F000E0301C0
:1026F800B76F46D00301B8510F0D0A0EF326000E2E
:10270800F42202018C0EF324D96E0201020EF42089
:10271800DA6E0301B7510F0D0A0EF326000EF422EC
:1027280002018C0EF324E16E0201020EF420E26E27
:10273800E750DF6223D00301B8510F0D0A0EF326CC
:10274800000EF42202018C0EF324D96E0201020E4F
:10275800F420DA6E0301B7510F0D0A0EF326000EAE
:10276800F42202018C0EF324E16E0201020EF42021
:10277800E26EE750DF6202D00301AF2B0301B72BF3
:102788000301BA510301B75DD8A0B4D7010E030104
:10279800AF6534D1000E0301AA6F000E0301AD6FBF
:1027A8000B0E0101566F01015651010D01015A0E20
:1027B800F324D96E0101010EF420DA6E040EDF6EE7
:1027C8000101562B0301B8510F0D0A0EF326000E16
:1027D800F42202018C0EF324D96E0201020EF420B9
:1027E800DA6E01015651010D01015A0EF324E16E12
:1027F8000101010EF420E26EDFCFE7FF0101562B45
:102808000301B8510F0D090EF326000EF422020140
:102818008C0EF324D96E0201020EF420DA6E010147
:102828005651010D01015A0EF324E16E0101010E0A
:10283800F420E26EDFCFE7FF0101562B000E99EC82
:1028480049F0000E0301B76FD3D00301B8510F0D43
:102858000A0EF326000EF42202018C0EF324D96E20
:102868000201020EF420DA6E0301B7510F0D0A0EB1
:10287800F326000EF42202018C0EF324E16E02010D
:10288800020EF420E26EE750DF62B0D00301B851C7
:102898000F0D090EF326000EF42202018C0EF3240C
:1028A800D96E0201020EF420DA6E0301B7510F0D42
:1028B800090EF326000EF42202018C0EF324E16EB9
:1028C8000201020EF420E26EE750DF628FD00301AE
:1028D800AD2B43EC51F00101010E00016D6F0101B8
:1028E8008D0E00016C6FFE0E00016F6FBA0E0001B5
:1028F8006E6F0301B7510F0D020EF326000EF4227E
:1029080002018C0EF324D96E0201020EF420DA6E55
:10291800DF500101EE6F0101EE510001706F0001FF
:10292800716B0301B7510F0D010EF326000EF4224F
:1029380002018C0EF324D96E0201020EF420DA6E25
:10294800DF500101EF6F0101EF510001726F0001CB
:10295800736B51EC18F00101010E00016D6F01015C
:102968009D0E00016C6FFF0E00016F6F890E000154
:102978006E6F51EC18F0CDEC4BF0B7C3AAF39EEC98
:1029880044F00301B66F0301B605D8A407D0AAC363
:10299800B8F30301BA050301B76F28D00301B65194
:1029A800020AD8A4ECD7FF0E0101EE6FFF0EEF6FFD
:1029B8000301BA510101F06FF16B0101EE51010100
:1029C800F0270101EF510101F1230301B751010182
:1029D800F019F111D8B405D00301AF510301AD636B
:1029E80005D00301B769000E0301AD6F0301B72BD2
:1029F8000301BA510301B75DD8A027D7000E010122
:102A0800DA6F0301B851E7EC2DF00301A86F030159
:102A1800A829D8A410D0FF0E00018E6FB80E0001AF
:102A28008D6F000E00018F6F010E0001906F74EC26
:102A38004FF07DEF10F0FD0E00018E6FC70E000104
:102A48008D6F000E00018F6F010E0001906F74EC06
:102A58004FF0000E0301B26F0B0E0101566F01011A
:102A68005651010D01015A0EF324D96E0101010ED0
:102A7800F420DA6E050EDF6E0101562B0101565166
:102A8800010D01015A0EF324D96E0101010EF42043
:102A9800DA6E0101D1C1DFFF0101562B0101565148
:102AA800010D01015A0EF324D96E0101010EF42023
:102AB800DA6E0101D0C1DFFF0101562B000E99EC3F
:102AC80049F030D00301B651020AD8A401D6FF0E4E
:102AD8000101EE6FFF0EEF6F0301B8510101F06FB6
:102AE800F16B0101F01FF11FF04BF12B0301BA51FB
:102AF8000101F26FF36B0101F0510101F2270101AD
:102B0800F1510101F3230101EE510101F227010105
:102B1800EF510101F3230101F351F211D8A402D0BE
:102B28000301B8690301B26701D008D00301B82BCB
:102B38000301BA510301B85DD8A0FAD4000E03010D
:102B4800B26F0ED0FE0E00018E6F040E00018D6F65
:102B5800000E00018F6F000E0001906F74EC4FF0B3
:102B68000301B205D8B442EF11F0000E0301B46FAF
:102B7800000E0301B56F000E0301B26F899E899C98
:102B88008B94FC0E00018E6F450E00018D6F000EB8
:102B980000018F6F000E0001906F74EC4FF078D237
:102BA8009EEC44F00301B36F6CEC53F00009D8B409
:102BB80080D025C1D9FF26C1DAFFDF500301B46FE9
:102BC8000301B451040AD8A41ED00101D151010156
:102BD80021EE25F010EE01F0DE50E126DD50E22274
:102BE800E7620ED0010120EE02F001012551D9263D
:102BF80001012651DA22DF500101D019D8B403D0DF
:102C0800000E0301B46F0301B451020AD8A44FD0D7
:102C1800000E0301B96F47D00301B9510E0D0C0E18
:102C2800F326000EF4220201000EF324D96E0201ED
:102C3800020EF420DA6EDFAE34D00301B9510E0D66
:102C4800030EF326000EF4220201000EF324D96EBF
:102C58000201020EF420DA6E010110EE01F001010A
:102C68002351E12601012451E222E750DF6219D005
:102C78000301B9510E0D020EF326000EF4220201D3
:102C8800000EF324D96E0201020EF420DA6E23C17D
:102C9800E1FF24C1E2FFE750DF6203D0B9C351F17D
:102CA80006D00301B92B090E0301B965B5D788EC25
:102CB80053F00301B451020AD8A41ED00B0E01012F
:102CC800566F01015651010D01015A0EF324D96EB8
:102CD8000101010EF420DA6E020EDF6E0101562B9F
:102CE800000E0001DA6F01015151D3EC40F07BEC8A
:102CF80028F0010E0301B26F0301B305D8A4FFD079
:102D08000301B567FCD0000E0301B06F000E01018E
:102D1800516F000E0301B96F26D00301B9510E0D92
:102D28000C0EF326000EF4220201000EF324D96ED5
:102D38000201020EF420DA6EDFAE13D00301B9519E
:102D48000E0D0C0EF326000EF4220201000EF324E1
:102D5800D96E0201020EF420DA6EDFAA02D0030156
:102D6800B02B0301B92B090E0301B965D6D7010EA3
:102D78000301B065A6D0000E0301AB6F000E03017E
:102D8800AE6FFD0E00018E6F2B0E00018D6F000ED1
:102D980000018F6F000E0001906F74EC4FF0000E71
:102DA8000301B96F8AD00301B9510E0D0C0EF32639
:102DB800000EF4220201000EF324D96E0201020E65
:102DC800F420DA6EDFAE73D043EC51F00101010E4E
:102DD80000016D6F01018D0E00016C6FFE0E000188
:102DE8006F6FBA0E00016E6F0301B9510E0D030E1D
:102DF800F326000EF4220201000EF324D96E02011C
:102E0800020EF420DA6EDF500101EE6F0101EE517F
:102E18000001706F0001716B0301B9510E0D020EB4
:102E2800F326000EF4220201000EF324D96E0201EB
:102E3800020EF420DA6EDF500101EF6F0101EF514D
:102E48000001726F0001736B51EC18F00101010E63
:102E580000016D6F01019D0E00016C6FFF0E0001F6
:102E68006F6F890E00016E6F51EC18F0CDEC4BF0CE
:102E78000301AE2B9EEC44F00301B36F0301B305CD
:102E8800D8A406D0B9C351F1010E0301AB6F0FD01E
:102E98000301B351020AD8A4EDD70301B0510301CD
:102EA800AE6305D00301B969000E0301AE6F0301DB
:102EB800AB05D8B406D00301B92B090E0301B965D7
:102EC80072D70B0E0101566F01015651010D010118
:102ED8005A0EF324D96E0101010EF420DA6E020EA7
:102EE800DF6E0101562B000E0001DA6F010151510E
:102EF800D3EC40F07BEC28F0010E0301B26F030124
:102F0800B351020AD8A442D00301B52B0301B5512D
:102F1800030AD8A403D0000E0301B56F0301B567F7
:102F28000FD0FC0E00018E6F450E00018D6F000E54
:102F380000018F6F000E0001906F74EC4FF026D0E7
:102F48000301B505D8A40FD0FC0E00018E6F230E27
:102F580000018D6F000E00018F6F000E0001906F51
:102F680074EC4FF013D00301B551020AD8A40ED067
:102F7800FC0E00018E6F010E00018D6F000E000126
:102F88008F6F000E0001906F74EC4FF00301B45185
:102F9800030AD8B408D00301B305D8A41ED003018E
:102FA800B505D8A41AD00B0E0101566F0101565170
:102FB800010D01015A0EF324D96E0101010EF4200E
:102FC800DA6E030EDF6E0101562B000E99EC49F004
:102FD8007DEC25F0010E0301B26F0301B451040A20
:102FE800D8B409D00301B305D8A44AD00301B55118
:102FF800020AD8A445D043EC51F00101010E0001AA
:103008006D6F01018D0E00016C6FFE0E00016F6F78
:103018008E0E00016E6F01010001D1C170F0000138
:10302800716B01010001D0C172F00001736B0101E5
:103038000001FFC174F00001756B51EC18F001013B
:10304800010E00016D6F01019D0E00016C6FFE0EF7
:1030580000016F6FE00E00016E6F01010001D3C126
:1030680070F00001716B01010001D2C172F0000122
:10307800736B51EC18F0CDEC4BF0000E0301B46FFC
:103088000301B451050AD8A403D0010E0301B26F9D
:103098000301B251D8A469D583D50001000E0001FF
:1030A800826F0001700E0001816FA4EF1DF0000116
:1030B8008A51250AD8B40CD06CC0D9FF6DC0DAFF8C
:1030C80000018AC0DFFF00016C4B6D2BA4EF1DF0DF
:1030D800000E0001856F000E0001846F000E0001D4
:1030E8008C6F000E00018B6F0ED000018B8708D00B
:1030F80000018B8105D000018C8702D000018B85EF
:1031080000016E4B6F2B00016EC0F6FF00016FC00F
:10311800F7FF0800F550200AD8B4EAD7030AD8B454
:10312800EAD70E0AD8B4E1D71D0AD8B4E7D7000108
:103138008BA702D000018B9500016EC0F6FF00013D
:103148006FC0F7FF0800F550ACEC52F0D8A048D09B
:10315800000E0001856F000E0001846F84C060F0CE
:1031680085C061F0000E0001636F0A0E0001626FF6
:10317800E4EC51F0000160C084F0000161C085F00A
:10318800D00E0001766FFF0E776F00016EC0F6FF5C
:1031980000016FC0F7FF0800F5500001786F796BE8
:1031A8000001765100017827000177510001792349
:1031B800000178510001842700017951000185231D
:1031C80000016E4B6F2B00016EC0F6FF00016FC04F
:1031D800F7FF0800F550ACEC52F0D8A01FD0BED7CE
:1031E80000016EC0F6FF00016FC0F7FF0800F55040
:1031F8002A0AD8A413D081C0D9FF82C0DAFF0001FF
:10320800DECF84F00001DDCF85F0020E00018127BA
:10321800000E0001822300016E4B6F2B00016EC06F
:10322800F6FF00016FC0F7FF0800F5502E0AD8A47A
:1032380047D000018C8D00016E4B6F2B00016EC0D2
:10324800F6FF00016FC0F7FF0800F5502A0AD8A45E
:1032580011D081C0D9FF82C0DAFFDF500001836F2F
:10326800020E00018127000E0001822300016E4B2F
:103278006F2BD4D0000E0001836F15D000016EC0F3
:10328800F6FF00016FC0F7FF0800F5CF76F00001E8
:1032980083510A0DF35000017625D00F0001836F8A
:1032A80000016E4B6F2B00016EC0F6FF00016FC06E
:1032B800F7FF0800F550ACEC52F0D8A0AFD0DED73D
:1032C800000E0001836FAAD000018B8DCFD00001C2
:1032D8008B8B00018B8FCAD000018351D8B41AD0D0
:1032E800000183C076F00001776B76BF7707000195
:1032F80088510001765D0001895100017759D8B0E5
:1033080009D0000183510001886F0001896B000119
:1033180088BF8907000184510001885D000185513B
:1033280000018959D8B00AD0000120EE88F0DE509B
:103338000001845FDD500001855B06D0000E0001AE
:10334800856F000E0001846F00018BA70AD024D07E
:103358006CC0D9FF6DC0DAFF200EDF6E00016C4B28
:103368006D2B00018407D8A0850700018429D8B4F3
:103378008529D8B411D0ECD786C0D9FF87C0DAFF29
:103388006CC0E1FF6DC0E2FFDFCFE7FF0001864BB5
:10339800872B00016C4B6D2B00018807D8A089078B
:1033A80000018829D8B48929D8A4E6D700018BB7A9
:1033B8000AD0C6D36CC0D9FF6DC0DAFF200EDF6E0D
:1033C80000016C4B6D2B00018407D8A08507000114
:1033D8008429D8B48529D8B4B3D3ECD781C0D9FF10
:1033E80082C0DAFFDF5000018A6F020E00018127D8
:1033F800000E000182230001000E0001876F00010A
:103408008A0E0001866F000E0001896F010E00010F
:10341800886F62D7C00E00018B1328D000016EC0E0
:10342800F6FF00016FC0F7FF00016E4B6F2B08001D
:103438000001F5CF8AF000018A51000AD8B491D36F
:10344800580AD8B444D73B0AD8B4C8D7070AD8B45E
:103458000DD00D0AD8B40AD0060AD8B435D71A0A3E
:10346800D8B4D8D70D0AD8B434D7C5D7C00E000100
:103478008B150001766F000E00018C150001776F27
:10348800000177517611D8A425D081C0D9FF82C018
:10349800DAFF0001DECF86F00001DDCF87F0020EF3
:1034A80000018127000E0001822300018751800A54
:1034B800F36E800EF35C000ED8B4865DD8B01AD0D7
:1034C800030E00018B130001866D0001871FD8B021
:1034D800872B10D081C0D9FF82C0DAFF0001DECF70
:1034E80086F00001DDCF87F0020E00018127000E73
:1034F800000182230001836774D00001875186117F
:10350800D8A46FD00001832B6CD0010E00018A6F04
:1035180000018A51050AD8B473D000018A51020DFE
:10352800EF0EF324F66EFB0EF420F76E0900F5CFCC
:1035380076F00900F5CF77F0000176510001865D3D
:103548000001775100018759D8A05AD000018A2B71
:10355800DFD7010E00018A6F00018A51040AD8B42E
:103568004FD000018A51020DF90EF324F66EFB0EBE
:10357800F420F76E0900F5CF76F00900F5CF77F063
:10358800000176510001865D0001775100018759DD
:10359800D8A036D000018A2BDFD7010E00018A6F30
:1035A80000018A51060AD8B42BD000018A51020DB5
:1035B800E30EF324F66EFB0EF420F76E0900F5CF48
:1035C80076F00900F5CF77F0000176510001865DAD
:1035D8000001775100018759D8A012D000018A2B29
:1035E800DFD700018B51C00B000AD8B48ED7400A30
:1035F800D8B4D3D7C00AD8B4ACD7400AD8B485D782
:1036080000018A51800A0001766F00018351800A07
:103618000001765DD8B003D083C08AF00DD00001D8
:103628008351800A0001766F00018A51800A0001E7
:10363800765DD8A08AC083F0000185518411D8B482
:1036480013D0030E00018B150001766F000E0001E8
:103658008C150001776F000177517611D8B404D02A
:1036680000018407D8A0850700018CAD22D0800E08
:10367800000183BF7F0E0001766F000184510001B5
:10368800835D00018551800A00017659D8B00BD0BE
:10369800000183510001845F000E000183BFFF0E0B
:1036A8000001855B06D0000E0001856F000E000149
:1036B800846FC40E0001766F080E776F00018BC00F
:1036C80078F000018CC079F000017651000178177C
:1036D800000177510001791700017951080A400E5D
:1036E800D8B47819D8A40AD0000185518411D8B467
:1036F80037D000018407D8A0850732D0C00E00015A
:10370800766F080E776F00018BC078F000018CC0CF
:1037180079F0000176510001781700017751000116
:10372800791700017951080A800ED8B47819D8A4FD
:1037380017D000018551800A800F030ED8B4845D2C
:10374800D8A008D00001FE0E00018427FF0E00015A
:10375800852306D0000E0001856F000E0001846FDE
:10376800800E00018ABF7F0E0001766F0001845130
:1037780000018A5D00018551800A00017659D8B0A0
:103788000BD000018A510001845F000E00018ABF3E
:10379800FF0E0001855B06D0000E0001856F000E4C
:1037A8000001846F00018BA56FD0030E00018B15FB
:1037B8000001766F000E00018C150001776F000183
:1037C80077517611D8B406D06CC0D9FF6DC0DAFF36
:1037D8002D0E08D000018BA107D06CC0D9FF6DC099
:1037E800DAFF200EDF6E39D0C00E0001766F080EAA
:1037F800776F00018BC078F000018CC079F0000170
:1038080076510001781700017751000179170001FE
:103818007951080A800ED8B47819D8A421D06CC080
:10382800D9FF6DC0DAFF300EDF6E00016C4B6D2BD7
:1038380000018BBB05D0000E00017C6F780E04D010
:10384800000E00017C6F580E00017B6F6CC0D9FF21
:103858006DC0DAFF00017BC0DFFF00016C4B6D2BF0
:103868000001000185518411D8B446D16CC0D9FF3C
:103878006DC0DAFF300EDF6E00016C4B6D2B00015E
:103888008407D8A08507EDD7000185518411D8B4E5
:1038980015D000018BB712D06CC0D9FF6DC0DAFF0C
:1038A800200EDF6E00016C4B6D2B00018407D8A041
:1038B8008507000185518411D8A4EED7030E0001B5
:1038C8008B150001766F000E00018C150001776FD3
:1038D800000177517611D8B406D06CC0D9FF6DC0FD
:1038E800DAFF2D0E08D000018BA109D06CC0D9FFDA
:1038F8006DC0DAFF200EDF6E00016C4B6D2BC00E21
:103908000001766F080E776F00018BC078F0000118
:103918008CC079F0000176510001781700017751C9
:103928000001791700017951080A400ED8B47819B6
:10393800D8A407D06CC0D9FF6DC0DAFF300EDF6E97
:10394800D8D0C00E0001766F080E776F00018BC0CB
:1039580078F000018CC079F00001765100017817E9
:10396800000177510001791700017951080A800E8A
:10397800D8B47819D8A4C0D06CC0D9FF6DC0DAFF0C
:10398800300EDF6E00016C4B6D2B00018BBB05D038
:10399800000E00017E6F780E04D0000E00017E6FCD
:1039A800580E00017D6F6CC0D9FF6DC0DAFF0001B1
:1039B8007DC0DFFF9ED000018351020DEF0EF3247E
:1039C800F66EFB0EF420F76E09000001F5CF62F0E9
:1039D8000A000001F5CF63F086C060F087C061F08F
:1039E800FFEC4EF0000160C067F0000161C068F0B4
:1039F800000E00016A6F0A0E0001696F43EC50F077
:103A0800000167515CD086C060F087C061F000019A
:103A18008351020DF90EF324F66EFB0EF420F76EB7
:103A280009000001F5CF62F00A000001F5CF63F04C
:103A3800FFEC4EF0000160510F0B00017A6F00019E
:103A48008BBB05D0FF0E0001806F030E04D0FE0E65
:103A58000001806FF20E00017F6F00017A51010DA5
:103A680000017FC076F0000180C077F0F3500001BC
:103A78007627F4500001772376C0F6FF77C0F7FF6A
:103A880008000001F5CF8AF02DD086C060F087C00D
:103A980061F000018351020DE30EF324F66EFB0E74
:103AA800F420F76E09000001F5CF62F00A0000016A
:103AB800F5CF63F0FFEC4EF000016051070B300FBB
:103AC80000018A6F0FD000018B51C00B000AD8B4D7
:103AD80072D7400AD8B4D9D7C00AD8B494D7400A04
:103AE800D8B469D76CC0D9FF6DC0DAFF00018AC0AD
:103AF800DFFF00016C4B6D2B000183070001832958
:103B0800D8A4E1D700018BA71BD000018551800AFA
:103B1800800F010ED8B4845DD8A012D06CC0D9FF34
:103B28006DC0DAFF200EDF6E00016C4B6D2B0001BB
:103B38008407D8A08507000185518411D8A4EED741
:103B480000016EC0F6FF00016FC0F7FF00016E4B69
:103B58006F2B08000001F5CF8AF000018A675BEF40
:103B680018F06CC0D9FF6DC0DAFF000EDF6E1200CE
:103B7800000E0001AB6F000E0101566F0001A85145
:103B8800D8B416D0A6C0D9FFA7C0DAFFDF5000010D
:103B9800FD6F000120EE01F00001A651D9260001B9
:103BA800A751DA22DF500001FE6FE6EC4DF024D079
:103BB800000E0001AE6F1AD00001AE51010DF35096
:103BC8000001A425D96EF4500001A521DA6E000188
:103BD800AE51010D01013A0EF324E16E0101010E0F
:103BE800F420E26EDFCFE7FF0001AE2B070E0001E5
:103BF800AE65E2D7F8EC4AF00001AD6F0001AD29DF
:103C0800D8B480D3000E0001AE6F8AD20001AE5145
:103C1800430D0E0EF326000EF4220401000EF324C9
:103C2800D96E0401040EF420DA6EDFA077D2000109
:103C3800AE51430D0E0EF326000EF4220401000EC1
:103C4800F324D96E0401040EF420DA6EDFB238D101
:103C58000001AE51430D0E0EF326000EF4220401AE
:103C6800000EF324D96E0401040EF420DA6EDFA8E6
:103C780027D10001AD510E0D020EF326000EF422DD
:103C88000201000EF324D96E0201020EF420DA6E4E
:103C98000001AE51430D060EF326000EF422040176
:103CA800000EF324E16E0401040EF420E26EE750E6
:103CB800DF6206D10001AD510E0D030EF326000E92
:103CC800F4220201000EF324D96E0201020EF42040
:103CD800DA6E0001AE51430D070EF326000EF422F2
:103CE8000401000EF324E16E0401040EF420E26ED8
:103CF800E750DF62E5D0000E0001AC6F2ED0000166
:103D0800AC51010D100EF326000EF422000E000136
:103D1800A96F040EAA6FF3500001A927F4500001FF
:103D2800AA230001AE51430DF3500001A925D96E15
:103D3800F4500001AA21DA6E01015651010D01016A
:103D48005A0EF324E16E0101010EF420E26EDFCF7A
:103D5800E7FF0101562B0001AC2B0001AE51430DCA
:103D68000F0EF326000EF4220401000EF324D96E80
:103D78000401040EF420DA6EDF500001AC5DD8A017
:103D8800BED70001AE51430D0E0EF326000EF422ED
:103D98000401000EF324D96E0401040EF420DA6E37
:103DA800DFA422D00101010E00019E6F0101D00E97
:103DB80000019D6F0001AD510E0D020EF326000E9D
:103DC800F4220201000EF32400019F6F0201020E8B
:103DD800F4200001A06F010E0001A16F0C0E00017C
:103DE800A26FE7EC4CF05AD0000E366E3650000148
:103DF800AB19FC0B0001AB19366E368A0001AE51C7
:103E0800430D0E0EF326000EF4220401000EF324D7
:103E1800D96E0401040EF420DA6E0401DFA602D084
:103E2800368601D036960001AD510E0D020EF326EE
:103E3800000EF4220201000EF324376E0201020E76
:103E4800F420386E010E396E010E3A6E0001AE5143
:103E5800430D040EF326000EF4220401000EF32491
:103E6800D96E0401040EF420DA6EDECF3BF0DDCF0C
:103E78003CF020EE36F010EE7EF0070EDECFE6FFC7
:103E8800E82EFCD70101010E0001866F01015A0ED0
:103E98000001856F56C187F084EC30F00001AE5107
:103EA800430D0E0EF326000EF4220401000EF32437
:103EB800D96E0401040EF420DA6E0401DF901200BA
:103EC8000001AE51430D0E0EF326000EF42204013C
:103ED800000EF324D96E0401040EF420DA6EDFB26A
:103EE8001DD10001AE51430D0E0EF326000EF42233
:103EF8000401000EF324D96E0401040EF420DA6ED6
:103F0800DFB80CD10001AD510E0D040EF326000EE2
:103F1800F4220201000EF3240001606F0201020E78
:103F2800F4200001616F0001AE51430D060EF32627
:103F3800000EF4220401000EF3240001626F040154
:103F4800040EF4200001636F73EC50F00009D8B43C
:103F5800E5D0000E0001AC6F2ED00001AC51010D70
:103F6800100EF326000EF422000E0001A96F040EB5
:103F7800AA6FF3500001A927F4500001AA230001F9
:103F8800AE51430DF3500001A925D96EF45000013C
:103F9800AA21DA6E01015651010D01015A0EF324CE
:103FA800E16E0101010EF420E26EDFCFE7FF0101AF
:103FB800562B0001AC2B0001AE51430D0F0EF3261A
:103FC800000EF4220401000EF324D96E0401040E3D
:103FD800F420DA6EDF500001AC5DD8A0BED7000136
:103FE800AE51430D0E0EF326000EF4220401000E0E
:103FF800F324D96E0401040EF420DA6EDFA422D073
:104008000101010E00019E6F0101D00E00019D6F9C
:104018000001AD510E0D040EF326000EF42202012C
:10402800000EF32400019F6F0201020EF42000012C
:10403800A06F010E0001A16F000E0001A26FE7EC56
:104048004CF05AD0000E366E36500001AB19FC0BFE
:104058000001AB19366E368A0001AE51430D0E0EC3
:10406800F326000EF4220401000EF324D96E040195
:10407800040EF420DA6E0401DFA602D0368601D0E1
:1040880036960001AD510E0D040EF326000EF422F3
:104098000201000EF324376E0201020EF420386E7E
:1040A800000E396E010E3A6E0001AE51430D040E3A
:1040B800F326000EF4220401000EF324D96E040145
:1040C800040EF420DA6EDECF3BF0DDCF3CF020EEBC
:1040D80036F010EE7EF0070EDECFE6FFE82EFCD7B6
:1040E8000101010E0001866F01015A0E0001856F62
:1040F80056C187F084EC30F00001AE51430D0E0E2E
:10410800F326000EF4220401000EF324D96E0401F4
:10411800040EF420DA6E0401DF9012000001AE2BC9
:10412800010E0001AE6572D5000E0001AE6FE6D03B
:104138000001AE51430D0E0EF326000EF4220401C9
:10414800000EF324D96E0401040EF420DA6EDFA009
:10415800D3D00001AE51430D0E0EF326000EF4220B
:104168000401000EF324D96E0401040EF420DA6E63
:10417800DFA2C2D0000E0001AC6F2ED00001AC51FE
:10418800010D100EF326000EF422000E0001A96F97
:10419800040EAA6FF3500001A927F4500001AA23C6
:1041A8000001AE51430DF3500001A925D96EF4501A
:1041B8000001AA21DA6E01015651010D01015A0EC2
:1041C800F324E16E0101010EF420E26EDFCFE7FF78
:1041D8000101562B0001AC2B0001AE51430D0F0E0F
:1041E800F326000EF4220401000EF324D96E040114
:1041F800040EF420DA6EDF500001AC5DD8A0BED703
:10420800000E366E36500001AB19FC0B0001AB19DD
:10421800366E0001AE51430D0E0EF326000EF42249
:104228000401000EF324D96E0401040EF420DA6EA2
:10423800DFA404D03650FC0B0109366E368A368E60
:104248000001AE51430D0E0EF326000EF4220401B8
:10425800000EF324D96E0401040EF420DA6E040172
:10426800DFA602D0368601D03696010E3A6E0001DE
:10427800A851D8B407D0010E396E0001AD510E0D0A
:10428800020E06D0000E396E0001AD510E0D040E5F
:10429800F326000EF4220201000EF324376E020109
:1042A800020EF420386E0001AE51430D040EF326C1
:1042B800000EF4220401000EF324D96E0401040E4A
:1042C800F420DA6EDECF3BF0DDCF3CF020EE36F0A6
:1042D80010EE7EF0070EDECFE6FFE82EFCD70101D8
:1042E800010E0001866F01015A0E0001856F56C14B
:1042F80087F084EC30F012000001AE2B010E0001B3
:10430800AE6516D70001A851D8B416D00101010E28
:1043180000019E6F0101D00E00019D6F0001A7C032
:10432800A0F00001A6C09FF0ABC0A1F00C0E0001E8
:10433800A26FE7EC4CF012000101010E00019E6F24
:104348000101D00E00019D6F0001A5C0A0F0000181
:10435800A4C09FF0ABC0A1F0040E0001A26FE7EC6F
:104368004CF0120081A0F28226A013D0800E010129
:104378004D5D000E01014E59D8A008D0000E010174
:104388004E6F000E01014D6F269003D001014D4B79
:104398004E2B3F68000E0001676F13D00001675174
:1043A800500D0301000EF324D96E0301030EF4200F
:1043B800DA6EDF50D8B403D067C03FF006D00001F2
:1043C800672B010E00016765E9D7020E3F5CD8B084
:1043D8008ED3010E0001686F3F50500D010EF32679
:1043E800000EF4220301000EF324D96E0301030E1C
:1043F800F420DA6EDF500001606F000160BD03D069
:10440800000E0001686F000E2B6E000E336E3F50D9
:10441800500D020EF326000EF4220301000EF324C1
:10442800D96E0301030EF420DA6EDF50CC0B0001C5
:10443800666FA1D23F50500D060EF326000EF422EF
:104448000301000EF324D96E0301030EF420DA6E83
:10445800FF0EDF6212D03F50500D070EF326000EFC
:10446800F4220301000EF324D96E0301030EF42095
:10447800DA6EFF0EDF6201D02B842B8E00016851AB
:10448800D8B43FD03F50500D040EF326000EF4224E
:104498000301000EF324D96E0301030EF420DA6E33
:1044A800DF50346E3F50500D050EF326000EF422F7
:1044B8000301000EF324D96E0301030EF420DA6E13
:1044C800DF50356E3F50500D080EF326000EF422D3
:1044D8000301000EF3242C6E0301030EF4202D6E4D
:1044E8003F50500D0301000EF324D96E0301030E53
:1044F800F420DA6EDF50ED0F306E3F50500D100E85
:104508002AD23F50500D080EF326000EF422030164
:10451800000EF324D96E0301030EF420DA6EDF5087
:10452800346E3F50500D090EF326000EF42203019D
:10453800000EF324D96E0301030EF420DA6EDF5067
:10454800356E3F50500D0A0EF326000EF42203017B
:10455800000EF3242C6E0301030EF4202D6E3F5041
:10456800500D0301000EF324D96E0301030EF4204D
:10457800DA6EDF50EB0F306E3F50500D120EEBD15C
:104588002B8E00016851D8B43FD03F50500D040E17
:10459800F326000EF4220301000EF324D96E030162
:1045A800030EF420DA6EDF50346E3F50500D050EC6
:1045B800F326000EF4220301000EF324D96E030142
:1045C800030EF420DA6EDF50356E3F50500D0E0E9C
:1045D800F326000EF4220301000EF3242C6E0301CF
:1045E800030EF4202D6E3F50500D0301000EF324EE
:1045F800D96E0301030EF420DA6EDF50E70F306E38
:104608003F50500D160EA7D13F50500D0E0EF326F9
:10461800000EF4220301000EF324D96E0301030EE9
:10462800F420DA6EDF50346E3F50500D0F0EF32633
:10463800000EF4220301000EF324D96E0301030EC9
:10464800F420DA6EDF50356E3F50500D100EF32611
:10465800000EF4220301000EF3242C6E0301030E56
:10466800F4202D6E3F50500D0301000EF324D96E37
:104678000301030EF420DA6EDF50E50F306E3F5071
:10468800500D180E68D12B842B8E010E336E3F50BF
:10469800500D040EF326000EF4220301000EF3243D
:1046A800D96E0301030EF420DA6EDF50346E3F50EA
:1046B800500D050EF326000EF4220301000EF3241C
:1046C800D96E0301030EF420DA6EDF50356E3F50C9
:1046D800500D060EF326000EF4220301000EF324FB
:1046E8002C6E0301030EF4202D6E3F50500D030174
:1046F800000EF324D96E0301030EF420DA6EDF50A6
:10470800F50F25D13F50500D060EF326000EF4226A
:104718000301000EF324D96E0301030EF420DA6EB0
:10472800FF0EDF6212D03F50500D070EF326000E29
:10473800F4220301000EF324D96E0301030EF420C2
:10474800DA6EFF0EDF6201D02B842B8E010E336EE2
:10475800000168673FD03F50500D080EF326000E49
:10476800F4220301000EF324D96E0301030EF42092
:10477800DA6EDF50346E3F50500D090EF326000EEE
:10478800F4220301000EF324D96E0301030EF42072
:10479800DA6EDF50356E3F50500D0A0EF326000ECC
:1047A800F4220301000EF3242C6E0301030EF420FF
:1047B8002D6E3F50500D0301000EF324D96E0301F6
:1047C800030EF420DA6EDF50F10F306E3F50500DBB
:1047D8000C0EC1D03F50500D040EF326000EF422EB
:1047E8000301000EF324D96E0301030EF420DA6EE0
:1047F800DF50346E3F50500D050EF326000EF422A4
:104808000301000EF324D96E0301030EF420DA6EBF
:10481800DF50356E3F50500D080EF326000EF4227F
:104828000301000EF3242C6E0301030EF4202D6EF9
:104838003F50500D0301000EF324D96E0301030EFF
:10484800F420DA6EDF50F30F306E3F50500D0A0E31
:1048580082D02B8E010E336E00016851D8B424D05B
:104868003F50500D040EF326000EF4220301000EF3
:10487800F324D96E0301030EF420DA6EDF50346E90
:104888003F50500D050EF326000EF4220301000ED2
:10489800F324D96E0301030EF420DA6EDF50356E6F
:1048A8003F50500D0D0E11D63F50500D0D0EF326F2
:1048B800000EF4220301000EF324D96E0301030E47
:1048C800F420DA6EDF50346E3F50500D0E0EF32692
:1048D800000EF4220301000EF324D96E0301030E27
:1048E800F420DA6EDF50356E3F50500D0F0E2CD687
:1048F8003F50500D060EF326000EF4220301000E61
:10490800F324D96E0301030EF420DA6EFF0EDF6282
:1049180012D03F50500D070EF326000EF42203016B
:10492800000EF324D96E0301030EF420DA6EFF0E95
:10493800DF6201D02B843F50500D0301000EF32499
:10494800D96E0301030EF420DA6EDF50F60F306ED5
:104958003F50500D080EF326000EF4220301000EFE
:10496800F3242E6E0301030EF4202F6E19D013ECDE
:1049780053F0000E120000016651080AD8B4B8D7E7
:10498800880AD8B480D6080AD8B4BCD6040AD8B4E1
:1049980060D7440AD8B44ED5040AD8B4F1D5E7D7BD
:1049A8003F50500D010EF326000EF4220301000EB5
:1049B800F324D96E0301030EF420DA6EDF500001F0
:1049C800606F000160A713D013EC53F0000E1200C3
:1049D800FC0E2B1630D02B50FC0B01092B6E2BD064
:1049E800030E2B1228D013EC53F0000E12003F5088
:1049F800500D010EF326000EF4220301000EF324DD
:104A0800D96E0301030EF420DA6EDF50070B0001A4
:104A1800606F616B00016151000AD8A4E4D70001FE
:104A28006051000AD8B4DCD7010AD8B4D1D7020A39
:104A3800D8B4D1D7D8D7FF0E0001606FFF0E616FD1
:104A48003F50500D0301000EF324D96E0301030EED
:104A5800F420DA6EDF500001626F636B0001605171
:104A6800000162270001615100016323000E00016B
:104A7800646F030E656F0001625100016427000135
:104A88006351000165233F50500DF3500001642528
:104A9800D96EF45000016521DA6EDF50326E3F5056
:104AA800500D0301000EF324D96E0301030EF42008
:104AB800DA6EDF500001606F3F50500D000E0001AC
:104AC800616F030E626FF35000016127F45000011B
:104AD80062230001605100016125D96E0001000EBA
:104AE80000016221DA6EDF50316E010E1200000EF5
:104AF8001200010E0101E16F8CEC53F0FD0E000174
:104B08008E6F4B0E00018D6F000E00018F6F010E2E
:104B18000001906F74EC4FF08EEC53F087EC51F07D
:104B2800000174C0DAF1000175C0DBF1D2C1C8F22E
:104B3800D3C1C9F2DCEC4FF060C0E6F161C0E7F127
:104B480062C0E8F163C0E9F1E6C1DCF1E7C1DDF17B
:104B5800E8C1DEF1E9C1DFF1C6D2DCEC4FF060C09C
:104B6800E2F161C0E3F162C0E4F163C0E5F19EECFB
:104B780044F00101E06F0101E005D8B405D001015E
:104B8800E051020AD8A48DD00B0E0101566F010125
:104B98005651010D01015A0EF324D96E0101010E7F
:104BA800F420DA6E010EDF6E0101562B000E99EC2F
:104BB80049F08CEC53F0FD0E00018E6F6A0E000177
:104BC8008D6F000E00018F6F010E0001906F74EC65
:104BD8004FF08EEC53F0DCEC4FF060C0E6F161C0B2
:104BE800E7F162C0E8F163C0E9F158D06CEC53F02A
:104BF8000009D8B40CD0040E25C1D9FF26C1DAFFAC
:104C0800DF6203D0000E0101E16F88EC53F001016F
:104C1800E6C1EDF00101E7C1EEF00101E8C1EFF0F6
:104C28000101E9C1F0F00001ED1FEE1FEF1FF01FB9
:104C3800ED2B000EEE23EF23F0230101E2510001DA
:104C4800ED250001F16F0101E3510001EE210001A2
:104C5800F26F0101E4510001EF210001F36F01013E
:104C6800E5510001F0210001F46FC10E0001F15D72
:104C7800C60EF2592D0EF359000E0001F459D8A0B2
:104C880003D0000E0101E16FDCEC4FF060C0E2F1EF
:104C980061C0E3F162C0E4F163C0E5F10101E167DD
:104CA800A5D70101DCC1EDF00101DDC1EEF0010184
:104CB800DEC1EFF00101DFC1F0F00001ED1FEE1FD2
:104CC800EF1FF01FED2B000EEE23EF23F023010161
:104CD800E2510001ED250001F16F0101E3510001EE
:104CE800EE210001F26F0101E4510001EF21000102
:104CF800F36F0101E5510001F0210001F46F810E0D
:104D08000001F15D840EF2591E0EF359000E0001E8
:104D1800F459D8A020D025500E0D0C0EF326000E05
:104D2800F4220201000EF324D96E0201020EF420CF
:104D3800DA6EDFAE02D0252A02D0000E256EACEC6A
:104D48003FF0DCEC4FF060C0DCF161C0DDF162C027
:104D5800DEF163C0DFF10101E6C1EDF00101E7C159
:104D6800EEF00101E8C1EFF00101E9C1F0F0000146
:104D7800ED1FEE1FEF1FF01FED2B000EEE23EF23AC
:104D8800F0230101E2510001ED250001F16F01015D
:104D9800E3510001EE210001F26F0101E45100012D
:104DA800EF210001F36F0101E5510001F02100013D
:104DB800F46FA10E0001F15D250EF259260EF3598C
:104DC800000E0001F459D8A07BD0DAC18AF0DBC10B
:104DD8008BF0D9EC3BF034EC52F068C0D7F169C0E5
:104DE800D8F16AC0D9F1000E0101506F000E01011F
:104DF8004F6FD7C160F0D8C161F0D9C162F0E0EC63
:104E080043F060C0EDF061C0EEF062C0EFF063C047
:104E1800F0F00001ED5101014F6F0101506B0B0ED5
:104E28000101566F01015651010D01015A0EF3247B
:104E3800D96E0101010EF420DA6E030EDF6E010156
:104E4800562B01015651010D01015A0EF324D96E5A
:104E58000101010EF420DA6E01014FC1DFFF0101EB
:104E6800562B01015651010D01015A0EF324D96E3A
:104E78000101010EF420DA6E0101D2C1DFFF010148
:104E8800562B01015651010D01015A0EF324D96E1A
:104E98000101010EF420DA6E0101D3C1DFFF010127
:104EA800562B4FC1CAF2000E99EC49F0DCEC4FF0DA
:104EB80060C0E6F161C0E7F162C0E8F163C0E9F102
:104EC8006CEC53F00009D8B40ED1010E25C1D9FFFE
:104ED80026C1DAFFDF622FD088EC53F00B0E0101F8
:104EE800566F01015651010D01015A0EF324D96E76
:104EF8000101010EF420DA6E040EDF6E0101562B5B
:104F0800000E0001DA6F000ED3EC40F0000E010134
:104F1800E16F8CEC53F0FD0E00018E6F6A0E0001FC
:104F28008D6F000E00018F6F010E0001906F74EC01
:104F38004FF08EEC53F0000E0101EA6FCED0010164
:104F4800EA510E0D0C0EF326000EF4220201000E9B
:104F5800F324D96E0201020EF420DA6EDFAEBBD064
:104F68000101EA510E0D020EF326000EF422020191
:104F7800000EF324D96E0201020EF420DA6E01014C
:104F880010EE02F001012551E12601012651E2222D
:104F9800E750DF62A0D00101EA510E0D030EF3269F
:104FA800000EF4220201000EF324D96E0201020E53
:104FB800F420DA6E010110EE03F001012551E1261B
:104FC80001012651E222E750DF6285D0030E25C198
:104FD800D9FF26C1DAFFDF627ED0010120EE01F0A1
:104FE80001012551D92601012651DA22010E0101BC
:104FF800EA250001606F0001616B000E6123000E5D
:105008000001636F030E0001626FE4EC51F0020EC1
:1050180000016027000E000161230201C80E000193
:105028006025E16E0201020E00016121E26EDFCF10
:10503800E7FF010120EE02F001012551D926010107
:105048002651DA22010E0101EA250001606F0001F4
:10505800616B000E6123000E0001636F030E0001F7
:10506800626FE4EC51F00201C80E00016025E16EA8
:105078000201020E00016121E26EDFCFE7FF0101AC
:1050880020EE03F001012551D92601012651DA222B
:10509800010E0101EA250001606F0001616B000E3D
:1050A8006123000E0001636F030E0001626FE4ECE0
:1050B80051F0010E00016027000E0001612302017A
:1050C800C80E00016025E16E0201020E0001612197
:1050D800E26EDFCFE7FF0101EA2B090E0101EA6565
:1050E8002ED788EC53F00101E16737D51200010E85
:1050F8000101E36F010E0101D86F000E0101E46F99
:10510800000E0101D96F000E0101D76F8CEC53F02E
:10511800FC0E00018E6FEB0E00018D6F000E00017A
:105128008F6F010E0001906F74EC4FF08EEC53F00E
:10513800DCEC4FF060C0DFF161C0E0F162C0E1F18A
:1051480063C0E2F192D2DCEC4FF060C0DAF161C0EA
:10515800DBF162C0DCF163C0DDF10101DFC1EDF01C
:105168000101E0C1EEF00101E1C1EFF00101E2C18E
:10517800F0F00001ED1FEE1FEF1FF01FED2B000EEA
:10518800EE23EF23F0230101DA510001ED250001A0
:10519800F16F0101DB510001EE210001F26F010105
:1051A800DC510001EF210001F36F0101DD51000125
:1051B800F0210001F46F810E0001F15D840EF259B7
:1051C8001E0EF359000E0001F459D8A061D143EC2A
:1051D80051F00101D851D8B4D7D0FE0E00018E6F1E
:1051E8003E0E00018D6F000E00018F6F010E000151
:1051F800906F74EC4FF00B0E0101566F0101565180
:10520800010D01015A0EF324D96E0101010EF4209B
:10521800DA6E020EDF6E0101562B01015651010DA7
:1052280001015A0EF324D96E0101010EF420DA6E41
:105238004D0EDF6E0101562B01015651010D010182
:105248005A0EF324D96E0101010EF420DA6E690EAC
:10525800DF6E0101562B01015651010D01015A0E55
:10526800F324D96E0101010EF420DA6E570EDF6EB9
:105278000101562B01015651010D01015A0EF3246B
:10528800D96E0101010EF420DA6E690EDF6E01019C
:10529800562B01015651010D01015A0EF324D96E06
:1052A8000101010EF420DA6E200EDF6E0101562B8B
:1052B80001015651010D01015A0EF324D96E010165
:1052C800010EF420DA6E520EDF6E0101562B010139
:1052D8005651010D01015A0EF324D96E0101010E38
:1052E800F420DA6E6F0EDF6E0101562B0101565164
:1052F800010D01015A0EF324D96E0101010EF420AB
:10530800DA6E630EDF6E0101562B01015651010D55
:1053180001015A0EF324D96E0101010EF420DA6E50
:105328006B0EDF6E0101562B01015651010D010173
:105338005A0EF324D96E0101010EF420DA6E730EB1
:10534800DF6E0101562B01015651010D01015A0E64
:10535800F324D96E0101010EF420DA6E210EDF6EFE
:105368000101562B000E0001DA6F01015151D3ECF7
:1053780040F00009D8A403D00101D92B03D0000EB6
:105388000101D96F000E78D00101D96761D0780E7C
:105398000101E46513D00101010E00016D6F0101E7
:1053A8008D0E00016C6FFF0E00016F6F790E00010A
:1053B8006E6F51EC18F08B84899C32D0790E010104
:1053C800E45DD8B016D03C0E0101E46512D00101AD
:1053D800010E00016D6F01018D0E00016C6FFF0E53
:1053E80000016F6F250E00016E6F51EC18F08B8471
:1053F80016D03D0E0101E45DD8B013D00101010EB5
:1054080000016D6F01018D0E00016C6FFF0E000130
:105418006F6FC70E00016E6F51EC18F08B94898C7A
:10542800899E0101010E00016D6F01019D0E0001B1
:105438006C6FFF0E00016F6FA90E00016E6F010106
:105448000001E4C170F00001716B51EC18F011D04B
:10545800FC0E00018E6F880E00018D6F000E00019A
:105468008F6F010E0001906F74EC4FF08B94899C44
:10547800898ECDEC4BF0010E0101D86FDCEC4FF0BA
:1054880060C0DFF161C0E0F162C0E1F163C0E2F148
:105498006CEC53F00009D8B44AD025C1D9FF26C115
:1054A800DAFFDF500101D76F0101D705D8A431D049
:1054B80088EC53F00B0E0101566F01015651010D96
:1054C80001015A0EF324D96E0101010EF420DA6E9F
:1054D800040EDF6E0101562B000E0001DA6F010188
:1054E8005151D3EC40F0000E0101E36F8CEC53F006
:1054F800FD0E00018E6F0B0E00018D6F000E000176
:105508008F6F010E0001906F74EC4FF08EEC53F02A
:105518000ED0020E25C1D9FF26C1DAFFDF6205D001
:1055280028C1E4F188EC53F002D088EC53F09EECEB
:1055380044F00101DE6F0101DE05D8B405D0010198
:10554800DE51020AD8A491D00B0E0101566F010159
:105558005651010D01015A0EF324D96E0101010EB5
:10556800F420DA6E010EDF6E0101562B000E0001E9
:10557800DA6F01015151D3EC40F08CEC53F0FD0E81
:1055880000018E6F0B0E00018D6F000E00018F6FF2
:10559800010E0001906F74EC4FF08EEC53F0DCECD0
:1055A8004FF060C0DFF161C0E0F162C0E1F163C0BB
:1055B800E2F158D06CEC53F00009D8B40CD0040ECA
:1055C80025C1D9FF26C1DAFFDF6203D0000E010131
:1055D800E36F88EC53F00101DFC1EDF00101E0C198
:1055E800EEF00101E1C1EFF00101E2C1F0F00001CC
:1055F800ED1FEE1FEF1FF01FED2B000EEE23EF2324
:10560800F0230101DA510001ED250001F16F0101DC
:10561800DB510001EE210001F26F0101DC510001B4
:10562800EF210001F36F0101DD510001F0210001BC
:10563800F46FC10E0001F15DC60EF2592D0EF3593B
:10564800000E0001F459D8A003D0000E0101E36F49
:10565800DCEC4FF060C0DAF161C0DBF162C0DCF174
:1056680063C0DDF10101E367A5D70101E3676BD5ED
:1056780012000001A851070B0001AD6F0001AD51E8
:10568800010121EED3F0DF624AD0800E0001A76548
:1056980015D0A5C069F0A6C06AF00001000E00018F
:1056A8006C6F0001A70E00016B6F010E00016D6F9A
:1056B800A9C06EF0000E68EC3AF01200000E366ECB
:1056C800368A0001A9B102D0369601D03686A7C025
:1056D800FDF0A8C0FEF0010E396E010E3A6E000111
:1056E800000E386E0001FD0E376ED0C13BF0D1C1FF
:1056F8003CF020EE36F010EE7EF0070EDECFE6FF2F
:10570800E82EFCD70101010E0001866F01015A0E37
:105718000001856F56C187F084EC30F01200ADC0EF
:10572800AAF0010E0001AB6F0001AA2B03D0000103
:10573800D890AB370001AA2FFAD70001AB5101016D
:1057480058150009D8B490D00001AD51010D0101E0
:105758002A0EF324D96E0101010EF420DA6E020E2E
:10576800DF6431D00001AD51010D01012A0EF3248F
:10577800D96E0101010EF420DA6E000EDF6EADC0A5
:10578800AAF0010E0001AB6F0001AA2B03D00001A3
:10579800D890AB370001AA2FFAD70001AB51FF0A06
:1057A800010158170001AD51010D0101320EF3241A
:1057B800D96E0101010EF420DA6E000EDF6EC1EC25
:1057C80046F0000E1200000E366E368A0001A9B1AE
:1057D80002D0369601D03686000E0001FD6FADC0AE
:1057E800FEF0010E396E010E3A6E0001000E386EA1
:1057F8000001FD0E376ED0C13BF0D1C13CF020EE68
:1058080036F010EE7EF0070EDECFE6FFE82EFCD76E
:105818000101010E0001866F01015A0E0001856F1A
:1058280056C187F084EC30F00009D8A40ED00001EE
:10583800AD51010D01012A0EF324D96E0101010EAB
:10584800F420DA6EDF2A000E12000001AD51010DBE
:1058580001012A0EF324D96E0101010EF420DA6E3B
:10586800000EDF6E010E1200000E0001AE6FF6D0C2
:105878000001AE51010D0101320EF324D96E010170
:10588800010EF420DA6EDF500001AA6FADC0ABF054
:10589800010E0001AC6F0001AB2B03D00001D890C2
:1058A800AC370001AB2FFAD70001AC510001AA15A3
:1058B8000009D8B4D1D00001AE51010D01012A0E62
:1058C800F324D96E0101010EF420DA6E020EDF64B2
:1058D80072D00001AE51010D01012A0EF324D96ED8
:1058E8000101010EF420DA6E000EDF6EAEC0AAF0E0
:1058F800010E0001AB6F0001AA2B03D00001D89064
:10590800AB370001AA2FFAD70001AB51FF0A0101FA
:1059180058170001AE51010D0101320EF324D96E62
:105928000101010EF420DA6E000EDF6E0001FC5159
:10593800D8B403D0C1EC46F03CD0000E0101566F3C
:1059480001015651010D01015A0EF324D96E0101CE
:10595800010EF420DA6E070EDF6E0101562B0101ED
:105968005651010D01015A0EF324D96E0101010EA1
:10597800F420DA6E0001FFC0DFFF0101562B0101A0
:10598800D4690101D5690101010E00019E6F010171
:10599800D40E00019D6F000E0001A06F000E0001E3
:1059A8009F6F010E0001A16F000E0001A26FE7ECCE
:1059B8004CF0000E1200000E366E368A0001A9B1B6
:1059C80002D0369601D03686000E0001FD6FAEC0BB
:1059D800FEF0010E396E010E3A6E0001000E386EAF
:1059E8000001FD0E376ED0C13BF0D1C13CF020EE76
:1059F80036F010EE7EF0070EDECFE6FFE82EFCD77D
:105A08000101010E0001866F01015A0E0001856F28
:105A180056C187F084EC30F00009D8A40ED00001FC
:105A2800AE51010D01012A0EF324D96E0101010EB8
:105A3800F420DA6EDF2A000E12000001AE51010DCB
:105A480001012A0EF324D96E0101010EF420DA6E49
:105A5800000EDF6E010E12000001AE2B070E0001D2
:105A6800AE6506D70001FC51020AD8B46FD0000E0B
:105A7800366E368A0001A9B102D0369601D0368634
:105A88000001FC05D8B42DD0000E0001AE6F1BD06C
:105A980001015851D8B415D0AEC0AAF0010E0001CA
:105AA800AB6FAC6B0001AA2B04D0D8900001AB37C8
:105AB800AC370001AA2FF9D70001AC51AB11D8A41B
:105AC80006D00001AE2B070E0001AE65E1D7080E27
:105AD8000001AE5DD8B005D0AEC0FEF0000E0001EA
