:0400000002EF01F01A
:10000800FACF0EF0FBCF0FF0E9CF10F0EACF11F0E6
:10001800E1CF12F0E2CF13F0D9CF14F0DACF15F018
:10002800F3CF16F0F4CF17F0F6CF18F0F7CF19F09A
:10003800F8CF1AF0F5CF1BF0F2B8F2A2B7D0F292CF
:10004800620EECEC63F01D6E1DA012D0239023BC51
:10005800239C000E0101236F000E0101226F23A2D1
:1000680007D0480EECEC63F01C6E1CB0238423927E
:100078001DA695D01F68000E206E11D02050500D7F
:100088000401000EF324D96E0401040EF420DA6E84
:10009800DF50D8A403D020C01FF004D0202A010EBE
:1000A8002064ECD7020E1F5CD8B074D0040E036E27
:1000B800730E01EC64F01F50500D0401000EF32480
:1000C800D96E0401040EF420DA6E030E046E000EDD
:1000D800036E3DEC62F0020FDF6E1F50500D0401FD
:1000E800000EF324D96E0401040EF420DA6EDF50FA
:1000F800096E4F0E095CD8B042D0238A010E206EDB
:100108001AD01F50500D000E096E040E0A6EF350DF
:100118000926F4500A2220500924D96E000E0A201C
:10012800DA6E000E2024036E046A030E04223DECEE
:1001380062F0DF6E202A2050096E0A6A1F50500DA7
:100148000401000EF324D96E0401040EF420DA6EC3
:10015800DF500B6E0C6A020E0B26000E0C220C50A0
:10016800800A0D6E09500B5C0A50800A0D58D8B0F1
:10017800C8D7010E036E1B0E01EC64F005D0010E0A
:10018800036E1B0E01EC64F0000E036E730E01EC9F
:1001980064F005D0010E036E1B0E01EC64F01DA87F
:1001A80005D0800E036E590E01EC64F09EB09DA040
:1001B80006D09E90272A276602D00101322B9DEC9B
:1001C80064F01BC0F5FF1AC0F8FF19C0F7FF18C08C
:1001D800F6FF17C0F4FF16C0F3FF15C0DAFF14C00E
:1001E800D9FF13C0E2FF12C0E1FF11C0EAFF10C03F
:1001F800E9FF0FC0FBFF0EC0FAFF1100FAEF5DF038
:100208007DEC35F00009D8B478EF1AF025B4120067
:10021800000E0101006F28A404D00001AF6BAF2BC2
:1002280002D00001AF6B010100510001AF19FC0BB6
:10023800AF190101006F28A603D00101008702D081
:10024800010100972850030B0001AF6F0001AF05B3
:10025800D8A402D0010E01D0000E0001B06F000139
:10026800B03BB047010100510001B019DF0BB019D4
:100278000101006F28AE03D00101008D02D00101F9
:10028800009D28AE0DD030B003D00101009F02D0F0
:100298000101008F01012AC005F1010129C004F103
:1002A80031C002F132C003F12FC00AF12EC009F1AA
:1002B800259468EF1AF00A0E2D5CD8A075EF1AF095
:1002C80020EE02F02B50D9262C50DA22DF50000104
:1002D800D16F20EE03F02B50D9262C50DA22DF50B4
:1002E8000001D26F20EE04F02B50D9262C50DA22D0
:1002F800DF500001E06F20EE05F02B50D9262C507E
:10030800DA22DF500001E16F20EE06F02B50D926EB
:100318002C50DA22DF500001D56F20EE07F02B5069
:10032800D9262C50DA22DF500001D66F20EE08F0D3
:100338002B50D9262C50DA22DF500001E56F20EE31
:1003480009F02B50D9262C50DA22DF500001E66F35
:1003580028A603D00101008702D0010100970101FE
:100368000051030B0009D8A408D0FD0E0001E05D80
:10037800FF0E0001E159D8A004D20101A1510001EA
:10038800E61904E10101A0510001E519D8A40CD037
:1003980001019F510001D61904E101019E5100019C
:1003A800D519D8B475EF1AF0000E0001E86F44D0E3
:1003B8000001E851080D030EF326000EF422020195
:1003C800000EF324D96E0201020EF420DA6EDF501B
:1003D800D8B430D00001E851080D0201000EF32412
:1003E800D96E0201020EF420DA6E0001DE5200011D
:1003F800E651DD180001E5C0E8FFD8B4DF18D8A43D
:1004080019D00001E851080D020EF326000EF4225F
:100418000201000EF324D96E0201020EF420DA6EF6
:1004280010EE0AF02B50E1262C50E222E750DF6252
:1004380001D006D00001E82B040E0001E865B8D70A
:10044800050E0001E85DD8A075EF1AF0000E000156
:10045800E86F14D00001E851080D030EF326000ED2
:10046800F4220201000EF324D96E0201020EF420D8
:10047800DA6EDF50D8B406D00001E82B040E000174
:10048800E865E8D7050E0001E85DD8B05CD000014A
:10049800E851080D0201000EF324D96E0201020E84
:1004A800F420DA6E0001E5C0DEFF0001E6C0DDFFE2
:1004B80020EE0AF02B50D9262C50DA220001E85100
:1004C800080D020EF326000EF4220201000EF3249A
:1004D800E16E0201020EF420E26EDFCFE7FF0001B9
:1004E800E851080D030EF326000EF4220201000E57
:1004F800F324D96E0201020EF420DA6E030EDF6EC9
:10050800F9EC60F060C0AFF061C0B0F062C0B1F06B
:1005180063C0B2F00001E851080D040EF326000E86
:10052800F4220201000EF324D96E0201020EF42017
:10053800DA6EAFC0DEFFB0C0DEFFB1C0DEFFB2C012
:10054800DDFFD906D9060001E029D8B4E129D8A4ED
:1005580005D001010051FC0B010916D00001E12969
:10056800FE0ED8B4E019D8A404D0030E010100137C
:100578000DD00001E129FD0ED8B4E019D8A406D0A9
:1005880001010051FC0B02090101006F2BC0D9FFCA
:100598002CC0DAFF010EDF6481D12BC0D9FF2CC03B
:1005A800DAFFDF0626A015D023EE44F010EE7EF029
:1005B800070EDECFE6FFE82EFCD70301030E00018D
:1005C800866F03014D0E0001856F4CC387F0D4EC94
:1005D80043F0000E03014C6F000E0001E86F1AD0C3
:1005E8000001E851010DF3502B24D96EF4502C2052
:1005F800DA6E03014C51010D03014D0EF324E16E37
:100608000301030EF420E26EDFCFE7FF03014C2B5A
:100618000001E82B2D500001E85DD8A0E1D728C0E3
:1006280044F330C048F331C049F332C04AF3F9EC1F
:1006380060F060C040F361C041F362C042F363C040
:1006480043F30001D6CF60F00001616B000E00019A
:10065800636F640E0001626F84EC5CF0000160510E
:1006680003014B6F26800001E029D8B4E129D8A402
:1006780015D12BC0D9FF2CC0DAFF010EDF640ED1D3
:10068800000E0001E86F35D00001E8510E0D0C0E88
:10069800F326000EF4220201280EF324D96E02017B
:1006A800020EF420DA6EDFAE22D00001E8510E0D02
:1006B8000C0EF326000EF4220201280EF324D96E44
:1006C8000201020EF420DA6EDFB011D00001E85109
:1006D8000E0D0C0EF326000EF4220201280EF32450
:1006E800D96E0201020EF420DA6EDFBA06D00001DC
:1006F800E82B090E0001E865C7D70A0E0001E85D7E
:10070800D8B0CCD02BC0D9FF2CC0DAFFDF062DC063
:100718002EF1000E0001C56F18D00001C551010D62
:10072800F3502B24D96EF4502C20DA6E0001C551F9
:10073800010D0101330EF324E16E0101010EF420D5
:10074800E26EDFCFE7FF0001C52B01012E5100014A
:10075800C55DD8A0E2D7D1C069F0D2C06AF0000E5A
:1007680000016C6F000E00016B6F000E00016D6FD1
:10077800000E28B6010E00016E6F010E78EC51F0E4
:100788008DD001019F510001D21904E101019E5150
:100798000001D119D8A487EF0FF00101A151000180
:1007A800E11904E10101A0510001E019D8A487EF83
:1007B8000FF020EE01F02B50D9262C50DA22DF5012
:1007C8000001AF6F0001AFA569D040C033F1020E40
:1007D8000101346FD5C035F1D6C036F1E5C037F127
:1007E800E6C038F19EC139F19FC13AF1A0C13BF191
:1007F800A1C13CF120EE0AF02B50D9262C50DA2268
:10080800DF5001013D6F000E01013E6F300E010106
:100818003F6F0D0E01012E6F0001E6510101A11974
:10082800D8B40ED0D5C09DF0D6C09EF0E5C09FF0DC
:10083800E6C0A0F0000E0001A16F55EC46F02CD0E8
:10084800000E01018A6F01018A8B010E01018D6F73
:10085800010E01018E6F0001000E01018C6F000175
:10086800E50E01018B6FD5C08FF1D6C090F121EE56
:100878008AF010EE7EF0070EDECFE6FFE82EFCD7FA
:100888000101010E0001866F0101330E0001856F21
:100898002EC187F0D4EC43F00101008520EE0BF067
:1008A8002B50D9262C50DA22DF50D8A433EF0FF082
:1008B80020EE0CF02B50D9262C50DA22DF50300ACB
:1008C800D8A4E0EF0EF017EF0FF0010166B373D074
:1008D800F9EC60F060C07DF161C07EF162C07FF12B
:1008E80063C080F120EE08F02B50D9262C50DA2274
:1008F800DF500101686F20EE09F02B50D9262C50EB
:10090800DA22DF500101696F000E0001E76F21D084
:100918000001E7510001AF6FB06B0D0E0001AF276A
:10092800000EB0230001AF512B24D96E0001B05145
:100938002C20DA6E0001E751010D01016A0EF32443
:10094800E16E0101010EF420E26EDFCFE7FF000146
:10095800E72B070E0001E765DBD70101668301017C
:100968006691000E0001E76F0001E751D8A475EF0A
:100978001AF00001E7510001AF6FB06B150E0001CE
:10098800AF27000EB0230001AF512B24D96E000110
:10099800B0512C20DA6E0001E751010D0101720EF1
:1009A800F324E16E0101010EF420E26EDFCFE7FFD0
:1009B8000001E72BD9D70101685120EE2BF010EE8A
:1009C80008F0DE50E126DD50E222E7620ED0010198
:1009D800695120EE2BF010EE09F0DE50E126DD50D3
:1009E800E222E76202D075EF1AF00101695168113D
:1009F800D8A4CED0000E0001E76F39D00001E7512E
:100A08000001AF6FB06B0D0E0001AF27000EB023D1
:100A18000001AF512B24D96E0001B0512C20DA6EA1
:100A28000001E751010D0101750EF324E16E01018A
:100A3800010EF420E26EDFCFE7FF0001E751010D60
:100A48000101750EF324D96E0101010EF420DA6E4E
:100A58000001E751010D01010B0EF324E16E0101C4
:100A6800010EF420E26EDFCFE7FF0001E72B070E4F
:100A78000001E765C3D720EE08F02B50D9262C508B
:100A8800DA22DF500101736F20EE09F02B50D926CE
:100A98002C50DA22DF500101746F73C139F074C130
:100AA8003AF09EC1B2F19FC1B3F145EC5EF001018D
:100AB800676F01016729D8A436D18D0E0101316F06
:100AC80039AE02D001013191D6EC59F00101676FBE
:100AD80001016729D8B427D1000E0001E76F000192
:100AE800E751D8A434D00001E7510001AF6FB06BD3
:100AF800150E0001AF27000EB0230001AF512B24C3
:100B0800D96E0001B0512C20DA6E0001E751010DB9
:100B18000D0EF326000EF422280E0001B16F020E0E
:100B2800B26FF3500001B127F4500001B223010164
:100B380067510E0DF3500001B125E16EF45000012C
:100B4800B221E26EDFCFE7FF0001E72BC8D7010132
:100B580067510E0D0201280EF3240001626F020195
:100B6800020EF4200001636F010167510E0D33502E
:100B7800F3240001646F3450F4200001656F000E07
:100B88000001676F0E0E0001666FD5EC5AF0CBD0EE
:100B98000B0E01012E6F01012E51010D0101330EC3
:100BA800F324D96E0101010EF420DA6E000EDF6E17
:100BB80001012E2B01012E51010D0101330EF324E9
:100BC800D96E0101010EF420DA6E110EDF6E0101FB
:100BD8002E2B000E0001E76F3BD00001E75100010A
:100BE800AF6FB06B0D0E0001AF27000EB0230001F0
:100BF800AF512B24D96E0001B0512C20DA6E0001C0
:100C0800E751010D0101750EF324E16E0101010E9A
:100C1800F420E26EDFCFE7FF0001E751010D01018B
:100C2800750EF324D96E0101010EF420DA6E01016C
:100C38002E51010D0101330EF324E16E0101010E65
:100C4800F420E26EDFCFE7FF01012E2B0001E72B36
:100C5800070E0001E765C1D720EE08F02B50D92612
:100C68002C50DA22DF500101736F20EE09F02B506F
:100C7800D9262C50DA22DF500101746F01012E5160
:100C8800010D0101330EF324D96E0101010EF42088
:100C9800DA6E010173C1DFFF01012E2B01012E5114
:100CA800010D0101330EF324D96E0101010EF42068
:100CB800DA6E010174C1DFFF01012E2B000E000165
:100CC800E76F0001E751D8A424D00001E7510001E3
:100CD800AF6FB06B150E0001AF27000EB0230001F7
:100CE800AF512B24D96E0001B0512C20DA6E0101CE
:100CF8002E51010D0101330EF324E16E0101010EA5
:100D0800F420E26EDFCFE7FF01012E2B0001E72B75
:100D1800D8D70101010E0001AA6F0101680E000178
:100D2800A96FD6EC5EF0010166830101668175EF5B
:100D38001AF03E50020AD8A475EF1AF020EE0DF012
:100D48002B50D9262C50DA22DF50D8A4F5D10B0E1F
:100D580001012E6F01012E51010D0101330EF32403
:100D6800D96E0101010EF420DA6E000EDF6E01016A
:100D78002E2B01012E51010D0101330EF324D96EE2
:100D88000101010EF420DA6EA10EDF6E01012E2B97
:100D9800000E0001E86F42D00001E8510001AF6F7A
:100DA800B06B0E0E0001AF27000EB0230001AF514B
:100DB8002B24D96E0001B0512C20DA6E0001E851C5
:100DC800010D01010B0EF324E16E0101010EF42067
:100DD800E26EDFCFE7FF0001E8510001AF6FB06BB3
:100DE8000E0E0001AF27000EB0230001AF512B24D7
:100DF800D96E0001B0512C20DA6E01012E51010D7F
:100E08000101330EF324E16E0101010EF420E26EBC
:100E1800DFCFE7FF01012E2B0001E82B070E0001B1
:100E2800E865BAD7B0EC5BF00001E36F0001E32995
:100E3800D8A4C5D0000E396E010E0001E86F0CD0A1
:100E4800E8C03AF045EC5EF00001E36F0001E329E9
:100E5800D8B406D00001E82B1F0E0001E865F0D7D2
:100E6800200E0001E85DD8B09CD00001E851010DCA
:100E78000201D50EF324D96E0201020EF420DA6EB7
:100E88000001E6C0DFFF01012E51010D0101330E03
:100E9800F324D96E0101010EF420DA6E0001E8C0D6
:100EA800DFFF01012E2B9D0E0101316F9EC1B2F1B2
:100EB8009FC1B3F1D6EC59F00001E36F0A0E0001AF
:100EC800E35DD8B061D0000E0001E86F0001E85181
:100ED800D8A434D00001E8510001AF6FB06B160EF2
:100EE8000001AF27000EB0230001AF512B24D96EAB
:100EF8000001B0512C20DA6E0001E851010D0D0EF1
:100F0800F326000EF422280E0001B16F020EB26F14
:100F1800F3500001B127F4500001B2230001E3515E
:100F28000E0DF3500001B125E16EF4500001B2211D
:100F3800E26EDFCFE7FF0001E82BC8D70A0E0001F9
:100F4800E35DD8B0D4D00001E3510E0D0201280EA4
:100F5800F3240001626F0201020EF4200001636FA6
:100F68000001E3510E0D3350F3240001646F345037
:100F7800F4200001656F000E0001676F0E0E00017E
:100F8800666FD5EC5AF0B3D00001E851010D0201AB
:100F9800D50EF324D96E0201020EF420DA6EFF0E8C
:100FA800DF6E01012E51010D0101330EF324D96EBC
:100FB8000101010EF420DA6EFF0EDF6E83D000010E
:100FC800E3510E0D020EF326000EF4220201280E44
:100FD800F324D96E0201020EF420DA6EDF50D8A491
:100FE80074D0E6C0C8F02CD00001C851010D020130
:100FF800D50EF324D96E0201020EF420DA6E000138
:10100800E3510E0D030EF326000EF4220201280E02
:10101800F324E16E0201020EF420E26EE750DF6273
:1010280001D011D00001C851010D0201D50EF324E1
:10103800D96E0201020EF420DA6EDF500001C86F8B
:101048000001C867D1D70001C86720D00001E3516B
:101058000E0D030EF326000EF4220201280EF324CF
:10106800D96E0201020EF420DA6EDF500001AF6F74
:101078000001AF51010D0201D50EF324D96E020112
:10108800020EF420DA6E0001E6C0DFFF0001E35132
:101098000E0D030EF326000EF4220201280EF3248F
:1010A800D96E0201020EF420DA6E01012E51010DF3
:1010B8000101330EF324E16E0101010EF420E26E0A
:1010C800DFCFE7FF01012E2B12D00001E3510E0DF7
:1010D8000C0EF326000EF4220201280EF324D96E1A
:1010E8000201020EF420DA6E000EDF6EA3D60001B4
:1010F800000E0001AA6F0001E50E0001A96FD6ECF1
:101108005EF02650F10B0609266EF9EC60F060C01F
:1011180013F161C014F162C015F163C016F1900EAD
:101128000101135FD00E0101145B030E0101155B71
:10113800000E0101165BACD2000E0001E86F21D051
:101148000001E8510001AF6FB06B0E0E0001AF2730
:10115800000EB0230001AF512B24D96E0001B0510D
:101168002C20DA6E0001E851010D01010B0EF32469
:10117800E16E0101010EF420E26EDFCFE7FF00010E
:10118800E82B070E0001E865DBD7B0EC5BF0000147
:10119800E36F0001E329D8B475EF1AF01F0E0001C0
:1011A800E86F77D0E8C0C9F0000E0001BB6F6CD0C3
:1011B8000001C951010D0201D50EF324D96E0201B7
:1011C800020EF420DA6EFF0EDF6201D060D000015B
:1011D800C951010D0201D50EF324D96E0201020E88
:1011E800F420DA6E0001E3510E0D030EF326000E13
:1011F800F4220201280EF324E16E0201020EF4200B
:10120800E26EE750DF622BD00001E851010D0201C8
:10121800D50EF324D96E0201020EF420DA6EFF0E09
:10122800DF6E000E396EE8C03AF045EC5EF0000162
:10123800BC6F0001BC29D8B42AD00001BC510E0DE6
:101248000C0EF326000EF4220201280EF324D96EA8
:101258000201020EF420DA6E000EDF6E18D00001D3
:10126800C951010D0201D50EF324D96E0201020EF7
:10127800F420DA6EDF500001C96F0001BB2B210E8C
:101288000001BB6501D003D00001C96791D70001F7
:10129800E8070001E86786D70001E3510E0D030E49
:1012A800F326000EF4220201280EF324D96E02015F
:1012B800020EF420DA6EDF500001AF6F0001AF516B
:1012C800010D0201D50EF324D96E0201020EF4209D
:1012D800DA6EFF0EDF6E0001E3510E0D0C0EF326E1
:1012E800000EF4220201280EF324D96E0201020E28
:1012F800F420DA6E000EDF6E0001E3510E0D0201DC
:10130800280EF3240001626F0201020EF42000018E
:10131800636F0001E3510E0D3350F3240001646F35
:101328003450F4200001656F000E0001676F0E0E47
:101338000001666FD5EC5AF02650F10B0609266EAF
:10134800F9EC60F060C013F161C014F162C015F1EE
:1013580063C016F1900E0101135FD00E0101145BFA
:10136800030E0101155B000E0101165B75EF1AF003
:10137800000E0001C16F000E0001E86F21D00001CE
:10138800E8510001AF6FB06B0D0E0001AF27000EE2
:10139800B0230001AF512B24D96E0001B0512C208D
:1013A800DA6E0001E851010D01010B0EF324E16E24
:1013B8000101010EF420E26EDFCFE7FF0001E82B08
:1013C800070E0001E865DBD7BF0E0101316FFF0E84
:1013D80020EE2BF010EE15F0DE50E126DD50E22273
:1013E800E76242D0B0EC5BF00001D06F0A0E00015A
:1013F800D05DD8B075EF1AF0A1C13AF0010E000126
:10140800CA6F000E0001E86F1AD0CAC039F045EC67
:101418005EF00001AF6F0001AF29D8A40CD0000125
:10142800CA51800F396E45EC5EF00001AF6F0001C4
:10143800AF29D8B408D00001CA2B0001E82B090E47
:101448000001E865E2D70A0E0001E85DD8B016D0C1
:10145800800E0001CA5DD8B003D0CAC039F00ED0E2
:10146800010E0001C16F0AD0000E396E20EE15F092
:101478002B50D9262C50DA22DF503A6E9EC1B2F199
:101488009FC1B3F1D6EC59F00001D06F020E0101F3
:10149800336F39C034F13AC035F1C1C036F1000EAE
:1014A8000001E86F0001E851D8A422D00001E851FA
:1014B800010D220EF324D96E000EF420DA6E00011D
:1014C800E8510001AF6FB06B040E0001AF27000EAA
:1014D800B0230101330E0001AF25E16E0101010EB9
:1014E8000001B021E26EDFCFE7FF0001E82BDAD779
:1014F800050E01012E6F0101010E00019E6F010111
:101508009E0E00019D6F0001D0510E0D040EF326B2
:10151800000EF4220201280EF32400019F6F02013D
:10152800020EF4200001A06F010E0001A16F000E51
:101538000001A26F1BEC5CF00A0E0001D05DD8B070
:1015480075EF1AF00001D0510E0D0201280EF32498
:101558000001626F0201020EF4200001636F0001B6
:10156800D0510E0D3350F3240001646F3450F42031
:101578000001656F000E0001676F0E0E0001666FB7
:10158800D5EC5AF075EF1AF00B0E01012E6F010120
:101598002E51010D0101330EF324D96E0101010E04
:1015A800F420DA6E000EDF6E01012E2B01012E51A0
:1015B800010D0101330EF324D96E0101010EF4204F
:1015C800DA6EA30EDF6E01012E2B000E0001E86F0C
:1015D8001CD00001E851010D0201D50EF324D96E8B
:1015E8000201020EF420DA6E01012E51010D0101F3
:1015F800330EF324E16E0101010EF420E26EDFCF19
:10160800E7FF01012E2B0001E82B1F0E0001E86502
:10161800E0D70001000E0001AA6F0001E50E0001ED
:10162800A96FD6EC5EF075EF1AF0000E0001E86FB6
:1016380021D00001E8510001AF6FB06B0D0E000121
:10164800AF27000EB0230001AF512B24D96E000143
:10165800B0512C20DA6E0001E851010D0201D50EBF
:10166800F324E16E0201020EF420E26EDFCFE7FF01
:101678000001E82B1F0E0001E865DBD7F9EC60F0EC
:1016880060C013F161C014F162C015F163C016F1B6
:1016980001012C8175EF1AF020EE2EF0030EDF64A5
:1016A80075EF1AF00D0E0001C26F0001C251010D55
:1016B800F3502B24D96EF4502C20DA6EDF50000141
:1016C800C36F000E0001E86F35D00001E85100013A
:1016D800C2C0AFF00001B06B0001AF27000EB0230D
:1016E800010E0001AF27000EB0230001AF512B24DB
:1016F800D96E0001B0512C20DA6E0001E651040DBC
:10170800000E0001B16F060EB26FF3500001B12751
:10171800F4500001B2230001E851010DF35000011B
:10172800B125E16EF4500001B221E26EDFCFE7FF90
:101738000001E82B030E0001E865C7D720EE01F091
:101748002950D9262A50DA22DF500001AF6F070E40
:101758000001AF17010E0001B06F0001AF2B03D0DD
:101768000001D890B0370001AF2FFAD720EE01F072
:101778002950D9262A50DA22DF500001B16F000122
:10178800B1510001606F0001616B000E0001636FD1
:10179800080E0001626F64EC5AF00101910E00011D
:1017A8006025D96E0101010E00016121DA6E000188
:1017B800B051DF120001C35120EE29F010EE01F004
:1017C800DE50E126DD50E222E76297D026A016D04F
:1017D80023EE44F010EE7EF0070EDECFE6FFE82E93
:1017E800FCD70301030E0001866F03014D0E0001B3
:1017F800856F4CC387F0D4EC43F02690010E0301AB
:101808004D6F020E03014E6F9EC14FF39FC150F3FF
:10181800FD0E0301516F030152699EC153F39FC12D
:1018280054F3A0C155F3A1C156F324C057F3242A99
:10183800000E0301586FA40E0301596F0D0E03012A
:101848004C6F03014C51010D03014D0EF324D96E69
:101858000301030EF420DA6E0001C3C0DFFF0301A9
:101868004C2B000E0001E86F1CD00001E851010D5F
:101878000101910EF324D96E0101010EF420DA6EF4
:1018880003014C51010D03014D0EF324E16E0301D8
:10189800030EF420E26EDFCFE7FF03014C2B0001BB
:1018A800E82B030E0001E865E0D7000E0301446F42
:1018B80003014485010E0301486F9EC149F39FC18E
:1018C8004AF30001D6CF60F00001616B000E000101
:1018D800636F640E0001626F84EC5CF0000160517C
:1018E80003014B6FF9EC60F060C040F361C041F355
:1018F80062C042F363C043F3268001012C830101D7
:101908002C85F9EC60F060C013F161C014F162C07D
:1019180015F163C016F175EF1AF0000E0001DB6FC8
:1019280021D00001DB510001AF6FB06B0D0E00013B
:10193800AF27000EB0230001AF512B24D96E000150
:10194800B0512C20DA6E0001DB51010D01010B0EA4
:10195800F324E16E0101010EF420E26EDFCFE7FF10
:101968000001DB2B070E0001DB65DBD78D0E0101C3
:10197800316F20EE15F02B50D9262C50DA22DF508B
:101988000001AF6F0001AFAF02D00101319120EE2D
:1019980015F02B50D9262C50DA22DF50396E20EE64
:1019A80016F02B50D9262C50DA22DF503A6E9EC101
:1019B800B2F19FC1B3F145EC5EF00101676F01011F
:1019C8006729D8B417D0010167510E0D0C0EF32604
:1019D800000EF4220201280EF324D96E0201020E31
:1019E800F420DA6EDF500101316F01013185010108
:1019F800318707D08D0E0101316F39AE02D0010158
:101A08003191D6EC59F00101676F01016729D8B40B
:101A18005ED0000E0001DB6F0001DB51D8A434D08A
:101A28000001DB510001AF6FB06B170E0001AF274B
:101A3800000EB0230001AF512B24D96E0001B05124
:101A48002C20DA6E0001DB51010D0D0EF326000E7D
:101A5800F422280E0001B16F020EB26FF35000019C
:101A6800B127F4500001B223010167510E0DF35064
:101A78000001B125E16EF4500001B221E26EDFCF22
:101A8800E7FF0001DB2BC8D7010167510E0D0201EA
:101A9800280EF3240001626F0201020EF4200001F7
:101AA800636F010167510E0D3350F3240001646F19
:101AB8003450F4200001656F000E0001676F0E0EB0
:101AC8000001666FD5EC5AF00101668102D0010170
:101AD80066910101669375EF1AF020EE0DF02B5018
:101AE800D9262C50DA22DF500001CC6F20EE0EF000
:101AF8002B50D9262C50DA22DF500001CD6F20EE72
:101B08000FF02B50D9262C50DA22DF500001CE6F6F
:101B180020EE10F02B50D9262C50DA22DF5000018D
:101B2800CF6F92EC64F026BE75EF1AF0268E75EF33
:101B38001AF020EE0DF02B50D9262C50DA22DF5067
:101B48000101826F20EE0EF02B50D9262C50DA229C
:101B5800DF500101836F20EE0FF02B50D9262C5057
:101B6800DA22DF500101846F20EE10F02B50D926C5
:101B78002C50DA22DF500101856F000E0101816FC0
:101B880001018181F9EC60F060C086F161C087F1E4
:101B980062C088F163C089F175EF1AF020EE0DF08C
:101BA8002B50D9262C50DA22DF500001AF6F0001EC
:101BB800AF51010D0301000EF324D96E0301030E8A
:101BC800F420DA6E300EDF6475EF1AF00B0E0101A7
:101BD8002E6F01012E51010D0101330EF324D96E30
:101BE8000101010EF420DA6E000EDF6E01012E2BCA
:101BF80001012E51010D0101330EF324D96E0101AB
:101C0800010EF420DA6EB30EDF6E01012E2B20EEEA
:101C18000DF02B50D9262C50DA2201012E51010D3E
:101C28000101330EF324E16E0101010EF420E26E8E
:101C3800DFCFE7FF01012E2B000E3A6E000E396E42
:101C4800000E0001AA6F390E0001A96FD6EC5EF0F4
:101C580075EF1AF020EE0DF02B50D9262C50DA2211
:101C6800DF500001AF6F01018131E832E8321F0B0C
:101C78000001AF19D8A475EF1AF00101818575EF3D
:101C88001AF020EE0DF02B50D9262C50DA22DF5016
:101C98003C18D8A475EF1AF0000E01012E6F40C051
:101CA80033F1020E0101346F9EC135F19FC136F147
:101CB80020EE08F02B50D9262C50DA22DF500101F3
:101CC800376F20EE09F02B50D9262C50DA22DF503E
:101CD8000101386F9EC139F19FC13AF1A0C13BF1B2
:101CE800A1C13CF124C03DF1242A000E01013E6F40
:101CF800420E01013F6F000E01018A6F01018A8BBC
:101D0800010E01018D6F010E01018E6F9EC18FF1D1
:101D18009FC190F1080E2B2401018B6F000E2C201F
:101D280001018C6F21EE8AF010EE7EF0070EDECFF7
:101D3800E6FFE82EFCD70101010E0001866F0101C4
:101D4800330E0001856F0D0E0001876FD4EC43F050
:101D580075EF1AF03C5020EE2BF010EE0DF0DE502F
:101D6800E126DD50E222E76275EF1AF0F9EC60F047
:101D780060C086F161C087F162C088F163C089F1F3
:101D88000101818320EE0EF02B50D9262C50DA2247
:101D9800DF500001AF6F0001AF47AF47AF47010108
:101DA80081510001AF19070BAF190101816F75EF60
:101DB8001AF0259C75EF1AF020EE0CF02B50D9265E
:101DC8002C50DA22DF50100AD8B469EF04F0010A67
:101DD800D8B4A3D5510AD8B4BDD7010AD8B451D7BD
:101DE800030AD8B4E6D7E20AD8B49DEF06F0010A90
:101DF800D8B4BCEF09F0030AD8B4C8EF0AF0010A56
:101E0800D8B413D4070AD8B447D4140AD8B465D6BA
:101E1800010AD8B48ED6030AD8B4C0D6010AD8B4F9
:101E280019D775EF1AF00101E35120EE2BF010EEEF
:101E38000AF0DE50E126DD50E222E76275EF1AF083
:101E4800010199510001E61904E1010198510001CD
:101E5800E519D8A475EF1AF0259675EF1AF02D50EC
:101E6800F50F0101086F0B0E2B240101066F000E00
:101E78002C200101076FD5C002F1D6C003F12BC099
:101E8800D9FF2CC0DAFF1F0EDF6403D001010181E6
:101E980002D001010191FF0E20EE2BF010EE08F0A8
:101EA800DE50E126DD50E222E76219D0FF0E20EE77
:101EB8002BF010EE09F0DE50E126DD50E222E76259
:101EC8000ED030B003D00101009F02D00101008F75
:101ED80001012AC005F1010129C004F10AD001015C
:101EE800008F080E2B240101046F000E2C20010125
:101EF800056F0101008D01010851D8B475EF1AF082
:101F0800258475EF1AF02BC0D9FF2CC0DAFFDF50FB
:101F1800D8B475EF1AF02BC0D9FF2CC0DAFFDF0652
:101F2800000E01012E6F000E0001E86F1AD00001AB
:101F3800E851010DF3502B24D96EF4502C20DA6EA1
:101F480001012E51010D0101330EF324E16E01014F
:101F5800010EF420E26EDFCFE7FF01012E2B000116
:101F6800E82B2D500001E85DD8A0E1D70101A1516F
:101F7800000120EEE1F0DF6236D001013E6733D088
:101F880001013F51300AD8A42ED0000E01018A6FFA
:101F980001018A8B010E01018D6F010E01018E6F07
:101FA8000001000E01018C6F0001E00E01018B6F32
:101FB800D1C08FF1D2C090F121EE8AF010EE7EF000
:101FC800070EDECFE6FFE82EFCD70101010E000167
:101FD800866F0101330E0001856F2EC187F0D4ECA6
:101FE80043F075EF1AF0D1C09DF0D2C09EF0E0C06A
:101FF8009FF0E1C0A0F0000E28B6010E0001A16F0D
:1020080055EC46F075EF1AF0000E0001C66F00019E
:10201800C6510001AF6FB06B040E0001AF27000E70
:10202800B0230001AF512B24D96E0001B0512C20F0
:10203800DA6EDF505D0AD8B425A075EF1AF031C00A
:10204800B2F132C0B3F129C0D9FF2AC0DAFFDF509C
:10205800396E20EE01F02950D9262A50DA22DF50B5
:102068003A6E0001C651010DF3502B24D96EF4507D
:102078002C20DA6EFF0EDF6275EF1AF00001C651F0
:102088000001AF6FB06B010E0001AF27000EB02347
:102098000001AF512B24D96E0001B0512C20DA6E0B
:1020A800DF500001C76F040E215CD8B075EF1AF03D
:1020B8000001C739030B0001AF6F020E0001AF5DCD
:1020C800D8B075EF1AF021500F0D0301800EF324DC
:1020D800D96E0301030EF420DA6E3CC0DFFF2150F5
:1020E8000F0D0B0EF326000EF4220301800EF324CD
:1020F800D96E0301030EF420DA6E010109C1DFFF76
:1021080021500F0D0C0EF326000EF4220301800E51
:10211800F324D96E0301030EF420DA6E01010AC11B
:10212800DFFF21500F0D090EF326000EF4220301E4
:10213800800EF324D96E0301030EF420DA6E010138
:10214800B2C1DEFF0101B3C1DDFF21500F0D0D0E3D
:10215800F326000EF4220301800EF324D96E030146
:10216800030EF420DA6E000EDF6E21500F0D0D0EF7
:10217800F326000EF4220301800EF324D96E030126
:10218800030EF420DA6E0301DF8C0001C731030B64
:102198000001AF6F21500F0D0D0EF326000EF42233
:1021A8000301800EF324D96E0301030EF420DA6EC6
:1021B8000301DF500001AF19FC0BAF190301DF6EFB
:1021C8000001C7A710D021500F0D0D0EF326000EE9
:1021D800F4220301800EF324D96E0301030EF420C8
:1021E800DA6E0301DF860001C739030B0001AF6F08
:1021F800020E0001AF5DD8B010D021500F0D0D0EAA
:10220800F326000EF4220301800EF324D96E030195
:10221800030EF420DA6E0301DF8A21500F0D0D0E34
:10222800F326000EF4220301800EF324D96E030175
:10223800030EF420DA6E0301DF8E04C1D9FF05C155
:10224800DAFF21500F0D010EF326000EF4220301D0
:10225800800EF324E16E0301030EF420E26EDFCF5B
:10226800E7FF010120EE01F001010451D926010127
:102278000551DA2221500F0D020EF326000EF4222A
:102288000301800EF324E16E0301030EF420E26ED5
:10229800DFCFE7FF000E0001E86F0001E851D8A486
:1022A80039D00001E8510001C6C0AFF00001B06BA1
:1022B8000001AF27000EB023060E0001AF27000E65
:1022C800B0230001AF512B24D96E0001B0512C204E
:1022D800DA6E0001E851010D0E0EF326000EF4220D
:1022E800800E0001B16F030EB26FF3500001B127E9
:1022F800F4500001B22321500F0DF3500001B12515
:10230800E16EF4500001B221E26EDFCFE7FF000179
:10231800E82BC3D7212A75EF1AF0000E0001C46F0D
:10232800010E3B6402D075EF1AF025A275EF1AF082
:10233800000E0001E86F18D00001E851010DF350BC
:102348002924D96EF4502A20DA6E0001E851010DD3
:1023580001010B0EF324E16E0101010EF420E26E7F
:10236800DFCFE7FF0001E82B070E0001E865E4D79F
:10237800B0EC5BF00001E26F0001E229D8B47AD03A
:102388000001E2510E0D0C0EF326000EF42202019C
:10239800280EF324D96E0201020EF420DA6EDFAAA9
:1023A80069D00001E2513D18D8B464D00001E2516F
:1023B8000E0D0C0EF326000EF4220201280EF32453
:1023C800D96E0201020EF420DA6EDFA653D00001A6
:1023D800E2510E0D020EF326000EF4220201280E21
:1023E800F324D96E0201020EF420DA6EDECF39F042
:1023F800DDCF3AF0010E3B6402D075EF1AF0000E03
:102408000001E86F0001E851D8A441D20001E85169
:102418000001AF6FB06B020E0001AF27000EB023B2
:102428000001AF512B24D96E0001B0512C20DA6E77
:102438000001E851010D0D0EF326000EF422280EBE
:102448000001B16F020EB26FF3500001B127F450D2
:102458000001B2230001E2510E0DF3500001B12535
:10246800E16EF4500001B221E26EDFCFE7FF000118
:10247800E82BC8D73B50D8A475EF1AF0A70E010176
:10248800316F9EC1B2F19FC1B3F1D6EC59F0000192
:10249800E26F0001E229D8B464D1000E0001E86FB0
:1024A8000001E851D8A434D00001E8510001AF6F11
:1024B800B06B020E0001AF27000EB0230001AF5130
:1024C8002B24D96E0001B0512C20DA6E0001E8519E
:1024D800010D0D0EF326000EF422280E0001B16F37
:1024E800020EB26FF3500001B127F4500001B2237D
:1024F8000001E2510E0DF3500001B125E16EF450D8
:102508000001B221E26EDFCFE7FF0001E82BC8D758
:1025180020EE01F02B50D9262C50DA22DF50000192
:10252800AF6F0001AFADF7D03E50020AD8B484D0E7
:102538000B0E01012E6F01012E51010D0101330E09
:10254800F324D96E0101010EF420DA6E000EDF6E5D
:1025580001012E2B01012E51010D0101330EF3242F
:10256800D96E0101010EF420DA6EA00EDF6E0101B2
:102578002E2B01012E51010D0101330EF324D96ECA
:102588000101010EF420DA6E000EDF6E01012E2B20
:10259800000E0001E86F1CD00001E851010D010197
:1025A8000B0EF324D96E0101010EF420DA6E01013D
:1025B8002E51010D0101330EF324E16E0101010ECC
:1025C800F420E26EDFCFE7FF01012E2B0001E82B9C
:1025D800070E0001E865E0D7000E0001E86F000172
:1025E800E851D8A41BD00001E851010D220EF324B4
:1025F800D96E000EF420DA6E01012E51010D010191
:10260800330EF324E16E0101010EF420E26EDFCFF8
:10261800E7FF01012E2B0001E82BE1D7000E3A6EEF
:10262800000E396E000E0001AA6F390E0001A96F65
:10263800D6EC5EF075EF1AF0000E396E010E00014F
:10264800D36F3AD0D3C03AF045EC5EF00001BD6FCD
:102658000001BD29D8A42ED0000E396ED3C03AF09F
:102668000001D351010D0201D50EF324D96E0201E8
:10267800020EF420DA6E000EDF6E2650F10B06090A
:10268800266EF9EC60F060C013F161C014F162C00D
:1026980015F163C016F1900E0101135FD00E010110
:1026A800145B030E0101155B000E0101165B0101AD
:1026B8002C8106D00001D32B1F0E0001D365C2D791
:1026C8000001D351200AD8A454D0000E3A6E010E4E
:1026D8000001E86F7F0E0001E86501D03ED0E8C038
:1026E80039F045EC5EF00001AF6F0001AF29D8A4C6
:1026F8000FD00001E851800F396E45EC5EF0000103
:10270800AF6F0001AF29D8A403D0E8C039F025D0B5
:102718000001E82BDFD7A1C13AF0010E0001E86FF4
:1027280018D0E8C039F045EC5EF00001AF6F000149
:10273800AF29D8A40CD00001E851800F396E45ECC0
:102748005EF00001AF6F0001AF29D8B4DED70001F9
:10275800E82B7F0E0001E865E4D77F0E0001E865ED
:1027680008D0010E0001C46FFF0E3A6EFE0E396EDE
:102778008ED0BF0E0101316F20EE01F02B50D9260B
:102788002C50DA22DF500001AF6F0001AFB103D047
:1027980001013191398E0001C46779D09EC1B2F12F
:1027A8009FC1B3F1D6EC59F00001E26F0A0E0001A7
:1027B800E25DD8B06CD00001E2510E0D0C0EF3268C
:1027C800000EF4220201280EF324D96E0201020E33
:1027D800F420DA6E0201DF88000E0001E86F0001C4
:1027E800E851D8A434D00001E8510001AF6FB06BB4
:1027F800020E0001AF27000EB0230001AF512B24B9
:10280800D96E0001B0512C20DA6E0001E851010D9B
:102818000D0EF326000EF422280E0001B16F020EF1
:10282800B26FF3500001B127F4500001B223000148
:10283800E2510E0DF3500001B125E16EF450000194
:10284800B221E26EDFCFE7FF0001E82BC8D7000115
:10285800E2510E0D0201280EF3240001626F0201FD
:10286800020EF4200001636F0001E2510E0D335097
:10287800F3240001646F3450F4200001656F000EEA
:102888000001676F0E0E0001666FD5EC5AF0020E5C
:102898000101336F39C034F13AC035F1C4C036F1A3
:1028A800000E0001E86F0001E851D8A422D0000111
:1028B800E851010D220EF324D96E000EF420DA6ED1
:1028C8000001E8510001AF6FB06B040E0001AF27A3
:1028D800000EB0230101330E0001AF25E16E0101A6
:1028E800010E0001B021E26EDFCFE7FF0001E82B07
:1028F800DAD7050E01012E6F0101010E00019E6F4E
:1029080001019E0E00019D6F0001E2510E0D040EA3
:10291800F326000EF4220201280EF32400019F6F13
:102928000201020EF4200001A06F010E0001A16F48
:10293800000E0001A26F1BEC5CF075EF1AF020EEA0
:1029480003F02B50D9262C50DA22DF50D8A428D1F6
:1029580020EE01F02B50D9262C50DA22DF5001014D
:10296800A06F20EE02F02B50D9262C50DA22DF502F
:102978000101A16F0101A06702D0010E01D0000E74
:102988003E6E3EC0AFF00001AF4701012B51000180
:10299800AF19F90BAF1901012B6F000E0001636F1E
:1029A8003E0E0001626FAEC164F0AFC165F0000E6B
:1029B8000001676F010E0001666FD5EC5AF0010146
:1029C800010E0001666F0101A00E0001656F010193
:1029D800010E0001686F01019E0E0001676F21EC76
:1029E80060F02582BF0E0101316F000E0001E86F13
:1029F80018D00001E851010DF3502924D96EF45084
:102A08002A20DA6E0001E851010D01010B0EF324B2
:102A1800E16E0101010EF420E26EDFCFE7FF000155
:102A2800E82B070E0001E865E4D73D500E0D020EB5
:102A3800F326000EF4220201280EF324D96E0201B7
:102A4800020EF420DA6EDECF39F0DDCF3AF09EC107
:102A5800B2F19FC1B3F1D6EC59F03D6E000E000102
:102A6800E86F0001E851D8A433D00001E851000113
:102A7800AF6FB06B040E0001AF27000EB02300014A
:102A8800AF512B24D96E0001B0512C20DA6E000111
:102A9800E851010D0D0EF326000EF422280E000158
:102AA800B16F020EB26FF3500001B127F45000016C
:102AB800B2233D500E0DF3500001B125E16EF450E4
:102AC8000001B221E26EDFCFE7FF0001E82BC9D792
:102AD80026508F0B3009266EF9EC60F060C013F1B8
:102AE80061C014F162C015F163C016F10101010E55
:102AF8000001636F01019E0E0001626F35C064F032
:102B080036C065F0000E0001676F020E0001666FA7
:102B1800D5EC5AF00101010E0001636F0101A00E0E
:102B28000001626F37C064F038C065F0000E000124
:102B3800676F020E0001666FD5EC5AF0000E0001B7
:102B4800636F3D0E0001626FA8C164F0A9C165F012
:102B5800000E0001676F010E0001666FD5EC5AF098
:102B68003D500E0D0201280EF3240001626F020190
:102B7800020EF4200001636F3D500E0D3350F32414
:102B88000001646F3450F4200001656F000E0001ED
:102B9800676F0E0E0001666FD5EC5AF075EF1AF0EC
:102BA8003D6801019E6901019F6939683A68000E14
:102BB8000001666F390E0001656F0101010E000109
:102BC800686F01019E0E0001676F21EC60F0000E36
:102BD8000001636F3D0E0001626FA8C164F0A9C1D6
:102BE80065F0000E0001676F010E0001666FD5ECFD
:102BF8005AF00101010E0001636F01019E0E0001F0
:102C0800626F35C064F036C065F0000E0001676F72
:102C1800020E0001666FD5EC5AF075EF1AF025A286
:102C280075EF1AF03050D8B411D029C0D9FF2AC096
:102C3800DAFFDF50396E20EE01F02950D9262A50EC
:102C4800DA22DF503A6E45EC5EF022D0000E000129
:102C5800E86F18D00001E851010DF3502924D96E0E
:102C6800F4502A20DA6E0001E851010D01010B0E23
:102C7800F324E16E0101010EF420E26EDFCFE7FFDD
:102C88000001E82B070E0001E865E4D7B0EC5BF023
:102C98000001E46F0001E429D8B475EF1AF00001CF
:102CA800E4510E0D0C0EF326000EF4220201280E3C
:102CB800F324D96E0201020EF420DA6EDFAA75EF52
:102CC8001AF00001E4513D18D8B4A3D10001E45131
:102CD8000E0D020EF326000EF4220201280EF32434
:102CE800D96E0201020EF420DA6EDF50D8A45FD14B
:102CF8003E50020AD8A4E9D01F0E0001E86F77D031
:102D0800E8C0CBF0000E0001BE6F6CD00001CB51C3
:102D1800010D0201D50EF324D96E0201020EF42032
:102D2800DA6EFF0EDF6201D060D00001CB51010DD9
:102D38000201D50EF324D96E0201020EF420DA6ED8
:102D48000001E4510E0D030EF326000EF4220201D9
:102D5800280EF324E16E0201020EF420E26EE75021
:102D6800DF622BD00001E851010D0201D50EF324DA
:102D7800D96E0201020EF420DA6EFF0EDF6E000E2D
:102D8800396EE8C03AF045EC5EF00001BF6F000113
:102D9800BF29D8B42AD00001BF510E0D0C0EF3265E
:102DA800000EF4220201280EF324D96E0201020E4D
:102DB800F420DA6E000EDF6E18D00001CB51010D41
:102DC8000201D50EF324D96E0201020EF420DA6E48
:102DD800DF500001CB6F0001BE2B210E0001BE6544
:102DE80001D003D00001CB6791D70001E8070001AB
:102DF800E86786D70001E4510E0D030EF326000E96
:102E0800F4220201280EF324D96E0201020EF420E6
:102E1800DA6EDF500001AF6F0001AF51010D020102
:102E2800D50EF324D96E0201020EF420DA6EFF0EDD
:102E3800DF6E0001E4510E0D0C0EF326000EF42295
:102E48000201280EF324D96E0201020EF420DA6E74
:102E5800000EDF6E0001E4510E0D0201280EF3246E
:102E68000001626F0201020EF4200001636F00018D
:102E7800E4510E0D3350F3240001646F3450F420F4
:102E88000001656F000E0001676F0E0E0001666F8E
:102E9800D5EC5AF02650F10B0609266EF9EC60F0D5
:102EA80060C013F161C014F162C015F163C016F17E
:102EB800900E0101135FD00E0101145B030E010196
:102EC800155B000E0101165B72D00B0E01012E6F0F
:102ED80001012E51010D0101330EF324D96E0101B8
:102EE800010EF420DA6E000EDF6E01012E2B0101B7
:102EF8002E51010D0101330EF324D96E0101010E8B
:102F0800F420DA6EA00EDF6E01012E2B01012E5186
:102F1800010D0101330EF324D96E0101010EF420D5
:102F2800DA6E010EDF6E01012E2B000E0001E86F34
:102F38002ED00001E851010D040EF326000EF422F4
:102F4800280E0001AF6F020EB06FF3500001AF27DB
:102F5800F4500001B0230001E4510E0DF3500001BC
:102F6800AF25D96EF4500001B021DA6E01012E515F
:102F7800010D0101330EF324E16E0101010EF4206D
:102F8800E26EDFCFE7FF01012E2B0001E82B070ED1
:102F98000001E865CED7000E3A6E000E396E000EBD
:102FA8000001AA6F390E0001A96FD6EC5EF000018E
:102FB800E4510E0D0C0EF326000EF4220201280E29
:102FC800F324D96E0201020EF420DA6E000EDF6ED1
:102FD8000001E4510E0D0201280EF3240001626F76
:102FE8000201020EF4200001636F0001E4510E0D8E
:102FF8003350F3240001646F3450F4200001656FEE
:10300800000E0001676F0E0E0001666FD5EC5AF0D6
:1030180068D2000E0001E86F8FD00001E8510E0D54
:103028000C0EF326000EF4220201280EF324D96EAA
:103038000201020EF420DA6EDFAE6BD00001E85117
:103048000E0D0C0EF326000EF4220201280EF324B6
:10305800D96E0201020EF420DA6EDFAA5AD00001FE
:10306800E8513D18D8B455D0000E01012E6F01016A
:103078002E51010D0101330EF324D96E0101010E09
:10308800F420DA6E030EDF6E01012E2B000E010113
:103098008A6F01018A8B01018A51FC0B0109010128
:1030A8008A6F010E01018D6F010E01018E6F9EC1A5
:1030B8008FF19FC190F10001E8510E0D020EF32629
:1030C800000EF4220201280EF32401018B6F020185
:1030D800020EF42001018C6F21EE8AF010EE7EF0D2
:1030E800070EDECFE6FFE82EFCD70101010E000136
:1030F800866F0101330E0001856F2EC187F0D4EC75
:1031080043F0000E00016D6F640E00016C6F45EC1A
:103118005BF00001E8510E0D0C0EF326000EF422B0
:103128000201280EF324D96E0201020EF420DA6E91
:10313800000EDF6E0001E82B090E0001E8656DD76F
:103148000B0E01012E6F01012E51010D0101330EED
:10315800F324D96E0101010EF420DA6E000EDF6E41
:1031680001012E2B01012E51010D0101330EF32413
:10317800D96E0101010EF420DA6EA00EDF6E010196
:103188002E2B01012E51010D0101330EF324D96EAE
:103198000101010EF420DA6E010EDF6E01012E2B03
:1031A800000E0001E86F2ED00001E851010D040E59
:1031B800F326000EF422280E0001AF6F020EB06F46
:1031C800F3500001AF27F4500001B0230001E4518F
:1031D8000E0DF3500001AF25D96EF4500001B02157
:1031E800DA6E01012E51010D0101330EF324E16E57
:1031F8000101010EF420E26EDFCFE7FF01012E2B63
:103208000001E82B070E0001E865CED7000E3A6EE4
:10321800000E396E000E0001AA6F390E0001A96F69
:10322800D6EC5EF03D680101A0690101A1690101C8
:103238009E6901019F690101010E0001666F01018C
:10324800A00E0001656F0101010E0001686F010108
:103258009E0E0001676F21EC60F02592000E0001C0
:10326800E86F34D00001E851010D0201D50EF324B6
:10327800D96E0201020EF420DA6EFF0EDF6E000E28
:103288000001E46F1DD00001E851040D000E00019B
:10329800AF6F060EB06FF3500001AF27F450000176
:1032A800B0230001E451010DF3500001AF25D96EA0
:1032B800F4500001B021DA6E000EDF6E0001E42B3D
:1032C800030E0001E465DFD70001E82B1F0E0001A3
:1032D800E865C8D7000E0001E86F0FD00001E8517B
:1032E800010D0101910EF324D96E0101010EF420A4
:1032F800DA6E000EDF6E0001E82B030E0001E865B0
:10330800EDD7000E0001636F3D0E0001626FA8C18A
:1033180064F0A9C165F0000E0001676F010E00019D
:10332800666FD5EC5AF00101010E0001636F0101CF
:10333800A00E0001626F37C064F038C065F0000E5F
:103348000001676F020E0001666FD5EC5AF00101AB
:10335800010E0001636F01019E0E0001626F35C00E
:1033680064F036C065F0000E0001676F020E0001C0
:10337800666FD5EC5AF00201020E0001636F02017C
:10338800D50E0001626FA6C164F0A7C165F0000EFA
:103398000001676F200E0001666FD5EC5AF001013D
:1033A800010E0001636F0101910E0001626FB0C14F
:1033B80064F0B1C165F0000E0001676F040E0001F2
:1033C800666FD5EC5AF00601060E0001636F060120
:1033D800000E0001626FAAC164F0ABC165F0000E77
:1033E8000001676F800E0001666FD5EC5AF002018C
:1033F800020E0001636F0201280E0001626F33C0E4
:1034080064F034C065F0000E0001676F8C0E000197
:10341800666FD5EC5AF065D03050D8B412D0000E93
:103428000001A56F000E0001A46F00012AC0A7F0DB
:10343800000129C0A6F0010E0001A86F93EC2DF041
:1034480050D000012AC0A5F0000129C0A4F0000E48
:103458000001A76F000E0001A66F000E0001A86F03
:1034680093EC2DF03ED0020E3B6401D03AD025A259
:1034780038D020EE01F02B50D9262C50DA22DF501C
:103488003C18D8A42ED03E50D8B42BD0640E45ECAE
:103498005DF0B0EC58F025D02BC0D9FF2CC0DAFF76
:1034A800DF50010AD8B491EF11F0030AD8B4A3EFA2
:1034B80014F0010AD8B413EF16F0070AD8B4ACD741
:1034C800030AD8B4D0D70DD02850030B000AD8B4BB
:1034D8005FEF01F0010AD8B4DFD7020AD8B408EFC9
:1034E80010F025A415EC64F0F9EC60F060C0DCF095
:1034F80061C0DDF062C0DEF063C0DFF0000E0001E5
:10350800E86F65D00001E851430D0E0EF326000E5A
:10351800F4220501000EF324D96E0501050EF420EE
:10352800DA6EDFA052D00001E851430D0501000E0C
:10353800F324D96E0501050EF420DA6EDECFAFF064
:10354800DECFB0F0DECFB1F0DECFB2F00001AF1FBA
:10355800B01FB11FB21FAF2B000EB023B123B2238F
:103568000001DC510001AF250001B36F0001DD51FE
:103578000001B0210001B46F0001DE510001B1214A
:103588000001B56F0001DF510001B2210001B66FE3
:10359800010E0001B35D120EB4597A0EB559000E32
:1035A8000001B659D8A011D00001E851430D0E0E04
:1035B800F326000EF4220501000EF324D96E05014E
:1035C800050EF420DA6E000EDF6E0001E82B010E06
:1035D8000001E86597D7000E0001E86F6AD0000186
:1035E800E851080D030EF326000EF4220201000E26
:1035F800F324D96E0201020EF420DA6EDF50D8B43B
:1036080056D00001E851080D040EF326000EF422EE
:103618000201000EF324D96E0201020EF420DA6EC4
:10362800DECFAFF0DECFB0F0DECFB1F0DECFB2F05C
:103638000001AF1FB01FB11FB21FAF2B000EB02388
:10364800B123B2230001DC510001AF250001B36FA3
:103658000001DD510001B0210001B46F0001DE510D
:103668000001B1210001B56F0001DF510001B22155
:103678000001B66F910E0001B35DD00EB459030E70
:10368800B559000E0001B659D8A011D00001E85173
:10369800080D030EF326000EF4220201000EF32497
:1036A800D96E0201020EF420DA6E000EDF6E000100
:1036B800E82B040E0001E86592D7010113C1AFF0B1
:1036C800010114C1B0F0010115C1B1F0010116C129
:1036D800B2F00001AF1FB01FB11FB21FAF2B000E19
:1036E800B023B123B2230001DC510001AF25000152
:1036F800D76F0001DD510001B0210001D86F000132
:10370800DE510001B1210001D96F0001DF51000134
:10371800B2210001DA6F2630070B0009D8B46ED049
:10372800210E0001D75DA10E0001D859070E000136
:10373800D959000E0001DA59D8A022D2010E000191
:10374800AF6F2630070B0001B06F0001AF510001C9
:10375800B05F0001B03726500001B019F10B00012D
:10376800B019266E0B0E01012E6F01012E51010DAD
:103778000101330EF324D96E0101010EF420DA6E33
:10378800000EDF6E01012E2B01012E51010D0101EA
:10379800330EF324D96E0101010EF420DA6EA30E64
:1037A800DF6E01012E2B000E0001E86F1CD0000116
:1037B800E851010D0201D50EF324D96E0201020E63
:1037C800F420DA6E01012E51010D0101330EF324AC
:1037D800E16E0101010EF420E26EDFCFE7FF010187
:1037E8002E2B0001E82B1F0E0001E865E0D7000E24
:1037F80000019D6F020E0FEC58F0D0D02638070B51
:103808000009D8B482D0210E0001D75DA10E0001B5
:10381800D859070E0001D959000E0001DA59D8A06D
:10382800AFD1010E0001AF6F2638070B0001B06F52
:103838000001AF510001B05F0001B03B265000010C
:10384800B0198F0B0001B019266E0B0E01012E6FF7
:1038580001012E51010D0101330EF324D96E01012E
:10386800010EF420DA6E000EDF6E01012E2B01012D
:103878002E51010D0101330EF324D96E0101010E01
:10388800F420DA6EA40EDF6E01012E2B01012E51F9
:10389800010D0101330EF324D96E0101010EF4204C
:1038A800DA6E0101A1C1DFFF01012E2B000E00011C
:1038B800E86F1CD00001E851010D0101910EF324BD
:1038C800D96E0101010EF420DA6E01012E51010DAD
:1038D8000101330EF324E16E0101010EF420E26EC2
:1038E800DFCFE7FF01012E2B0001E82B030E0001BB
:1038F800E865E0D7010E406E000E00019D6F020ED4
:103908000FEC58F0210E406E49D00201D529D8A4F9
:103918004ED03E04D8B425A24AD0210E0001D75D6E
:10392800A10E0001D859070E0001D959000E000157
:10393800DA59D8A025D10B0E01012E6F01012E51A5
:10394800010D0101330EF324D96E0101010EF4209B
:10395800DA6E000EDF6E01012E2B01012E51010DD2
:103968000101330EF324D96E0101010EF420DA6E41
:10397800A20EDF6E01012E2B3D500E0D020EF32616
:10398800000EF4220201280EF3240001A96F02019F
:10399800020EF4200001AA6FD6EC5EF0DCC013F131
:1039A800DDC014F1DEC015F1DFC016F1E9D0010168
:1039B8002CA16FD0810E0001D75D840E0001D8596B
:1039C8001E0E0001D959000E0001DA59D8A0D8D02E
:1039D80001012C913E50020AD8B446D03D500E0D3C
:1039E800030EF326000EF4220201280EF324D96EEA
:1039F8000201020EF420DA6EDF500001AF6F010100
:103A0800A151010D0201D50EF324D96E0201020E57
:103A1800F420DA6EDF500001AF19D8B425D0000EBB
:103A2800396E0101A151010D0201D50EF324D96EA1
:103A38000201020EF420DA6EDF503A6E45EC5EF0B9
:103A48000001E86F0A0E0001E85DD8B003D0E8C0B5
:103A58003DF00AD0BB0E0101316F9EC1B2F19FC18A
:103A6800B3F1D6EC59F03D6E0201020E0001636F0E
:103A78000201D50E0001626FA6C164F0A7C165F00E
:103A8800000E0001676F200E0001666FD5EC5AF03A
:103A980077D001012CA325D0810E0001D75D840EBB
:103AA8000001D8591E0E0001D959000E0001DA593B
:103AB800D8A066D001012C930101010E0001636FAB
:103AC8000101910E0001626FB0C164F0B1C165F0EF
:103AD800000E0001676F040E0001666FD5EC5AF006
:103AE8004FD001012CA525D0810E0001D75D840E91
:103AF8000001D8591E0E0001D959000E0001DA59EB
:103B0800D8A03ED001012C950601060E0001636F76
:103B18000601000E0001626FAAC164F0ABC165F036
:103B2800000E0001676F800E0001666FD5EC5AF039
:103B380027D001012CA724D0810E0001D75D840E67
:103B48000001D8591E0E0001D959000E0001DA599A
:103B5800D8A016D001012C970201020E0001636F54
:103B68000201280E0001626F33C064F034C065F0B2
:103B7800000E0001676F8C0E0001666FD5EC5AF0DD
:103B880026A076D0030140C3AFF0030141C3B0F0D3
:103B9800030142C3B1F0030143C3B2F00001AF1FF8
:103BA800B01FB11FB21FAF2B000EB023B123B22339
:103BB8000001DC510001AF250001B36F0001DD51A8
:103BC8000001B0210001B46F0001DE510001B121F4
:103BD8000001B56F0001DF510001B2210001B66F8D
:103BE80003014B510001606F0001616B0001626BC2
:103BF8000001636BF40E0001646F010E0001656F34
:103C0800000E0001666F000E0001676F62EC5FF046
:103C180060C0B7F061C0B8F062C0B9F063C0BAF074
:103C28000001B3510001B75D0001B4510001B8595A
:103C38000001B5510001B9590001B6510001BA5946
:103C4800D8B016D0269023EE44F010EE7EF0070E82
:103C5800DECFE6FFE82EFCD70301030E0001866FD6
:103C680003014D0E0001856F4CC387F0D4EC43F07F
:103C7800010181A345D0010186C1AFF0010187C1CF
:103C8800B0F0010188C1B1F0010189C1B2F00001B1
:103C9800AF1FB01FB11FB21FAF2B000EB023B1234F
:103CA800B2230001DC510001AF250001B36F000110
:103CB800DD510001B0210001B46F0001DE510001A7
:103CC800B1210001B56F0001DF510001B2210001EF
:103CD800B66F410E0001B35D420EB4590F0EB559CF
:103CE800000E0001B659D8A068D001018131E83230
:103CF800E8321F0BB3EC62F0000E0101816F5DD05A
:103D0800010181A15AD0010186C1AFF0010187C12B
:103D1800B0F0010188C1B1F0010189C1B2F0000120
:103D2800AF1FB01FB11FB21FAF2B000EB023B123BE
:103D3800B2230001DC510001AF250001B36F00017F
:103D4800DD510001B0210001B46F0001DE51000116
:103D5800B1210001B56F0001DF510001B22100015E
:103D6800B66F410E0001B35D420EB4590F0EB5593E
:103D7800000E0001B659D8A020D03CC0C0F082C1C6
:103D88006EF083C16FF084C170F085C171F00A0EC6
:103D98000001726F000E0001736F0001000E000138
:103DA800756F0001E80E0001746FE9EC52F0000134
:103DB800C051B3EC62F001018191010166A31200C8
:103DC800010166A196D00B0E01012E6F01012E5143
:103DD800010D0101330EF324D96E0101010EF42007
:103DE800DA6E000EDF6E01012E2B01012E51010D3E
:103DF8000101330EF324D96E0101010EF420DA6EAD
:103E0800110EDF6E01012E2B000E0001D46F1CD0A5
:103E18000001D451010D01016A0EF324D96E01018C
:103E2800010EF420DA6E01012E51010D0101330E4D
:103E3800F324E16E0101010EF420E26EDFCFE7FF0B
:103E480001012E2B0001D42B070E0001D465E0D709
:103E580001012E51010D0101330EF324D96E010128
:103E6800010EF420DA6E010168C1DFFF01012E2B7B
:103E780001012E51010D0101330EF324D96E010108
:103E8800010EF420DA6E010169C1DFFF01012E2B5A
:103E9800000E0001D46F0001D451D8A41DD0000138
:103EA800D451010D0101720EF324D96E0101010EE6
:103EB800F420DA6E01012E51010D0101330EF324B5
:103EC800E16E0101010EF420E26EDFCFE7FF010190
:103ED8002E2B0001D42BDFD70101010E0001AA6FA0
:103EE8000101730E0001A96FD6EC5EF00101669323
:103EF800120001017DC1AFF001017EC1B0F00101E6
:103F08007FC1B1F0010180C1B2F00001AF1FB01F45
:103F1800B11FB21FAF2B000EB023B123B223000193
:103F2800DC510001AF250001D76F0001DD51000110
:103F3800B0210001D86F0001DE510001B12100015C
:103F4800D96F0001DF510001B2210001DA6F610E63
:103F58000001D75DE30E0001D859160E0001D959AA
:103F6800000E0001DA59D8A0120001016693120070
:103F7800010E0401B26F000E01012D6FA3EC5DF07C
:103F8800898E898C8B8447EC59F001012D6790EF5D
:103F980025F096EC64F0D7EC62F00201020E000105
:103FA8006D6F0201B40E00016C6FFF0E00016F6FA0
:103FB800560E00016E6F28EC28F00201020E000177
:103FC8006D6F0201C40E00016C6FFF0E00016F6F70
:103FD800EA0E00016E6F28EC28F0E6EC5CF0000EAB
:103FE80006EC3CF0F9EC60F060C0A0F461C0A1F40C
:103FF80062C0A2F463C0A3F4F9EC60F060C0A4F45A
:1040080061C0A5F462C0A6F463C0A7F40401A0C40B
:10401800DBF10401A1C4DCF10401A2C4DDF1040157
:10402800A3C4DEF10101DB1FDC1FDD1FDE1FDB2B5C
:10403800000EDC23DD23DE230401A4510101DB256E
:104048000101DF6F0401A5510101DC210101E06FCD
:104058000401A6510101DD210101E16F0401A7510D
:104068000101DE210101E26F810E0101DF5D840E95
:10407800E0591E0EE159000E0101E259D8B00ED0E8
:1040880053EC57F00401B66F0401B651020AD8A4E4
:10409800B3D70101EC51E5EC4CF0AED798EC64F0E5
:1040A800D7EC62F00201020E00016D6F0201B40E3E
:1040B80000016C6FFE0E00016F6FEE0E00016E6F57
:1040C80001010001ECC170F00001716B28EC28F0CF
:1040D8000201020E00016D6F0201C40E00016C6F37
:1040E800FF0E00016F6F980E00016E6F28EC28F02C
:1040F800E6EC5CF0030E00016D6FE80E00016C6FDA
:1041080045EC5BF053EC57F00401B66F0401B605BB
:10411800D8B459D00401B651020AD8A4F3D7000E76
:104128000401B16F010E0401A96F46D0D7EC62F00B
:104138000201020E00016D6F0201B40E00016C6FE6
:10414800FE0E00016F6FEE0E00016E6F040100019C
:10415800B1C470F00001716B28EC28F00201020E66
:1041680000016D6F0201C40E00016C6FFF0E0001AB
:104178006F6F980E00016E6F28EC28F0E6EC5CF08B
:1041880053EC57F00401B66F0401B605D8A406D065
:10419800B1C4ECF1000E0401A96F11D00401B651AD
:1041A800020AD8A4EDD70401B1290401B16F0401B2
:1041B800B1511B0AD8A403D00B0E0401B16F04013E
:1041C800A905D8B4B3D70101EC51B3EC62F00009EA
:1041D800D8A410D0FE0E00018E6F060E00018D6F60
:1041E800000E00018F6F010E0001906F91EC60F0DE
:1041F80002EF01F0000E66EC62F0FC0E00018E6F1B
:10420800C90E00018D6F000E00018F6F000E0001B6
:10421800906F91EC60F0030E00016D6FE80E0001E5
:104228006C6F45EC5BF08BEF25F053EC57F0040115
:10423800B66F0401B605D8A480D0FF0E00018E6FBA
:10424800670E00018D6F000E00018F6F010E0001D7
:10425800906F91EC60F0000E06EC3CF0000E00014F
:10426800956F000E0001966F000E0001976F000E0B
:104278000001986F000E0001996F000E79EC4EF066
:10428800FE0E00018E6F410E00018D6F000E0001C1
:104298008F6F010E0001906F91EC60F0D7EC62F027
:1042A8000201020E00016D6F0201B40E00016C6F75
:1042B800FE0E00016F6FAE0E00016E6F010100016E
:1042C8009FC170F00001716B010100019EC172F085
:1042D8000001736B01010001ECC174F00001756B02
:1042E80028EC28F00201020E00016D6F0201C40ED5
:1042F80000016C6FFF0E00016F6F000E00016E6F02
:1043080001010001A1C170F00001716B0101000100
:10431800A0C172F00001736B28EC28F0E6EC5CF0A9
:1043280006D076EC64F00009D8A492EC64F002019F
:1043380034AFF7D7000E0401B26F0401B651020A78
:10434800D8A4E5D3FD0E00018E6FC80E00018D6F55
:10435800000E00018F6F010E0001906F91EC60F06C
:10436800FC0E00018E6FEA0E00018D6F000E000139
:104378008F6F010E0001906F91EC60F0000E06EC5B
:104388003CF0080E0101EC5DD8B023D0ECC1DBF1A4
:10439800010E0101DC6FDD6B0101DB2B04D0D8902D
:1043A8000101DC37DD370101DB2FF9D70001DCC162
:1043B800E9F00001DDC1EAF00001000E0001EABFEA
:1043C800FF0E0001EB6F0001EC6F0A0E55EC55F083
:1043D8007CD0100E0101EC5DD8B027D0ECC1DBF128
:1043E800F80E0101DB27000E0101DC6F010EDD6F05
:1043F8000101DB2B04D0D8900101DC37DD37010146
:10440800DB2FF9D70001DCC1E9F00001DDC1EAF0DA
:104418000001000E0001EABFFF0E0001EB6F000172
:10442800EC6F0A0E55EC55F050D0180E0101EC5DFA
:10443800D8B026D0ECC1DBF1F00E0101DB27000E6D
:104448000101DC6F000EDD6F010EDE6F000EDF6F05
:104458000101DB2B06D0D8900101DC37DD37DE37D0
:10446800DF370101DB2FF7D7DCC1E9F0DDC1EAF066
:10447800DEC1EBF0DFC1ECF00A0E55EC55F025D0AB
:10448800ECC1DBF1E80E0101DB27000E0101DC6F56
:10449800000EDD6F000EDE6F010EDF6F0101DB2BFA
:1044A80006D0D8900101DC37DD37DE37DF37010170
:1044B800DB2FF7D7DCC1E9F0DDC1EAF0DEC1EBF0B4
:1044C800DFC1ECF00A0E55EC55F00401BA6F040197
:1044D800BA51D8B40ED3000E0401B86F00D3000E41
:1044E8000401AC6F0401B851D8B475D0000E0401B2
:1044F800AC6F000E0401B76F48D00401B8510F0D1E
:104508000A0EF326000EF4220301800EF324D96E5E
:104518000301030EF420DA6E0401B7510F0D0A0EE1
:10452800F326000EF4220301800EF324E16E03014A
:10453800030EF420E26EE750DF6225D00401B85183
:104548000F0D090EF326000EF4220301800EF3244A
:10455800D96E0301030EF420DA6E0401B7510F0D72
:10456800090EF326000EF4220301800EF324E16EF7
:104578000301030EF420E26EE750DF6204D0010E5F
:104588000401AC6F08D00401B72B0401B851040131
:10459800B75DD8A0B2D70401AC05D8A41CD0FF0ED3
:1045A8000101DB6FFF0EDC6F0401BA510101DD6F01
:1045B800DE6B0101DB510101DD270101DC51010145
:1045C800DE230401B8510101DD19DE11D8A485D21A
:1045D8000401B86982D2D7EC62F00201020E000130
:1045E8006D6F0201B40E00016C6FFE0E00016F6F5B
:1045F800C50E00016E6F0401B8510F0D0A0EF326A7
:10460800000EF4220301800EF324D96E0301030E79
:10461800F420DA6EDF500101DB6F0101DB5100018C
:10462800706F0001716B0401B8510F0D090EF3266C
:10463800000EF4220301800EF324D96E0301030E49
:10464800F420DA6EDF500101DC6F0101DC5100015A
:10465800726F0001736B28EC28F00201020E000152
:104668006D6F0201C40E00016C6FFF0E00016F6FC9
:10467800880E00016E6F28EC28F0E6EC5CF053EC35
:1046880057F00401B66F0401B605D8A4F2D1000EA4
:104698000401AF6F0B0E01012E6F000E0401B76FFE
:1046A80046D00401B8510F0D0A0EF326000EF4226D
:1046B8000301800EF324D96E0301030EF420DA6E91
:1046C8000401B7510F0D0A0EF326000EF422030160
:1046D800800EF324E16E0301030EF420E26EE7502E
:1046E800DF6223D00401B8510F0D0A0EF326000E25
:1046F800F4220301800EF324D96E0301030EF42083
:10470800DA6E0401B7510F0D0A0EF326000EF422DB
:104718000301800EF324E16E0301030EF420E26E20
:10472800E750DF6202D00401AF2B0401B72B04016C
:10473800BA510401B75DD8A0B4D7010E0401AF6522
:1047480034D1000E0401AA6F000E0401AD6F0B0EE8
:1047580001012E6F01012E51010D0101330EF324C9
:10476800D96E0101010EF420DA6E040EDF6E01012C
:104778002E2B0401B8510F0D0A0EF326000EF42259
:104788000301800EF324D96E0301030EF420DA6EC0
:1047980001012E51010D0101330EF324E16E0101D7
:1047A800010EF420E26EDFCFE7FF01012E2B04019A
:1047B800B8510F0D090EF326000EF4220301800EE6
:1047C800F324D96E0301030EF420DA6E01012E5191
:1047D800010D0101330EF324E16E0101010EF420F5
:1047E800E26EDFCFE7FF01012E2B000E6EEC64F0C6
:1047F800000E0401B76FD3D00401B8510F0D0A0E93
:10480800F326000EF4220301800EF324D96E03016F
:10481800030EF420DA6E0401B7510F0D0A0EF326C9
:10482800000EF4220301800EF324E16E0301030E4F
:10483800F420E26EE750DF62B0D00401B8510F0DEA
:10484800090EF326000EF4220301800EF324D96E1C
:104858000301030EF420DA6E0401B7510F0D090E9F
:10486800F326000EF4220301800EF324E16E030107
:10487800030EF420E26EE750DF628FD00401AD2B07
:10488800D7EC62F00201020E00016D6F0201B40E56
:1048980000016C6FFE0E00016F6FDA0E00016E6F83
:1048A8000401B7510F0D020EF326000EF422030186
:1048B800800EF324D96E0301030EF420DA6EDF5064
:1048C8000101DB6F0101DB510001706F0001716BA9
:1048D8000401B7510F0D010EF326000EF422030157
:1048E800800EF324D96E0301030EF420DA6EDF5034
:1048F8000101DC6F0101DC510001726F0001736B73
:1049080028EC28F00201020E00016D6F0201C40EAE
:1049180000016C6FFF0E00016F6F880E00016E6F53
:1049280028EC28F0E6EC5CF0B7C4AAF453EC57F096
:104938000401B66F0401B605D8A407D0AAC4B8F418
:104948000401BA050401B76F28D00401B651020A60
:10495800D8A4ECD7FF0E0101DB6FFF0EDC6F04015A
:10496800BA510101DD6FDE6B0101DB510101DD2769
:104978000101DC510101DE230401B7510101DD19F8
:10498800DE11D8B405D00401AF510401AD6305D0E0
:104998000401B769000E0401AD6F0401B72B0401CF
:1049A800BA510401B75DD8A027D7000E0001F96FEE
:1049B8000401B85150EC41F00401A86F0401A82982
:1049C800D8A410D0FF0E00018E6FB70E00018D6FB6
:1049D800000E00018F6F010E0001906F91EC60F0E6
:1049E80054EF20F0FD0E00018E6FE70E00018D6F71
:1049F800000E00018F6F010E0001906F91EC60F0C6
:104A0800000E0401B26F0B0E01012E6F01012E5131
:104A1800010D0101330EF324D96E0101010EF420BA
:104A2800DA6E050EDF6E01012E2B01012E51010DEC
:104A38000101330EF324D96E0101010EF420DA6E60
:104A480001019FC1DFFF01012E2B01012E51010D34
:104A58000101330EF324D96E0101010EF420DA6E40
:104A680001019EC1DFFF01012E2B000E6EEC64F0E8
:104A780030D00401B651020AD8A401D6FF0E0101B4
:104A8800DB6FFF0EDC6F0401B8510101DD6FDE6BD7
:104A98000101DD1FDE1FDD4BDE2B0401BA510101D0
:104AA800DF6FE06B0101DD510101DF270101DE51FC
:104AB8000101E0230101DB510101DF270101DC5184
:104AC8000101E0230101E051DF11D8A402D0040163
:104AD800B8690401B26701D008D00401B82B0401F9
:104AE800BA510401B85DD8A0FAD4000E0401B26F1F
:104AF8000ED0FE0E00018E6F240E00018D6F000E89
:104B080000018F6F000E0001906F91EC60F00401BE
:104B1800B205D8B419EF21F0000E0401B46F000EED
:104B28000401B56F000E0401B26F899E899C8B94B5
:104B3800FC0E00018E6F650E00018D6F000E0001E6
:104B48008F6F000E0001906F91EC60F078D253ECFB
:104B580057F00401B36F76EC64F00009D8B480D044
:104B680006C1D9FF07C1DAFFDF500401B46F0401A1
:104B7800B451040AD8A41ED001019F51010121EEAD
:104B880006F010EE01F0DE50E126DD50E222E76289
:104B98000ED0010120EE02F001010651D9260101D3
:104BA8000751DA22DF5001019E19D8B403D0000E54
:104BB8000401B46F0401B451020AD8A44FD0000E06
:104BC8000401B96F47D00401B9510E0D0C0EF3263C
:104BD800000EF4220201280EF324D96E0201020EFF
:104BE800F420DA6EDFAE34D00401B9510E0D030E95
:104BF800F326000EF4220201280EF324D96E0201D6
:104C0800020EF420DA6E010110EE01F001010451E8
:104C1800E12601010551E222E750DF6219D00401C3
:104C2800B9510E0D020EF326000EF4220201280ED1
:104C3800F324D96E0201020EF420DA6E04C1E1FFFA
:104C480005C1E2FFE750DF6203D0B9C426F106D000
:104C58000401B92B090E0401B965B5D792EC64F0CB
:104C68000401B451020AD8A41ED00B0E01012E6F04
:104C780001012E51010D0101330EF324D96E0101FA
:104C8800010EF420DA6E020EDF6E01012E2B000EEB
:104C98000001E96F0101265121EC54F044EC39F090
:104CA800010E0401B26F0401B305D8A4FFD00401BA
:104CB800B567FCD0000E0401B06F000E0101266F2D
:104CC800000E0401B96F26D00401B9510E0D0C0E67
:104CD800F326000EF4220201280EF324D96E0201F5
:104CE800020EF420DA6EDFAE13D00401B9510E0DB6
:104CF8000C0EF326000EF4220201280EF324D96EBE
:104D08000201020EF420DA6EDFAA02D00401B02BF1
:104D18000401B92B090E0401B965D6D7010E0401A7
:104D2800B065A6D0000E0401AB6F000E0401AE6F93
:104D3800FD0E00018E6F4B0E00018D6F000E0001FD
:104D48008F6F000E0001906F91EC60F0000E04016F
:104D5800B96F8AD00401B9510E0D0C0EF326000E5E
:104D6800F4220201280EF324D96E0201020EF42067
:104D7800DA6EDFAE73D0D7EC62F00201020E0001EA
:104D88006D6F0201B40E00016C6FFE0E00016F6FB3
:104D9800DA0E00016E6F0401B9510E0D030EF326F1
:104DA800000EF4220201280EF324D96E0201020E2D
:104DB800F420DA6EDF500101DB6F0101DB510001E5
:104DC800706F0001716B0401B9510E0D020EF326CC
:104DD800000EF4220201280EF324D96E0201020EFD
:104DE800F420DA6EDF500101DC6F0101DC510001B3
:104DF800726F0001736B28EC28F00201020E0001AB
:104E08006D6F0201C40E00016C6FFF0E00016F6F21
:104E1800880E00016E6F28EC28F0E6EC5CF00401C7
:104E2800AE2B53EC57F00401B36F0401B305D8A4BB
:104E380006D0B9C426F1010E0401AB6F0FD00401EE
:104E4800B351020AD8A4EDD70401B0510401AE63EE
:104E580005D00401B969000E0401AE6F0401AB0569
:104E6800D8B406D00401B92B090E0401B96572D76C
:104E78000B0E01012E6F01012E51010D0101330EA0
:104E8800F324D96E0101010EF420DA6E020EDF6EF2
:104E980001012E2B000E0001E96F0101265121ECC2
:104EA80054F044EC39F0010E0401B26F0401B3511F
:104EB800020AD8A442D00401B52B0401B551030A53
:104EC800D8A403D0000E0401B56F0401B5670FD054
:104ED800FC0E00018E6F650E00018D6F000E000143
:104EE8008F6F000E0001906F91EC60F026D00401E6
:104EF800B505D8A40FD0FC0E00018E6F430E00013B
:104F08008D6F000E00018F6F000E0001906F91EC05
:104F180060F013D00401B551020AD8A40ED0FC0EDB
:104F280000018E6F210E00018D6F000E00018F6F42
:104F3800000E0001906F91EC60F00401B451030A77
:104F4800D8B408D00401B305D8A41ED00401B5050F
:104F5800D8A41AD00B0E01012E6F01012E51010D9C
:104F68000101330EF324D96E0101010EF420DA6E2B
:104F7800030EDF6E01012E2B000E6EEC64F0DCECEC
:104F88004AF0010E0401B26F0401B451040AD8B406
:104F980009D00401B305D8A44AD00401B551020AC6
:104FA800D8A445D0D7EC62F00201020E00016D6F63
:104FB8000201B40E00016C6FFE0E00016F6FAE0EA1
:104FC80000016E6F010100019FC170F00001716B5B
:104FD800010100019EC172F00001736B0101000123
:104FE800ECC174F00001756B28EC28F00201020E88
:104FF80000016D6F0201C40E00016C6FFF0E00010D
:105008006F6F000E00016E6F01010001A1C170F009
:105018000001716B01010001A0C172F00001736B06
:1050280028EC28F0E6EC5CF0000E0401B46F0401F3
:10503800B451050AD8A403D0010E0401B26F0401CB
:10504800B251D8A469D583D50001000E0001826F42
:105058000001700E0001816F7BEF2DF000018A5175
:10506800250AD8B40CD06CC0D9FF6DC0DAFF000196
:105078008AC0DFFF00016C4B6D2B7BEF2DF0000E1B
:105088000001856F000E0001846F000E00018C6F17
:10509800000E00018B6F0ED000018B8708D0000135
:1050A8008B8105D000018C8702D000018B8500011F
:1050B8006E4B6F2B00016EC0F6FF00016FC0F7FF4B
:1050C8000800F550200AD8B4EAD7030AD8B4EAD7BA
:1050D8000E0AD8B4E1D71D0AD8B4E7D700018BA7C8
:1050E80002D000018B9500016EC0F6FF00016FC071
:1050F800F7FF0800F550D6EC63F0D8A048D0000EB2
:105108000001856F000E0001846F84C060F085C0C7
:1051180061F0000E0001636F0A0E0001626F57EC28
:1051280063F0000160C084F0000161C085F0D00E1A
:105138000001766FFF0E776F00016EC0F6FF000169
:105148006FC0F7FF0800F5500001786F796B000118
:105158007651000178270001775100017923000179
:10516800785100018427000179510001852300014D
:105178006E4B6F2B00016EC0F6FF00016FC0F7FF8A
:105188000800F550D6EC63F0D8A01FD0BED70001B8
:105198006EC0F6FF00016FC0F7FF0800F5502A0A3D
:1051A800D8A413D081C0D9FF82C0DAFF0001DECFB6
:1051B80084F00001DDCF85F0020E00018127000E8A
:1051C8000001822300016E4B6F2B00016EC0F6FFB9
:1051D80000016FC0F7FF0800F5502E0AD8A447D089
:1051E80000018C8D00016E4B6F2B00016EC0F6FF25
:1051F80000016FC0F7FF0800F5502A0AD8A411D0A3
:1052080081C0D9FF82C0DAFFDF500001836F020E30
:1052180000018127000E0001822300016E4B6F2BD5
:10522800D4D0000E0001836F15D000016EC0F6FFC8
:1052380000016FC0F7FF0800F5CF76F00001835139
:105248000A0DF35000017625D00F0001836F00018D
:105258006E4B6F2B00016EC0F6FF00016FC0F7FFA9
:105268000800F550D6EC63F0D8A0AFD0DED7000E1A
:105278000001836FAAD000018B8DCFD000018B8BEA
:1052880000018B8FCAD000018351D8B41AD0000115
:1052980083C076F00001776B76BF770700018851ED
:1052A8000001765D0001895100017759D8B009D015
:1052B800000183510001886F0001896B000188BFDC
:1052C8008907000184510001885D000185510001B2
:1052D8008959D8B00AD0000120EE88F0DE500001CC
:1052E800845FDD500001855B06D0000E0001856FEC
:1052F800000E0001846F00018BA70AD024D06CC077
:10530800D9FF6DC0DAFF200EDF6E00016C4B6D2BEC
:1053180000018407D8A0850700018429D8B485290D
:10532800D8B411D0ECD786C0D9FF87C0DAFF6CC0DB
:10533800E1FF6DC0E2FFDFCFE7FF0001864B872B5F
:1053480000016C4B6D2B00018807D8A0890700016C
:105358008829D8B48929D8A4E6D700018BB70AD000
:10536800C6D36CC0D9FF6DC0DAFF200EDF6E000116
:105378006C4B6D2B00018407D8A085070001842998
:10538800D8B48529D8B4B3D3ECD781C0D9FF82C0AB
:10539800DAFFDF5000018A6F020E00018127000E3C
:1053A800000182230001000E0001876F00018A0EB0
:1053B8000001866F000E0001896F010E0001886FE1
:1053C80062D7C00E00018B1328D000016EC0F6FF13
:1053D80000016FC0F7FF00016E4B6F2B0800000142
:1053E800F5CF8AF000018A51000AD8B491D3580A3F
:1053F800D8B444D73B0AD8B4C8D7070AD8B40DD014
:105408000D0AD8B40AD0060AD8B435D71A0AD8B4BF
:10541800D8D70D0AD8B434D7C5D7C00E00018B151C
:105428000001766F000E00018C150001776F0001F6
:1054380077517611D8A425D081C0D9FF82C0DAFF70
:105448000001DECF86F00001DDCF87F0020E0001FB
:105458008127000E0001822300018751800AF36E24
:10546800800EF35C000ED8B4865DD8B01AD0030E57
:1054780000018B130001866D0001871FD8B0872BB0
:1054880010D081C0D9FF82C0DAFF0001DECF86F0DC
:105498000001DDCF87F0020E00018127000E000118
:1054A80082230001836774D0000187518611D8A434
:1054B8006FD00001832B6CD0010E00018A6F0001B0
:1054C8008A51050AD8B473D000018A51020D0F0E13
:1054D800F324F66EFC0EF420F76E0900F5CF76F093
:1054E8000900F5CF77F0000176510001865D0001D3
:1054F800775100018759D8A05AD000018A2BDFD7ED
:10550800010E00018A6F00018A51040AD8B44FD0F5
:1055180000018A51020D190EF324F66EFC0EF420D8
:10552800F76E0900F5CF76F00900F5CF77F00001A6
:1055380076510001865D0001775100018759D8A096
:1055480036D000018A2BDFD7010E00018A6F0001D7
:105558008A51060AD8B42BD000018A51020D030ED5
:10556800F324F66EFC0EF420F76E0900F5CF76F002
:105578000900F5CF77F0000176510001865D000142
:10558800775100018759D8A012D000018A2BDFD7A4
:1055980000018B51C00B000AD8B48ED7400AD8B48A
:1055A800D3D7C00AD8B4ACD7400AD8B485D700013D
:1055B8008A51800A0001766F00018351800A000138
:1055C800765DD8B003D083C08AF00DD00001835136
:1055D800800A0001766F00018A51800A0001765D19
:1055E800D8A08AC083F0000185518411D8B413D0A3
:1055F800030E00018B150001766F000E00018C155B
:105608000001776F000177517611D8B404D00001FA
:105618008407D8A0850700018CAD22D0800E000138
:1056280083BF7F0E0001766F000184510001835D06
:1056380000018551800A00017659D8B00BD00001CD
:1056480083510001845F000E000183BFFF0E00013B
:10565800855B06D0000E0001856F000E0001846F87
:10566800C40E0001766F080E776F00018BC078F0CA
:1056780000018CC079F00001765100017817000113
:1056880077510001791700017951080A400ED8B402
:105698007819D8A40AD0000185518411D8B437D01C
:1056A80000018407D8A0850732D0C00E0001766FAC
:1056B800080E776F00018BC078F000018CC079F07C
:1056C8000001765100017817000177510001791720
:1056D80000017951080A800ED8B47819D8A417D0D7
:1056E80000018551800A800F030ED8B4845DD8A0CC
:1056F80008D00001FE0E00018427FF0E000185235B
:1057080006D0000E0001856F000E0001846F800E28
:1057180000018ABF7F0E0001766F000184510001ED
:105728008A5D00018551800A00017659D8B00BD0F6
:1057380000018A510001845F000E00018ABFFF0E3C
:105748000001855B06D0000E0001856F000E000188
:10575800846F00018BA56FD0030E00018B1500012B
:10576800766F000E00018C150001776F00017751EC
:105778007611D8B406D06CC0D9FF6DC0DAFF2D0EF3
:1057880008D000018BA107D06CC0D9FF6DC0DAFF2B
:10579800200EDF6E39D0C00E0001766F080E776FCD
:1057A80000018BC078F000018CC079F000017651BF
:1057B800000178170001775100017917000179512C
:1057C800080A800ED8B47819D8A421D06CC0D9FFA3
:1057D8006DC0DAFF300EDF6E00016C4B6D2B0001DF
:1057E8008BBB05D0000E00017C6F780E04D0000E34
:1057F80000017C6F580E00017B6F6CC0D9FF6DC033
:10580800DAFF00017BC0DFFF00016C4B6D2B00014C
:10581800000185518411D8B446D16CC0D9FF6DC040
:10582800DAFF300EDF6E00016C4B6D2B0001840730
:10583800D8A08507EDD7000185518411D8B415D0BB
:1058480000018BB712D06CC0D9FF6DC0DAFF200EF3
:10585800DF6E00016C4B6D2B00018407D8A0850713
:10586800000185518411D8A4EED7030E00018B15D1
:105878000001766F000E00018C150001776F0001A2
:1058880077517611D8B406D06CC0D9FF6DC0DAFF55
:105898002D0E08D000018BA109D06CC0D9FF6DC0B6
:1058A800DAFF200EDF6E00016C4B6D2BC00E00017D
:1058B800766F080E776F00018BC078F000018CC0FE
:1058C80079F0000176510001781700017751000145
:1058D800791700017951080A400ED8B47819D8A46C
:1058E80007D06CC0D9FF6DC0DAFF300EDF6ED8D09C
:1058F800C00E0001766F080E776F00018BC078F03C
:1059080000018CC079F00001765100017817000180
:1059180077510001791700017951080A800ED8B42F
:105928007819D8A4C0D06CC0D9FF6DC0DAFF300E8A
:10593800DF6E00016C4B6D2B00018BBB05D0000E98
:1059480000017E6F780E04D0000E00017E6F580EA5
:1059580000017D6F6CC0D9FF6DC0DAFF00017DC00A
:10596800DFFF9ED000018351020D0F0EF324F66E67
:10597800FC0EF420F76E09000001F5CF62F00A0072
:105988000001F5CF63F086C060F087C061F0E5ECF8
:105998005FF0000160C067F0000161C068F0000EB0
:1059A80000016A6F0A0E0001696F60EC61F0000186
:1059B80067515CD086C060F087C061F000018351F8
:1059C800020D190EF324F66EFC0EF420F76E090092
:1059D8000001F5CF62F00A000001F5CF63F0E5ECB5
:1059E8005FF0000160510F0B00017A6F00018BBB63
:1059F80005D0FF0E0001806F230E04D0FF0E0001BA
:105A0800806F120E00017F6F00017A51010D0001B5
:105A18007FC076F0000180C077F0F3500001762750
:105A2800F4500001772376C0F6FF77C0F7FF08002F
:105A38000001F5CF8AF02DD086C060F087C061F0F4
:105A480000018351020D030EF324F66EFC0EF420C0
:105A5800F76E09000001F5CF62F00A000001F5CFEA
:105A680063F0E5EC5FF000016051070B300F0001B7
:105A78008A6F0FD000018B51C00B000AD8B472D7BF
:105A8800400AD8B4D9D7C00AD8B494D7400AD8B4F1
:105A980069D76CC0D9FF6DC0DAFF00018AC0DFFF8B
:105AA80000016C4B6D2B0001830700018329D8A4EA
:105AB800E1D700018BA71BD000018551800A800F18
:105AC800010ED8B4845DD8A012D06CC0D9FF6DC0C7
:105AD800DAFF200EDF6E00016C4B6D2B000184078E
